:020000040800F2
:1000000000800120D14300087143000873430008B9
:10001000754300087743000879430008000000009A
:100020000000000000000000000000007B4300080A
:100030007D430008000000007F4300088143000862
:1000400021440008214400082144000821440008FC
:1000500021440008214400082144000821440008EC
:1000600021440008214400082144000821440008DC
:1000700021440008214400082144000821440008CC
:1000800021440008214400082144000821440008BC
:1000900021440008214400082144000821440008AC
:1000A000214400082144000821440008214400089C
:1000B000214400082144000821440008214400088C
:1000C000214400082144000821440008214400087C
:1000D000214400082144000821440008214400086C
:1000E000214400082144000821440008214400085C
:1000F000214400082144000821440008214400084C
:10010000214400082144000821440008214400083B
:10011000214400082144000821440008214400082B
:10012000214400082144000821440008214400081B
:10013000214400082144000821440008214400080B
:1001400021440008214400082144000821440008FB
:1001500021440008214400082144000821440008EB
:1001600021440008214400082144000821440008DB
:100170002144000821440008214400080000000038
:0801800021440008214400089D
:1001880010B5054C237833B9044B13B10448AFF3C9
:1001980000800123237010BD7800002000000000BB
:1001A8000C4C000808B5034B1BB103490348AFF3D7
:1001B800008008BD000000007C0000200C4C0008F6
:1001C80081F0004102E000BF83F0004330B54FEA00
:1001D80041044FEA430594EA050F08BF90EA020F6D
:1001E8001FBF54EA000C55EA020C7FEA645C7FEA00
:1001F800655C00F0E2804FEA5454D4EB5555B8BF23
:100208006D420CDD2C4480EA020281EA030382EA93
:10021800000083EA010180EA020281EA0303362D25
:1002280088BF30BD11F0004F4FEA01314FF4801CF8
:100238004CEA113102D0404261EB410113F0004F0A
:100248004FEA03334CEA133302D0524263EB4303C1
:1002580094EA050F00F0A780A4F10104D5F1200E5F
:100268000DDB02FA0EFC22FA05F2801841F10001BA
:1002780003FA0EF2801843FA05F359410EE0A5F18E
:1002880020050EF1200E012A03FA0EFC28BF4CF0BF
:10029800020C43FA05F3C01851EBE37101F0004575
:1002A80007D54FF0000EDCF1000C7EEB00006EEB82
:1002B8000101B1F5801F1BD3B1F5001F0CD349080C
:1002C8005FEA30004FEA3C0C04F101044FEA445263
:1002D80012F5800F80F09A80BCF1004F08BF5FEAEA
:1002E800500C50F1000041EB045141EA050130BDCA
:1002F8005FEA4C0C404141EB010111F4801FA4F16D
:100308000104E9D191F0000F04BF01460020B1FAC1
:1003180081F308BF2033A3F10B03B3F120020CDAF9
:100328000C3208DD02F1140CC2F10C0201FA0CF0D7
:1003380021FA02F10CE002F11402D8BFC2F1200C3C
:1003480001FA02F120FA0CFCDCBF41EA0C019040F2
:10035800E41AA2BF01EB0451294330BD6FEA04043B
:100368001F3C1CDA0C340EDC04F11404C4F1200226
:1003780020FA04F001FA02F340EA030021FA04F338
:1003880045EA030130BDC4F10C04C4F1200220FA8F
:1003980002F001FA04F340EA0300294630BD21FACD
:1003A80004F0294630BD94F0000F83F4801306BF93
:1003B80081F480110134013D4EE77FEA645C18BF87
:1003C8007FEA655C29D094EA050F08BF90EA020F1E
:1003D80005D054EA000C04BF1946104630BD91EA16
:1003E800030F1EBF0021002030BD5FEA545C05D119
:1003F8004000494128BF41F0004130BD14F5800458
:100408003CBF01F5801130BD01F0004545F0FE41CB
:1004180041F470014FF0000030BD7FEA645C1ABF00
:10042800194610467FEA655C1CBF0B46024650EA37
:10043800013406BF52EA033591EA030F41F4002163
:1004480030BD00BF90F0000F04BF0021704730B5E9
:100458004FF4806404F132044FF000054FF00001BE
:1004680050E700BF90F0000F04BF0021704730B57F
:100478004FF4806404F1320410F0004548BF404254
:100488004FF000013EE700BF42004FEAE2014FEAA9
:1004980031014FEA02701FBF12F07F4393F07F4F84
:1004A80081F06051704732F07F4208BF704793F087
:1004B8007F4F04BF41F40021704730B54FF460749A
:1004C80001F0004521F000411CE700BF50EA01029D
:1004D80008BF704730B54FF000050AE050EA010246
:1004E80008BF704730B511F0004502D5404261EBB6
:1004F80041014FF4806404F132045FEA915C3FF4F7
:10050800D8AE4FF003025FEADC0C18BF03325FEA93
:10051800DC0C18BF033202EBDC02C2F1200300FA44
:1005280003FC20FA02F001FA03FE40EA0E0021FA69
:1005380002F11444BDE600BF70B54FF0FF0C4CF457
:10054800E06C1CEA11541DBF1CEA135594EA0C0F09
:1005580095EA0C0F00F0DEF82C4481EA030621EA44
:100568004C5123EA4C5350EA013518BF52EA03357F
:1005780041F4801143F4801338D0A0FB02CE4FF031
:100588000005E1FB02E506F00042E0FB03E54FF061
:100598000006E1FB03569CF0000F18BF4EF0010E59
:1005A800A4F1FF04B6F5007F64F5407404D25FEA55
:1005B8004E0E6D4146EB060642EAC62141EA555108
:1005C8004FEAC52040EA5E504FEACE2EB4F1FD0C4A
:1005D80088BFBCF5E06F1ED8BEF1004F08BF5FEAC8
:1005E800500E50F1000041EB045170BD06F000467A
:1005F80046EA010140EA020081EA0301B4EB5C0427
:10060800C2BFD4EB0C0541EA045170BD41F480111E
:100618004FF0000E013C00F3AB8014F1360FDEBF43
:10062800002001F0004170BDC4F10004203C35DA1F
:100638000C341BDC04F11404C4F1200500FA05F3A2
:1006480020FA04F001FA05F240EA020001F0004243
:1006580021F0004110EBD37021FA04F642EB0601B9
:100668005EEA430E08BF20EAD37070BDC4F10C04E3
:10067800C4F1200500FA04F320FA05F001FA04F2A7
:1006880040EA020001F0004110EBD37041F1000193
:100698005EEA430E08BF20EAD37070BDC4F120059E
:1006A80000FA05F24EEA020E20FA04F301FA05F206
:1006B80043EA020321FA04F001F0004121FA04F2AE
:1006C80020EA020000EBD3705EEA430E08BF20EA7E
:1006D800D37070BD94F0000F0FD101F000464000B8
:1006E80041EB010111F4801F08BF013CF7D041EA3A
:1006F800060195F0000F18BF704703F0004652003E
:1007080043EB030313F4801F08BF013DF7D043EA0E
:100718000603704794EA0C0F0CEA135518BF95EAC4
:100728000C0F0CD050EA410618BF52EA4306D1D14B
:1007380081EA030101F000414FF0000070BD50EA6A
:10074800410606BF1046194652EA430619D094EAF4
:100758000C0F02D150EA013613D195EA0C0F05D1DE
:1007680052EA03361CBF104619460AD181EA030132
:1007780001F0004141F0FE4141F470014FF00000EA
:1007880070BD41F0FE4141F4780170BD70B54FF085
:10079800FF0C4CF4E06C1CEA11541DBF1CEA135505
:1007A80094EA0C0F95EA0C0F00F0A7F8A4EB0504E7
:1007B80081EA030E52EA03354FEA013100F08880DE
:1007C8004FEA03334FF0805545EA131343EA1263A7
:1007D8004FEA022245EA111545EA10654FEA00265C
:1007E8000EF000419D4208BF964244F1FD0404F515
:1007F800407402D25B084FEA3202B61A65EB030571
:100808005B084FEA32024FF480104FF4002CB6EB2D
:10081800020E75EB030E22BFB61A754640EA0C00AD
:100828005B084FEA3202B6EB020E75EB030E22BFED
:10083800B61A754640EA5C005B084FEA3202B6EB2E
:10084800020E75EB030E22BFB61A754640EA9C00ED
:100858005B084FEA3202B6EB020E75EB030E22BFBD
:10086800B61A754640EADC0055EA060E18D04FEA7B
:10087800051545EA16754FEA06164FEAC30343EA1B
:1008880052734FEAC2025FEA1C1CC0D111F4801FE8
:100898000BD141EA00014FF000004FF0004CB6E7E1
:1008A80011F4801F04BF01430020B4F1FD0C88BF80
:1008B800BCF5E06F3FF6AFAEB5EB030C04BFB6EB8B
:1008C800020C5FEA500C50F1000041EB045170BD7E
:1008D8000EF0004E4EEA113114EB5C04C2BFD4EBAB
:1008E8000C0541EA045170BD41F480114FF0000E2F
:1008F800013C90E645EA060E8DE60CEA135594EAAB
:100908000C0F08BF95EA0C0F3FF43BAF94EA0C0FAD
:100918000AD150EA01347FF434AF95EA0C0F7FF422
:1009280025AF104619462CE795EA0C0F06D152EA76
:1009380003353FF4FDAE1046194622E750EA41065A
:1009480018BF52EA43067FF4C5AE50EA41047FF46B
:100958000DAF52EA43057FF4EBAE12E74FF0FF3CD0
:1009680006E000BF4FF0010C02E000BF4FF0010CA1
:100978004DF804CD4FEA410C7FEA6C5C4FEA430C1A
:1009880018BF7FEA6C5C1BD001B050EA410C0CBF69
:1009980052EA430C91EA030F02BF90EA020F0020CB
:1009A800704710F1000F91EA030F58BF994208BF32
:1009B80090422CBFD8176FEAE37040F001007047EF
:1009C8004FEA410C7FEA6C5C02D150EA013C07D146
:1009D8004FEA430C7FEA6C5CD6D152EA033CD3D091
:1009E8005DF8040B704700BF8446104662468C468B
:1009F8001946634600E000BF01B5FFF7B7FF0028BE
:100A080048BF10F1000F01BD4DF808EDFFF7F4FFE6
:100A18000CBF012000205DF808FB00BF4DF808ED71
:100A2800FFF7EAFF34BF012000205DF808FB00BF94
:100A38004DF808EDFFF7E0FF94BF012000205DF8B6
:100A480008FB00BF4DF808EDFFF7CEFF94BF01206B
:100A580000205DF808FB00BF4DF808EDFFF7C4FF64
:100A680034BF012000205DF808FB00BF4FEA410CAD
:100A78007FEA6C5C02D150EA013C0AD14FEA430C90
:100A88007FEA6C5C02D152EA033C02D14FF00000CD
:100A980070474FF0010070474FEA4102B2F1E0435E
:100AA80024BFB3F5001CDCF1FE5C0DD901F0004C4D
:100AB8004FEAC0024CEA5070B2F1004F40EB83009D
:100AC80008BF20F00100704711F0804F21D113F1C9
:100AD8003872BCBF01F00040704741F480114FEA02
:100AE8005252C2F11802C2F1200C10FA0CF320FA8B
:100AF80002F018BF40F001004FEAC1234FEAD323A8
:100B080003FA0CFC40EA0C0023FA02F34FEA430311
:100B1800CCE77FEA625307D150EA01331EBF4FF09A
:100B2800FE4040F44000704701F0004040F0FE40B5
:100B380040F40000704700BF104B1B680BB9012040
:100B4800704710B504464FF47A70B0FBF3F30C4AC3
:100B58001068B0FBF3F000F097F868B90F2C01D9D2
:100B680001200AE0002221464FF0FF3000F058F83B
:100B7800024B5C60002000E0012010BD0000002056
:100B88000800002010B5094A136843F48073136005
:100B9800032000F033F80020FFF7CEFF10B1012446
:100BA800204610BD044603F01DFBF9E70020024073
:100BB800034A1368034909680B441360704700BF70
:100BC800EC00002000000020014B1868704700BFAF
:100BD800EC00002038B50446FFF7F6FF0546B4F1EF
:100BE800FF3F02D0044B1B681C44FFF7EDFF401B7E
:100BF800A042FAD338BD00BF00000020074AD368DE
:100C080023F4E0631B041B0C000200F4E0601843AB
:100C180040F0BF6040F40030D060704700ED00E065
:100C280030B4174BDB68C3F30223C3F10704042C69
:100C380028BF04241D1D062D18D9033B4FF0FF358E
:100C480005FA04F421EA0401994005FA03F322EABB
:100C58000303194300280BDB0901C9B200F1604006
:100C680000F5614080F8001330BC70470023E5E7C9
:100C780000F00F000901C9B2024B1954F4E700BF94
:100C880000ED00E014ED00E00138B0F1807F0AD2F9
:100C9800064B5860064AF02182F82310002098601D
:100CA80007221A6070470120704700BF10E000E07B
:100CB80000ED00E070B110B50446037933B10223AA
:100CC8002371002020610123237110BD437103F0BB
:100CD800A1FAF4E701207047F8B54379012B00F039
:100CE800948016460D46044601234371022303717E
:100CF8000B68042B32D02B69012B79D02068C36B89
:100D080006F010020721914023EA01012B68AE6822
:100D18003343EE68334393400B43C363206803684F
:100D28004FF48041914023EA01030360206803687F
:100D380040F6FC71914023EA01016B6893400B4334
:100D4800036020680368C02101FA02F223EA020264
:100D580002600123237100206071F8BD72B123681D
:100D68005B6B002B25DAFFF72FFF0128F7D92369E2
:100D780043F00803236103202071EEE7FFF724FF07
:100D8800074623685B6B13F4004F0BD0FFF71CFF7B
:100D9800C01B0128F5D9236943F008032361032008
:100DA8002071DAE70120FFF715FF2368AA691A64A2
:100DB80005E00120FFF70EFF2368AA695A6420683E
:100DC800826C06F0100140F2FF338B4022EA0302E6
:100DD800EB698B401A4382642068C36CFF228A4007
:100DE80023EA02032A6A02FA01F10B43C36482E789
:100DF80021688A6B06F010001F23834022EA030251
:100E08006B69834013438B6378E70220A5E70000F2
:100E1800F0B482B0002341E0D0F82CC02CEA040CD6
:100E2800C6F3C0049C4044EA0C04C46286E006246D
:100E380000E00024B4403C430235664E46F82540A5
:100E4800654C2568D44304EA05064F6817F4803FCB
:100E580001D042EA0506604D2E606D6804EA050679
:100E68004F6817F4003F01D042EA05065A4D6E60FC
:100E7800AD6804EA05064F6817F4801F01D042EAFE
:100E88000506554DAE60ED682C404E6816F4001FFF
:100E980001D042EA0504504AD46001330A6832FAA4
:100EA80003F400F0938001249C402240F5D04D6863
:100EB800022D01D0122D10D1DE08083650F826C0B8
:100EC80003F00705AF000F25BD402CEA050C0D699E
:100ED800BD4045EA0C0540F8265006685F0003252A
:100EE800BD40ED4305EA060C4E6806F00306BE4019
:100EF80046EA0C0606604E6806F1FF3CBCF1010F9D
:100F080003D9112E01D0122E11D1866805EA060CDC
:100F1800CE68BE4046EA0C068660466826EA040C9F
:100F28004E68C6F300169E4046EA0C0646604E68B8
:100F380006F0030CBCF1030F3FF46EAFC468254004
:100F48008C68BC402C43C4604C6814F0805FA4D00B
:100F5800224C256E45F001052566246E04F0010437
:100F68000194019C9D08AE1C1A4C54F8267003F09D
:100F78000304A6000F24B44027EA0407B0F1904FF9
:100F88003FF457AF164CA04216D004F58064A04237
:100F980014D004F58064A04212D004F58064A04205
:100FA80010D004F58064A0420ED004F58064A042FD
:100FB8003FF43DAF07243DE701243BE7022439E72E
:100FC800032437E7042435E7052433E702B0F0BCEF
:100FD800704700BF000001400004014000100240BB
:100FE800000400480AB981627047816170470000B7
:100FF800024B186800F4C060704700BF00700040E2
:10100800B0F5007F0FD01F4B1B6803F4C063B3F526
:10101800806F34D01B4A136823F4C06343F48063A1
:10102800136000207047174B1B6803F4C063B3F5C7
:10103800007F22D0134A136823F4C06343F400737B
:101048001360114B1A68322303FB02F30F4AA2FB09
:1010580003239B0C013300E0013B0A4A526912F456
:10106800806F01D0002BF7D1064B5B6913F4806FBA
:1010780001D10020704703207047002070470020EE
:10108800704700BF007000400800002083DE1B434B
:1010980030B583B00546204B9B6D13F0805F0BD0B5
:1010A800FFF7A6FFB0F5007F17D0802D1FD82DD0F1
:1010B800702D2DD000211BE0174CA36D43F08053F9
:1010C800A365A36D03F080530193019BFFF790FF85
:1010D800A36D23F08053A365E4E7802D03D9A02DE9
:1010E80003D9022104E0002102E0012100E00321EC
:1010F8000A4A136823F007030B431360136803F0CD
:1011080007038B4206D0012003B030BD0221EFE770
:101118000121EDE70020F7E700100240002002401F
:10112800284A9368D26802F0030213F00C030AD02D
:101138000C2B06D0042B1FD0082B20D000200246F1
:1011480010E0012AF6D11F4A126812F0080F0CD1DC
:101158001C4AD2F89420C2F303221B4951F82220DA
:1011680043B100200C2B0DD07047164A1268C2F309
:101178000312F2E71046F5E714480022F2E7144894
:101188000022EFE70F4BDB6803F00303022B15D0B7
:10119800032B15D00B4BD868C0F302100130D96867
:1011A800C1F3062102FB01F2B2FBF0F2D868C0F3EA
:1011B800416001304000B2FBF0F0D5E7034AE9E7AF
:1011C800034AE7E700100240284C00080024F40016
:1011D80000127A00002800F0D182F0B583B00446EE
:1011E800AD4B9D6805F00C05DE6806F00306036844
:1011F80013F0100F5ED0E5B10C2D18D0A369002BA9
:1012080000F0B880A44A136843F001031360FFF7A5
:10121800DBFC0746A04B1B6813F0020F40F09780D9
:10122800FFF7D2FCC01B0228F4D90323B9E2012E30
:10123800E4D1994B1B6813F0020F03D0A369002B6C
:1012480000F09F82206A944B1B6813F0080F5ED051
:10125800914B1B6803F0F00398425FD9FFF718FF22
:10126800002840F097828C4B1A6842F008021A60F6
:101278001A6822F0F002216A0A431A605A6822F4B6
:101288007F42E16942EA01225A60FFF749FF824B37
:101298009B68C3F30313814AD35C03F01F03D84050
:1012A8007F4B18607F4B1868FFF746FC0346002801
:1012B80040F07782236813F0010F7AD0082D6FD0A1
:1012C8000C2D6BD06368B3F5803F00F09180B3F5C7
:1012D800A02F00F09380704B1A6822F480321A60B5
:1012E8001A6822F480221A606368002B00F0938049
:1012F800FFF76AFC0746684B1B6813F4003F58D198
:10130800FFF762FCC01B6428F5D9032349E2624B4E
:10131800D3F894301B0903F0F0039DE75E4B1A687D
:1013280042F008021A601A6822F0F002216A0A43A1
:101338001A605A6822F47F42E16942EA01225A603F
:10134800206AFFF7A5FE00289FD0012329E2524B0F
:101358001A6842F008021A601A6822F0F002216A3C
:101368000A431A605A6822F47F42E16942EA01227C
:101378005A609FE7484A136823F001031360FFF798
:1013880023FC0746444B1B6813F0020F92D0FFF76B
:101398001BFCC01B0228F5D9032302E2032E91D1BE
:1013A8003D4B1B6813F4003F03D06368002B00F02B
:1013B800F381236813F0020F4FD0042D3CD00C2D7D
:1013C80038D0E368002B78D0334A136843F480732D
:1013D8001360FFF7F9FB06462F4B1B6813F4806F69
:1013E80062D1FFF7F1FB801B0228F5D90323D8E16E
:1013F800294A136843F48033136075E703F1804387
:10140800A3F53C331A6842F480221A601A6842F441
:1014180080321A6068E7FFF7D7FB07461E4B1B6848
:1014280013F4003FC5D0FFF7CFFBC01B6428F5D9E4
:101438000323B6E1022EC4D1174B1B6813F4806F47
:1014480003D0E368002B00F0A981134A536823F006
:10145800F853216943EA01635360236813F0080FC6
:1014680056D06369002B3CD00B4AD2F8943043F035
:101478000103C2F89430FFF7A7FB0646064BD3F8E2
:10148800943013F0020F43D1FFF79EFB801B022814
:10149800F4D9032385E100BF00100240584C00082E
:1014A8000800002004000020B74A536823F0F853CE
:1014B800216943EA01635360CFE7B34A136823F411
:1014C80080731360FFF780FB0646AF4B1B6813F46D
:1014D800806FC2D0FFF778FB801B0228F5D9032361
:1014E8005FE1A94AD2F8943023F00103C2F894309E
:1014F800FFF76AFB0646A44BD3F8943013F0020FAB
:1015080006D0FFF761FB801B0228F4D9032348E1CA
:10151800236813F0040F7AD09B4B9B6D13F0805F08
:101528000BD1994B9A6D42F080529A659B6D03F0EE
:1015380080530193019B012600E00026934B1B6812
:1015480013F4807F26D0A368012B37D0052B3DD01C
:101558008D4BD3F8902022F00102C3F89020D3F8E5
:10156800902022F00402C3F89020A368002B3BD0FF
:10157800FFF72AFB0746844BD3F8903013F0020F8D
:1015880044D1FFF721FBC01B41F288339842F2D9BE
:10159800032306E17D4A136843F480731360FFF761
:1015A80013FB0746794B1B6813F4807FCBD1FFF7F9
:1015B8000BFBC01B0228F5D90323F2E0724AD2F8CC
:1015C800903043F00103C2F89030CEE76E4BD3F869
:1015D800902042F00402C3F89020D3F8902042F003
:1015E8000102C3F89020C0E7FFF7EEFA0746664B02
:1015F800D3F8903013F0020F08D0FFF7E5FAC01BBC
:1016080041F288339842F2D90323CAE05EBBA36A49
:10161800002B00F0C5800C2D76D0022B29D05A4B18
:101628001A6822F080721A601B6813F0205F04D1D8
:10163800554AD36823F00303D360534AD36823F091
:10164800887323F48033D360FFF7BEFA04464E4B09
:101658001B6813F0007F55D0FFF7B6FA001B02286D
:10166800F5D903239DE0484A936D23F08053936591
:10167800CDE7454A136823F080731360FFF7A4FA97
:101688000546414B1B6813F0007F06D0FFF79CFA14
:10169800401B0228F5D9032383E03B4AD3683C4921
:1016A8001940E36A206B013843EA0013606B43EA90
:1016B8000023E06B4008013843EA4053206C40089F
:1016C800013843EA4063A06B000943EA40430B43F7
:1016D800D360136843F080731360D36843F080735A
:1016E800D360FFF771FA0446274B1B6813F0007F9D
:1016F80006D1FFF769FA001B0228F5D9032350E049
:1017080000234EE000234CE0012B4DD01E4BDB683C
:1017180003F00301E26A914201D0012341E003F0A2
:101728007002216B0139B2EB011F01D0012338E0AF
:1017380003F4FE42616BB2EB012F01D0012330E0CC
:1017480003F40031A26B073A18BF0122914201D07D
:10175800012326E003F4C001E26B5208013AB1EB21
:10176800425F01D001231CE003F0C063226C5208E1
:10177800013AB3EB426F19D0012312E00123184656
:10178800704701230DE000BF0010024000700040C8
:101798008C809DF9012304E0012302E0012300E08D
:1017A8000023184603B0F0BD0123FAE70023F8E749
:1017B800002800F09B8070B504464E4B1B6803F070
:1017C80007038B420CD24B4A136823F007030B43E1
:1017D8001360136803F007038B4201D0012070BD2A
:1017E8000D46236813F0010F39D06368032B09D025
:1017F800022B26D063BB404A126812F0020F06D1B2
:101808000120ECE73C4A126812F0007F70D03A4998
:101818008A6822F0030213438B60FFF7D5F9064666
:10182800354B9B6803F00C036268B3EB820F16D04C
:10183800FFF7CAF9801B41F288339842F0D9032098
:10184800CDE72D4A126812F4003FE0D10120C6E727
:10185800294A126812F4806FD9D10120BFE72368A2
:1018680013F0020F06D0244A936823F0F003A1680E
:101878000B4393601F4B1B6803F00703AB420CD963
:101888001C4A136823F007032B431360136803F003
:101898000703AB4201D00120A1E7236813F0040F2E
:1018A80006D0154A936823F4E063E1680B4393601C
:1018B800236813F0080F07D00F4A936823F4605386
:1018C800216943EAC1039360FFF72AFC0A4B9B682E
:1018D800C3F30313094AD35C03F01F03D840084B32
:1018E8001860084B1868FFF727F978E70120704758
:1018F800012074E70020024000100240584C000804
:101908000800002004000020014B1868704700BF41
:101918000800002008B5FFF7F7FF054B9B68C3F3E5
:101928000223044AD35C03F01F03D84008BD00BF5C
:1019380000100240684C000808B5FFF7E5FF054BAA
:101948009B68C3F3C223044AD35C03F01F03D84047
:1019580008BD00BF00100240684C0008B0F5006FD9
:1019680024D0B0F5805F2BD00020B0F5000F31D027
:10197800B0F1007F2ED0002849D1384B1B6913F4F1
:10198800803F6AD0354BD868C0F302100130B1FBF4
:10199800F0F11869C0F306201B6913F4003F34D135
:1019A800072300FB01F0B0FBF3F070472B4BD3F893
:1019B800880000F44000B0F5400FD6D128487047A1
:1019C800264BD3F8880000F04070B0F1407FCCD1AE
:1019D80023487047214BDB6813F4803F3AD01F4BF4
:1019E800D868C0F302100130B1FBF0F1D868C0F339
:1019F8000620DB6813F4003F05D1072300FB01F044
:101A0800B0FBF3F070471123F8E71123C9E7B0F5ED
:101A1800800F04D0B0F1807F01D0002070470F4BB9
:101A28005B6913F4803F17D00C4BD868C0F30210E1
:101A38000130B1FBF0F15869C0F306205B6913F47B
:101A4800003F05D0112300FB01F0B0FBF3F0704715
:101A58000723F8E700207047002070470010024075
:101A680068FF1F00F8B55A4BDB6813F0030F18D056
:101A7800574BDB6803F003030268934202D0012549
:101A88002846F8BD002A00F0A080514BDB68C3F35C
:101A9800021301334268934201D00125F0E7002583
:101AA8001AE00368022B59D0032B5ED0012B01D01A
:101AB80001250FE0464A126812F0020F61D0444D2A
:101AC800EA6822F073024468013C43EA04131343B2
:101AD800EB600025002DD3D10F4604463C4A13681D
:101AE80023F080631360FFF76FF80646384B1B68D6
:101AF80013F0006F05D0FFF767F8801B0228F5D9AF
:101B08000325002DBCD1002F3DD131490B6923F4A9
:101B18001F3323F44073A068E2681209520442EAB2
:101B2800002213430B612A4A136843F08063136051
:101B3800FFF74AF80646264B1B6813F0006F05D1DD
:101B4800FFF742F8801B0228F5D90325002D97D10D
:101B58001F4A1369A1690B43136191E71C4A126874
:101B680012F4806FABD10125B4E7194A126812F458
:101B7800003FA4D1164A126812F4802F9FD1012584
:101B8800A8E70125A6E7012F0FD01148026922F026
:101B9800C06222F4FE42A16863695B08013B5B06F0
:101BA80043EA012313430361BDE70948026922F4AC
:101BB800C00222F4FE42A16823695B08013B5B0571
:101BC80043EA012313430361ADE7012558E700BF4A
:101BD80000100240F8B5514BDB6813F0030F18D022
:101BE8004E4BDB6803F003030268934202D00125E1
:101BF8002846F8BD002A00F08E80484BDB68C3F306
:101C0800021301334268934201D00125F0E7002511
:101C18001AE00368022B59D0032B5ED0012B01D0A8
:101C280001250FE03D4A126812F0020F61D03B4DCA
:101C3800EA6822F073024468013C43EA0413134340
:101C4800EB600025002DD3D10F460446334A1368B4
:101C580023F080531360FEF7B7FF06462F4B1B682F
:101C680013F0005F05D0FEF7AFFF801B0228F5D9FF
:101C78000325002DBCD1002F3DD128494B6923F401
:101C88001F3323F44073A068E2681209520442EA41
:101C9800002213434B61214A136843F080531360B9
:101CA800FEF792FF06461D4B1B6813F0005F05D137
:101CB800FEF78AFF801B0228F5D90325002D97D14E
:101CC800164A536961690B43536191E7134A1268D5
:101CD80012F4806FABD10125B4E7104A126812F4F0
:101CE800003FA4D10D4A126812F4802F9FD101251C
:101CF800A8E70125A6E70948426922F0C06222F454
:101D0800FE42A16823695B08013B5B0643EA0123A5
:101D180013434361BFE701256AE700BF0010024093
:101D28002DE9F04182B00446036813F4006F2FD008
:101D3800436EB3F5800F25D008D9B3F5000F10D046
:101D4800B3F5400F40F09980002610E0002B40F0DA
:101D5800948000210430FFF785FE06463EB13746E1
:101D680018E05E4AD36843F48033D36000265B4AA8
:101D7800D2F8883023F44003616E0B43C2F88830F0
:101D8800002707E000212030FFF724FF0646E5E79B
:101D980000273E46236813F4805F15D0A36EB3F185
:101DA800807F7AD06CD9B3F1007F70D0B3F1407FD7
:101DB8007AD1002E7BD1494AD2F8883023F040737B
:101DC800A16E0B43C2F88830236813F4003F00F07B
:101DD8008E80424B9B6D13F0805F6AD13F4B9A6DAA
:101DE80042F080529A659B6D03F080530193019BEA
:101DF8004FF001083A4A136843F480731360FEF702
:101E0800E3FE0546364B1B6813F4807F05D1FEF7C9
:101E1800DBFE401B0228F5D90326002E62D12F4B8A
:101E2800D3F8903013F4407316D0D4F884209A4233
:101E380012D02A4AD2F8903023F44073D2F8901086
:101E480041F48031C2F89010D2F8901021F480311A
:101E5800C2F89010C2F8903013F0010F2CD1002E68
:101E680040F043811D4AD2F8903023F44073D4F8EF
:101E780084100B43C2F8903035E001273E4689E7CD
:101E880093B90021201DFFF7EDFD064691E7134A9F
:101E9800D36843F48033D3608BE7002104F120003A
:101EA800FFF798FE064684E701273E468CE737464B
:101EB8008AE74FF000089DE7FEF786FE0546074BC8
:101EC800D3F8903013F0020FC9D1FEF77DFE401B06
:101ED80041F288339842F2D90326C0E70010024045
:101EE800007000403746B8F1000F40F000812368C9
:101EF80013F0010F08D09D4AD2F8883023F003036D
:101F0800A16B0B43C2F88830236813F0020F08D086
:101F1800964AD2F8883023F00C03E16B0B43C2F8E1
:101F28008830236813F0040F08D0904AD2F888301C
:101F380023F03003216C0B43C2F88830236813F078
:101F4800080F08D0894AD2F8883023F0C003616CA2
:101F58000B43C2F88830236813F0100F08D0834A67
:101F6800D2F8883023F44073A16C0B43C2F8883050
:101F7800236813F0200F08D07C4AD2F8883023F465
:101F88004063E16C0B43C2F88830236813F4007F88
:101F980008D0764AD2F8883023F44023E16D0B4309
:101FA800C2F88830236813F4806F08D06F4AD2F8DB
:101FB800883023F44013216E0B43C2F8883023681D
:101FC80013F0400F08D0694AD2F8883023F4405300
:101FD800216D0B43C2F88830236813F0800F08D0B6
:101FE800624AD2F8883023F44043616D0B43C2F84B
:101FF8008830236813F4807F08D05C4AD2F8883090
:1020080023F44033A16D0B43C2F88830236813F4DE
:10201800005F0FD0554AD2F8883023F04063E16E54
:102028000B43C2F88830E36EB3F1006F65D0B3F1AB
:10203800806F67D0236813F4002F0FD04B4AD2F873
:10204800883023F04063216F0B43C2F88830236F38
:10205800B3F1006F5ED0B3F1806F60D0236813F4E2
:10206800802F0FD0414AD2F8883023F04063616F47
:102078000B43C2F88830636FB3F1006F57D0B3F1E8
:10208800806F59D0236813F4804F0FD0374AD2F8A5
:10209800883023F04053A16F0B43C2F88830A36FF8
:1020A800B3F1805F50D0B3F1005F55D0236813F4CB
:1020B800004F08D02D4AD2F8883023F08043E16FD2
:1020C8000B43C2F88830236813F4803F09D0274AAD
:1020D800D2F8883023F00043D4F880100B43C2F8BC
:1020E8008830384602B0BDE8F0813746FBE61F4A23
:1020F800936D23F080539365F9E6D36843F4801316
:10210800D36097E70121201DFFF7ACFC002891D090
:1021180007468FE7D36843F48013D3609EE7012115
:10212800201DFFF79FFC002898D0074696E7D36844
:1021380043F48013D360A5E70121201DFFF792FC2B
:1021480000289FD007469DE70221201DFFF78AFC43
:102158000028ABD00746A9E7022104F12000FFF7C9
:1021680039FD0028A2D00746A0E700BF00100240B2
:1021780008B5B0F5003F38D0BB4BDB6803F003036C
:10218800022B74D0032B79D0012B58D00021B0F545
:10219800007F00F0E38200F2CA80102800F0098274
:1021A80000F28A80022800F09E8174D9042800F089
:1021B800C881082840F01881AB4BD3F8883003F069
:1021C800C003402B00F0EA8140F2E281802B00F04E
:1021D800E881C02B40F03483A34BD3F8903013F040
:1021E800020F40F0318300200EE09F4BD3F890306F
:1021F80003F44073B3F5007F10D0B3F5407F16D0D9
:10220800B3F5807F01D0002008BD974BD3F89030FC
:1022180013F0020F40F0ED820020F5E7924BD3F85F
:10222800943013F0020F40F0E7820020ECE78E4B69
:102238001B6813F4003F40F0E2820020E4E78A4B79
:102248001B6813F0020F20D0874B1B6813F0080F90
:1022580007D0854B1B68C3F30313844A52F8231035
:1022680095E7814BD3F89430C3F30323F5E77E4B0E
:102278001B6813F4806F0AD07D4988E77A4B1B6886
:1022880013F4003F05D07B4981E700217FE7002157
:102298007DE700217BE7012840F0A680724BD3F848
:1022A800883003F00303032B00F2B582DFE813F054
:1022B800040107010A011201402800F0078218D919
:1022C800802800F01F82B0F5807F40F08D80664B3B
:1022D800D3F8883003F44033B3F5803F00F03182FF
:1022E800B3F5003F00F03082002B00F02782002079
:1022F8008AE7202878D15C4BD3F8883003F4406310
:10230800B3F5806F00F0858140F27D81B3F5006FF1
:1023180000F08281B3F5406F40F0A082524BD3F8B1
:10232800903013F0020F40F09D8200206CE7B0F56A
:10233800804F00F079813DD8B0F5006F56D007D9AD
:10234800B0F5805F23D14FF48050FFF707FB5BE7C0
:10235800B0F5806F48D1444BD3F8883003F440136C
:10236800B3F5801F00F02C8240F22582B3F5001FE0
:1023780000F02E82B3F5401F40F08B823A4BD3F821
:10238800903013F0020F40F08B8200203CE7B0F54C
:10239800005F29D1344BD3F8883003F04063B3F1A0
:1023A800006F41D0B3F1406F25D0B3F1806F63D097
:1023B800002029E7B0F5803F00F07D810ED8B0F508
:1023C800004F11D1284BD3F8883013F0804300F028
:1023D8000682002B40F00682002015E7B0F5802F1A
:1023E800D8D0B0F5002FD5D000200DE74FF400600D
:1023F800FFF7B4FA08E71C4B1B6813F0020F00F054
:102408000082194B1B6813F0080F07D0164B1B6886
:10241800C3F30313154A52F82300F5E6124BD3F819
:102428009430C3F30323F5E70F4B1B6813F0007FC9
:1024380000F0E9810C4BDB6813F4801F00F0E581A4
:10244800094AD068C0F3062000FB01F0D368C3F343
:1024580002130133B0FBF3F0D368C3F341530133E4
:102468005B00B0FBF3F0CFE600100240284C0008F8
:102478000024F40000127A00B74B1B6813F0006FB9
:1024880000F0C581B44B1B6913F4801F00F0C181B3
:10249800B14A1069C0F3062000FB01F0D368C3F30A
:1024A80002130133B0FBF3F01369C3F34153013353
:1024B8005B00B0FBF3F0A7E6FFF73EFAA4E6FEF7F1
:1024C8002FFEA1E6A44B1B6813F4806F40F0A58192
:1024D800002099E6A04BD3F8903013F0020F40F09B
:1024E8009E81002090E69C4BD3F8883003F00C03C3
:1024F8000C2B00F29781DFE813F00D009501950190
:10250800950110009501950195011300950195011C
:1025180095011B00FFF7FEF976E6FEF701FE73E66C
:102528008D4B1B6813F4806F40F07E8100206BE6B2
:10253800894BD3F8903013F0020F40F077810020D8
:1025480062E6854BD3F8883003F03003102B14D0A3
:102558000DD9202B14D0302B40F06B817E4BD3F853
:10256800903013F0020F40F0688100204CE6002BF9
:1025780040F05F81FFF7CEF946E6FEF7D1FD43E66E
:10258800754B1B6813F4806F40F0558100203BE6C3
:10259800002B40F05581FFF7BDF935E6FEF7C0FD89
:1025A80032E66D4B1B6813F4806F40F04B810020BE
:1025B8002AE6694BD3F8883003F44073B3F5807F7B
:1025C80016D00FD9B3F5007F15D0B3F5407F40F092
:1025D8003E81614BD3F8903013F0020F40F03B81FD
:1025E800002011E6002B40F03281FFF793F90BE64B
:1025F800FEF796FD08E6584B1B6813F4806F40F011
:102608002881002000E6002B40F02881FFF782F99E
:10261800FAE5FEF785FDF7E54F4B1B6813F4806F6D
:1026280040F01E810020EFE54B4BD3F8883003F0D3
:102638004053B3F1005F24D0B3F1405F04D0B3F14D
:10264800805F04D00020DFE5FEF76AFDDCE5424B41
:102658001B6913F0807F00F008813F4A1069C0F3BE
:10266800062000FB01F0D368C3F302130133B0FB6B
:10267800F3F01369C3F3416301335B00B0FBF3F07C
:10268800C2E5354B5B6913F0807F00F0F080324A79
:102698005069C0F3062000FB01F0D368C3F30213AE
:1026A8000133B0FBF3F05369C3F3416301335B00BB
:1026B800B0FBF3F0A8E5284BD3F88830002B02DBF9
:1026C800FFF73AF9A0E5FEF72BFD9DE5224BD3F87D
:1026D800883003F44053B3F5805F08D0B3F5005F4A
:1026E80008D00BB100208FE5FFF714F98CE5FEF751
:1026F80017FD89E5184B1B6813F4806F40F0B9800B
:10270800002081E5144BD3F8883003F44043B3F537
:10271800804F08D0B3F5004F08D00BB1002073E507
:10272800FFF7F8F870E5FEF7FBFC6DE50A4B1B6850
:1027380013F4806F40F09F80002065E5FFF7EAF80A
:1027480062E5FEF7EDFC5FE5034B1B6813F4806F51
:1027580040F09380002057E500100240534BD3F817
:10276800883003F44023B3F5802F15D00FD9B3F583
:10277800002F19D0B3F5402F40F081804B4BD3F890
:10278800903013F0020F40F0818000203CE5002BD0
:1027980075D1FFF7BFF837E5444BD3F8943013F001
:1027A800020F6ED100202FE5404B1B6813F4806F99
:1027B8006AD1002028E5002B6BD1FFF7ABF823E5A1
:1027C8003A4BD3F8943013F0020F64D100201BE584
:1027D800364B1B6813F4806F60D1002014E5FFF7B7
:1027E80099F811E5314B1B6813F4806F5BD1002019
:1027F8000AE54FF4004007E54FF4FA4004E52C4899
:1028080002E5002000E50020FEE40020FCE40020B2
:10281800FAE40020F8E40020F6E42648F4E44FF453
:102828000040F1E40020EFE42248EDE44FF40040DA
:10283800EAE40020E8E41F48E6E44FF40040E3E45B
:102848000020E1E41B48DFE44FF40040DCE4002012
:10285800DAE41848D8E44FF40040D5E40020D3E483
:102868001448D1E44FF40040CEE40020CCE400202A
:10287800CAE41048C8E40F48C6E40E48C4E400207F
:10288800C2E44FF4FA40BFE40A48BDE44FF4004004
:10289800BAE40020B8E44FF4FA40B5E40548B3E4DC
:1028A8004FF40040B0E40348AEE400BF001002401B
:1028B80090D003000024F4000E4B1B680E4AA2FBC4
:1028C80003231B0B9B0001680A6822F480320A600C
:1028D8003BB1013B0268126812F4803FF8D1002036
:1028E8007047D0F8803043F04003C0F880300320B0
:1028F800704700BF080000201BECCB95F8B50028F6
:1029080000F0D680044690F87D300BB32046FFF7E0
:10291800D3FF0546002840F0CD80022384F87D309F
:10292800E368012B1BD0022B17D00022A368022BCF
:1029380017D0032B18D0012B1BD0002623685E4923
:102948008B4219D020318B4216D05C4B1A6015E0AF
:1029580080F87C3001F0D8FCD8E72022E6E7102286
:10296800E4E74FF40066E9E742F001024FF400663D
:10297800E4E74FF48066E1E7514B1A60E3691BB363
:1029880023684D4A934207D02032934204D04FF433
:102998008050FFF7EDFB03E04FF40060FFF7E8FB22
:1029A80000EB80004100E3695B02B1FBF3F1454BAA
:1029B800A3FB0123DB08236203EB830042008A1A8E
:1029C800082A01D901332362636833B1022B04D08A
:1029D800E36B012B69D0002704E0E36B012B62D085
:1029E8004FF4007721680B68374A1A400A6021685B
:1029F8000A686368206B0343606B0343A06B03435F
:102A08003B433343606A03432069034360690343DC
:102A1800206A43EA005313430B602268536823F487
:102A2800604323F00F03536021684A68A369A06AD2
:102A38000343E06A034313434B6022689168234BC6
:102A48000B40936020688268236C013B216D0B4327
:102A5800A16C0B43E16C0B43616C013943EA012320
:102A6800134383602268D36823F47D6323F00F0344
:102A78001B041B0CD3602068C268636DA16D0B43F7
:102A8800216E43EA0143E16D013943EA012313430F
:102A9800C3600023C4F88030012284F87D2084F8C4
:102AA8007C302846F8BD00279CE74FF4007799E76B
:102AB8000125F6E70125F4E70454014000580140D8
:102AC80000540140CDCCCCCC10C005FF0080F8FFED
:102AD800F8B505460F4616461C462B689B6837EA2C
:102AE80003030CBF01230023B34237D0B4F1FF3FE7
:102AF800F3D0FEF769F8069BC01AA04201D2002C59
:102B0800EBD12A68536823F0E00353606B68B3F590
:102B1800827F0BD0AB6AB3F5005F14D0012385F830
:102B28005D30002385F85C30032018E0AB68B3F50E
:102B3800004F02D0B3F5806FECD12A68136823F0F8
:102B480040031360E6E72A68136823F40053136010
:102B58002A68136843F400531360DFE70020F8BDC8
:102B6800F8B507460C4615461E4602E0B6F1FF3F8B
:102B78000BD13A6893682340AB423BD0B4F5C06FA1
:102B8800F4D1002DF2D1137BF0E7FEF71DF8069B78
:102B9800C01AB04201D2002EEBD13A68536823F034
:102BA800E00353607B68B3F5827F0BD0BB6AB3F553
:102BB800005F14D0012387F85D30002387F85C306C
:102BC800032018E0BB68B3F5004F02D0B3F5806F5F
:102BD800ECD13A68136823F040031360E6E73A68DB
:102BE800136823F4005313603A68136843F40053DE
:102BF8001360DFE70020F8BD70B582B004460D46CB
:102C0800164600920B4600224FF4C051FFF7A8FF6A
:102C1800B8B900962B46002280212046FFF758FFBE
:102C2800B8B900962B4600224FF4C0612046FFF742
:102C380097FF034650B1236E43F020032366032316
:102C480004E0236E43F0200323660323184602B0F2
:102C580070BD236E43F0200323660323F6E770B5A7
:102C680082B004460D4616464368B3F5827F0FD0FE
:102C780000962B46002280212046FFF729FF0346B5
:102C880098B96268B2F5827F15D0184602B070BD57
:102C98008368B3F5004F02D0B3F5806FE8D122689E
:102CA800136823F040031360E2E7236E43F0200328
:102CB80023660323E9E7A268B2F5004F02D0B2F514
:102CC800806FE2D100962B4600224FF4C061204667
:102CD800FFF746FF03460028D7D0236E43F02003B2
:102CE80023660323D1E7002853D010B504460023F8
:102CF800836290F85D30002B40D0022384F85D3069
:102D08002268136823F040031360E368B3F5E06FAB
:102D180039D90022B3F5706F04D0B3F5E06F01D054
:102D28000021A162216B21B9B3F5E06F2ED90223EE
:102D380023636368A1680B4321690B4361690B43F3
:102D4800A16901F400710B43E1690B43216A0B434C
:102D5800A06A216803430B60638B03F00403616A74
:102D68000B43616B0B43E1680B43216813434B60D2
:102D780000202066012384F85D3010BD80F85C30A7
:102D880001F078FAB9E74FF48052C3E701232363CF
:102D9800CFE7012070472DE9F04182B090F85C4000
:102DA800012C00F0E4801E4615468846044601239F
:102DB80080F85C30FDF708FF074694F85D20D2B232
:102DC800012A09D00220012384F85D30002384F809
:102DD8005C3002B0BDE8F081B8F1000F00F0B980B6
:102DE800002D00F0B880032384F85D3000232366AB
:102DF800C4F83880A587E5872364A4F84430A4F88C
:102E080046302365E364A368B3F5004F1CD02368FC
:102E18001A6812F0400F03D11A6842F040021A6093
:102E2800E368B3F5E06F33D963680BB1012D1BD1AB
:102E3800A26B23681288DA60A36B0233A363E38F63
:102E4800013B9BB2E3870FE02268136843F4804399
:102E58001360DCE7FDF7B8FEC01BB04202D3B6F141
:102E6800FF3F7AD1002E7AD0E38F9BB2002B5BD044
:102E780023689A6812F0020FECD0A26B1288DA600D
:102E8800A36B0233A363E38F013B9BB2E387EBE7BA
:102E980063680BB1012D30D1E38F9BB2012B0BD9A5
:102EA800A26B23681288DA60A36B0233A363E38FF3
:102EB800023B9BB2E38720E0A26B236812781A7367
:102EC800A36B0133A363E38F013B9BB2E38714E059
:102ED800A36B1B781373A36B0133A363E38F013BCD
:102EE8009BB2E38709E0FDF76FFEC01BB04202D337
:102EF800B6F1FF3F35D1002E35D0E38F9BB29BB1A1
:102F08002268936813F0020FEDD0E38F9BB2012B78
:102F1800DED9A36B1B88D360A36B0233A363E38F53
:102F2800023B9BB2E387E8E73A4631462046FFF783
:102F380063FE08B120232366A36833B9019323688D
:102F4800DA6801929B680193019B236E6BB900209C
:102F580039E7012037E7012035E7032033E703206D
:102F680031E703202FE703202DE701202BE702207C
:102F78002FE72DE9F843DDF8208090F85C40012C1C
:102F880000F05C811D4617460E460446012380F872
:102F98005C30FDF719FE814694F85D00C0B26368A5
:102FA800012814D0B3F5827F09D00223012284F8C6
:102FB8005D20002284F85C201846BDE8F883A368E9
:102FC800002B40F02D81042801D00223EEE7002ECB
:102FD80000F02881002F00F02781002D00F02681C5
:102FE80094F85D30DBB2042B02D0052384F85D3001
:102FF800002323662764A4F84650A4F84450A66327
:10300800E587A587E3642365E368B3F5E06F01D836
:10301800012D22D92268536823F480535360236812
:103028001A6812F0400F03D11A6842F040021A6081
:10303800E368B3F5E06F56D963680BB1012D0AD187
:10304800A26B23681288DA60A36B0233A363E38F51
:10305800013B9BB2E387012525E02268536843F4CE
:1030680080535360DBE723689A6812F0010F10D091
:10307800B4F8462092B262B1DA68236C1A80236CE5
:1030880002332364B4F84630013B9BB2A4F84630BF
:103098000125FDF799FDA0EB0900404503D3B8F1E0
:1030A800FF3F40F0C580E38F9BB22BB9B4F84630A0
:1030B8009BB2002B00F0A78023689A6812F0020FD9
:1030C800D1D0E28F92B2002ACDD0002DCBD0A26B06
:1030D8001288DA60A36B0233A363E38F013B9BB2D0
:1030E800E3870025BFE763680BB1012D0ED1E38F9D
:1030F8009BB2012B0CD9A26B23681288DA60A36BF0
:103108000233A363E38F023B9BB2E387012547E0C9
:10311800A26B236812781A73A36B0133A363E38F3E
:10312800013B9BB2E387F1E7E28F92B2012A0BD908
:10313800A26B1288DA60A36B0233A363E38F023BAE
:103148009BB2E38700253CE0A26B12781A73A36B4D
:103158000133A363E38F013B9BB2E387002530E093
:103168002268536843F48053536001250CE0226CB5
:103178001B7B1370236C01332364B4F84630013B86
:103188009BB2A4F846300125FDF71EFDA0EB09000F
:10319800404502D3B8F1FF3F4CD1B8F1000F4BD0F6
:1031A800E38F9BB21BB9B4F846309BB25BB323687C
:1031B8009A6812F0020F04D0E28F92B20AB1002D81
:1031C800B2D123689A6812F0010FDDD0B4F8462016
:1031D80092B2002AD8D0B4F8462092B2012AC6D9B1
:1031E800DA68236C1A80236C02332364B4F84630FF
:1031F800023B9BB2A4F84630B4F846309BB2012B90
:10320800AED90125C0E74A4641462046FFF7F4FCFF
:10321800034600283FF4CAAE202323660123C5E6EF
:103228000223C3E60123C1E60123BFE60123BDE66D
:103238000323BBE60323B9E60323B7E60223BBE671
:103248002DE9F04182B004460F4690461D4643687A
:10325800B3F5827F19D094F85C30012B00F0B88068
:10326800012384F85C30FDF7AFFC064694F85D3026
:10327800DBB2012B15D00220012384F85D30002336
:1032880084F85C3002B0BDE8F0818368002BE2D19D
:10329800042380F85D30009513460A46FFF769FE5F
:1032A800F0E7002F00F08680B8F1000F00F084806E
:1032B800042384F85D30002323662764A4F844803F
:1032C800A4F84680A363A387E387E3642365E368E0
:1032D800B3F5E06F16D92268536823F4805353601E
:1032E800A368B3F5004F13D023681A6812F0400F93
:1032F80003D11A6842F040021A60E368B3F5E06F40
:1033080016D935E02268536843F480535360E7E7E1
:103318002268136823F480431360E5E7FDF754FC43
:10332800801BA84202D3B5F1FF3F47D1002D47D0FB
:10333800B4F846309BB2002B30D023689A6812F05C
:10334800010FEBD0226C1B7B1370236C01332364B9
:10335800B4F84630013B9BB2A4F84630E8E7FDF7E5
:1033680033FC801BA84202D3B5F1FF3F2AD15DB3DD
:10337800B4F846309BB28BB123689A6812F0010FFB
:10338800EDD0DA68236C1A80236C02332364B4F816
:103398004630013B9BB2A4F84630E9E7324629465D
:1033A8002046FFF75CFC08B120232366236E6BB927
:1033B800002061E701205FE701205DE703205BE76C
:1033C800032059E7032057E7032055E7012053E777
:1033D800022057E710B4036A046A24F00104046267
:1033E800846924F0F00444EA021223F00A030B4330
:1033F800826103625DF8044B704710B4036A23F0DE
:10340800100303628469036A24F4704444EA0232B4
:1034180023F0A00343EA0113826103625DF8044BC1
:103428007047836823F07003194341F007018160F6
:1034380070470000022380F83D3002689168084B0D
:103448000B40062B06D0B3F5803F03D0136843F03A
:1034580001031360012380F83D300020704700BF4E
:10346800070001000368304A904212D0B0F1804F43
:103478000FD0A2F5943290420BD002F580629042B0
:1034880007D002F58062904203D002F59432904250
:1034980003D123F070034A681343234A90421ED095
:1034A800B0F1804F1BD0A2F59432904217D002F5AC
:1034B8008062904213D002F5806290420FD002F5EC
:1034C800943290420BD002F54062904207D002F548
:1034D8008062904203D002F58062904203D123F4C7
:1034E8004073CA68134323F080034A691343036097
:1034F8008B68C3620B6883620B4B98420FD003F54D
:10350800006398420BD003F54063984207D003F557
:103518008063984203D003F58063984201D10B6918
:103528000363012343617047002C0140A8B110B523
:10353800044690F83D305BB1022384F83D30211DEC
:103548002068FFF78FFF012384F83D30002010BD6D
:1035580080F83C3000F0C2FEEEE70120704710B45E
:10356800846824F47F4442EA03230B4323438360A3
:103578005DF8044B7047000090F83C30012B64D094
:1035880010B50446012380F83C30022380F83D3012
:10359800026890682E4B034093600B68402B4AD01A
:1035A80013D9602B3DD01ED9702B28D0B3F5005FFE
:1035B80030D1CB684A6889682068FFF7D0FF226855
:1035C800936843F48043936024E0102B06D004D919
:1035D800202B03D0302B01D01CE0DBB91946206822
:1035E800FFF71FFF16E0502B14D1CA6849682068FE
:1035F800FFF7F0FE50212068FFF713FF0AE0CB68C1
:103608004A6889682068FFF7AAFF2268936843F030
:1036180077039360012384F83D30002084F83C0050
:1036280010BDCA6849682068FFF7E7FE6021206876
:10363800FFF7F7FEEEE7CA6849682068FFF7CAFE99
:1036480040212068FFF7EDFEE4E70220704700BF45
:103658008800FEFF90F83C30012B28D030B40123BD
:1036680080F83C30022380F83D3002685368956842
:10367800104CA24203D004F50064A24203D123F403
:1036880070034C68234323F070030C68234325F030
:10369800800489682143536003689960012380F896
:1036A8003D30002380F83C30184630BC704702207B
:1036B800704700BF002C0140F0B583B007460122D7
:1036C80080214A48FDF78EFC494C012211462046CC
:1036D800FDF788FC012211464648FDF783FC672365
:1036E8008DF8053002AE202306F8043D00220121A2
:1036F8002046FDF777FC404D32230122314628460B
:10370800FFF749FB322301220DF105012846FFF797
:1037180042FB012211462046FDF764FC64238DF824
:10372800053021238DF80430002201212046FDF7C1
:1037380059FC3223012231462846FFF72CFB32235D
:1037480001220DF105012846FFF725FB012211464C
:103758002046FDF747FC3FB1012F43D0022F06D189
:10376800F3238DF8053002E0C3238DF8053002AE4F
:10377800232306F8043D1E4C002201212046FDF7B4
:1037880031FC1D4D3223012231462846FFF703FB49
:10379800322301220DF105012846FFF7FCFA012228
:1037A80011462046FDF71EFC002201212046FDF7A8
:1037B80019FC02A98F2301F8013D32230122284672
:1037C800FFF7E9FA322301220DF106012846FFF737
:1037D80037FD012211462046FDF704FC9DF806003E
:1037E80003B0F0BDE3238DF80530C0E7000C0048B6
:1037F8000010004800080048F8000020F0B585B027
:103808000546534F002280213846FDF7EBFB04AEF6
:10381800A82306F8093D4F4C3223012231462046A1
:10382800FFF7B9FA3223012202A92046FFF708FD63
:10383800A9238DF807303223012231462046FFF7AD
:10384800AAFA322301220DF109012046FFF7F8FCFC
:10385800AA238DF807303223012231462046FFF78C
:103868009AFA322301220DF10A012046FFF7E8FCFB
:10387800AB238DF807303223012231462046FFF76B
:103888008AFA322301220DF10B012046FFF7D8FCFA
:10389800AC238DF807303223012231462046FFF74A
:1038A8007AFA3223012203A92046FFF7C9FCAD2387
:1038B8008DF807303223012231462046FFF76BFA94
:1038C800322301220DF10D012046FFF7B9FC012238
:1038D80080213846FDF786FB9DF809209DF80830C1
:1038E80003EB02231BB206EE903A9DF80B209DF8DD
:1038F8000A3003EB02231BB207EE103A9DF80D20A5
:103908009DF80C3003EB02231BB207EE903AF8EE59
:10391800E66A9FED116A66EE866AFDEEE66A16EEC5
:10392800903A2B80B8EEC77A27EE067ABDEEC77AB2
:1039380017EE103A6B80F8EEE77A67EE867AFDEEBE
:10394800E77A17EE903AAB80002005B0F0BD00BFD3
:10395800000C0048F800002040DA7F39F0B583B049
:1039680007465A4C012280212046FDF73BFB0122E5
:1039780011465748FDF736FB012211465548FDF719
:1039880031FBFF238DF8053002AD202305F8043DF7
:10399800002280212046FDF725FB4F4E32230122CD
:1039A80029463046FFF7F7F9322301220DF10501C8
:1039B8003046FFF7F0F9012280212046FDF712FB7F
:1039C8003FB1012F7DD0022F06D121238DF805307C
:1039D80002E001238DF8053002AF232307F8043DE8
:1039E8003A4D002280212846FDF7FCFA3A4E322350
:1039F800012239463046FFF7CEF9322301220DF174
:103A080005013046FFF7C7F9012280212846FDF756
:103A1800E9FA01248DF8054021238DF804300022AD
:103A280080212846FDF7DEFA322322463946304601
:103A3800FFF7B1F9322322460DF105013046FFF7B1
:103A4800AAF9224680212846FDF7CCFA10238DF8E2
:103A5800053024238DF80430002280212846FDF704
:103A6800C1FA3223224639463046FFF794F9322309
:103A780022460DF105013046FFF78DF922468021D7
:103A88002846FDF7AFFA002280212846FDF7AAFA5A
:103A980002A9CF2301F8013D322322463046FFF721
:103AA8007AF9322322460DF106013046FFF7C8FBAA
:103AB800224680212846FDF795FA9DF8060003B0B6
:103AC800F0BD11238DF8053086E700BF000C0048D3
:103AD8000010004800080048F800002070B584B0C5
:103AE80004462B4D002280212846FDF77BFA04A9C5
:103AF800E82301F8093D274E322301223046FFF71B
:103B08004AF93223062202A93046FFF799FB01221F
:103B180080212846FDF766FA9DF809209DF80830AF
:103B280003EB02231BB206EE903A9DF80B209DF89A
:103B38000A3003EB02231BB207EE103A9DF80D2062
:103B48009DF80C3003EB02231BB207EE903AF8EE17
:103B5800E66A9FED116A66EE866AFDEEE66A16EE83
:103B6800903A2380B8EEC77A27EE067ABDEEC77A78
:103B780017EE103A6380F8EEE77A67EE867AFDEE84
:103B8800E77A17EE903AA380002004B070BD00BF1A
:103B9800000C0048F8000020295C8F3D08B50F484C
:103BA8000F4B03604FF4827343604FF4004383600C
:103BB8004FF4E063C3600023036143614FF4007274
:103BC80082613822C2610362436283620722C26251
:103BD800036308234363FFF786F808BDF800002055
:103BE800003800402DE9F0478AB000240594069477
:103BF8000794089409943D4BDA6C42F01002DA6499
:103C0800DA6C02F010020092009ADA6C42F00402B8
:103C1800DA64DA6C02F004020192019ADA6C42F07A
:103C28000102DA64DA6C02F001020292029ADA6C9A
:103C380042F00802DA64DA6C02F008020392039A8E
:103C4800DA6C42F00202DA64DB6C03F002030493DC
:103C5800049B274E224609213046FDF7C3F9DFF8B9
:103C680098A0224601215046FDF7BCF9DFF88C9058
:103C7800224680214846FDF7B5F91E4F2246082105
:103C88003846FDF7AFF94FF00808CDF81480012544
:103C9800069507940223089305A93046FDF7B8F85E
:103CA800059506950794089405A95046FDF7B0F8C0
:103CB80080230593069507940323089305A948468E
:103CC800FDF7A6F8CDF8148006950794089405A981
:103CD8003846FDF79DF8059506950794089405A9BB
:103CE8003046FDF795F80AB0BDE8F08700100240AD
:103CF800001000480004004800080048000C004874
:103D080008B51148114B0360002303634360402248
:103D180042638363C36383600361436183610C4AC5
:103D2800C261C36043628362C362082202640122E3
:103D380042648364C364036543658365C26503663F
:103D4800FEF7DCFD08BD00BF24020020045401403A
:103D580000EE020010B58AB02422002101A800F06C
:103D680049FF094C094B23602046FCF7A3FF0022BA
:103D780001920292039201230493059201A920461D
:103D8800FCF7AAFF0AB010BD7001002000740040C3
:103D980030B589B0002404940594069407940194DE
:103DA800029403940F4D104B2B6040F23F636B60FD
:103DB800AC6042F20F73EB602C616C61AC61284619
:103DC800FFF7B4FB4FF48053049304A92846FFF788
:103DD800D3FB01940294039401A92846FFF73AFC07
:103DE80009B030BDC8010020002C014070B5B8B042
:103DF8004022002128A800F0FDFE002422942394EC
:103E080024942594269488222146684600F0F2FEE0
:103E1800122327934FF480732A9310262B9601259B
:103E28002D9560232F9327A8FDF7D4F90F2322930C
:103E38002395249425942694214622A8FDF7B8FCBE
:103E48004FF4006300931994019502950396072394
:103E580004930223059306934FF48033079368462F
:103E6800FDF75EFF4FF40070FDF7CAF838B070BD7B
:103E78002DE9804883B0FCF785FEFFF7B7FFFFF711
:103E8800B1FEFFF73DFFFFF789FEFFF763FFFFF77E
:103E98007FFF0B48FFF7CEFA0A48FEF724FF012000
:103EA800FFF75CFD084B18600220FFF705FC074B85
:103EB8001860074B00221A60064B01221A603AE08C
:103EC800C8010020F800002090010020C002002056
:103ED80094000020B0010020AD4C2046FFF7FEFD05
:103EE800AC4DB4F90000FCF7BDFA02460B46D5E923
:103EF8000001FCF76BF9C5E90001A74DB4F9020010
:103F0800FCF7B0FA02460B46D5E90001FCF75EF96A
:103F1800C5E90001A14DB4F90400FCF7A3FA024673
:103F28000B46D5E90001FCF751F9C5E900019C4AA7
:103F38001368013313609A4B1B68B3F5FA6FCBDD36
:103F4800944C0022974BD4E90001FCF71FFCC4E90C
:103F58000001914C0022934BD4E90001FCF716FCB8
:103F6800C4E900018D4C00228E4BD4E90001FCF716
:103F78000DFCC4E900018C4B00225A620022002388
:103F88008A49C1E900238A49C1E900238949C1E96D
:103F980000237F4C2046FFF7A1FD874E3046FFF7F0
:103FA8002DFC814D686AFCF74DFA71A3D3E9002313
:103FB800FCF7ECFBDFF81CA2CAE9000100236B62E6
:103FC800B4F90000FCF74EFA724BD3E90023FCF772
:103FD800FBF87A4FC7E90001B4F90200FCF742FA8E
:103FE8006D4BD3E90023FCF7EFF8754DC5E90001E7
:103FF800B4F90400FCF736FA684BD3E90023FCF760
:10400800E3F8704CC4E90001B6F90000FCF72AFA9D
:10401800DFF8C491C9E90001B6F90200FCF722FAF9
:1040280041EC180BDFF8B481C8E90001B6F90400C7
:10403800FCF718FADFF8A8B1CBE9000141EC110B45
:10404800B0EE480AF0EE680A00F0E8F900225E4B8C
:1040580051EC100BFCF770FA47A3D3E90023FCF7E7
:1040680095FBFCF719FD594E306099ED008BD8E9A6
:10407800000102460B46FCF75FFA80468946DBE9F9
:10408800000102460B46FCF757FA02460B4640462B
:104098004946FCF79BF841EC100B00F0C1F9B0EE73
:1040A800401AF0EE601AB0EE480AF0EE680A00F026
:1040B800B5F90022444B51EC100BFCF73DFA2EA346
:1040C800D3E90023FCF762FBFCF7E6FC8346404B90
:1040D8001860DAE90089D7E9002340464946FCF729
:1040E8002BFA324FD7E90023FCF770F824A3D3E961
:1040F8000023FCF721FACDE900013068FCF7C4F988
:1041080021A3D3E90023FCF717FA02460B46DDE9A1
:104118000001FCF75BF8C7E90001D5E90023404638
:104128004946FCF709FA224DD5E90023FCF74EF879
:1041380013A3D3E90023FCF7FFF906460F465846B8
:10414800FCF7A2F910A3D3E90023FCF7F5F902461E
:104158000B4630463946FCF739F8C5E90001D4E981
:104168000001144BC3E9000113E700BFAFF300805F
:10417800000000000088C340182D4454FB2109406A
:10418800AE47E17A14AEEF3F7B14AE47E17A843F45
:10419800D4020020C0010020B80100201002002035
:1041A800B001002000409F40002C0140B0020020D8
:1041B800A8020020180200205C01002088010020CD
:1041C800C8020020A801002000806640C402002028
:1041D80020020020B802002068010020F000002022
:1041E8000802002082B00A4B1A6E42F001021A66D9
:1041F8001A6E02F001020092009A9A6D42F0805203
:104208009A659B6D03F080530193019B02B0704740
:104218000010024000B589B000230393049305936E
:10422800069307930268124B9A4202D009B05DF8D0
:1042380004FB03F5CE339A6D42F000529A659A6DED
:1042480002F000520192019ADA6C42F00102DA643B
:10425800DB6C03F001030293029B102303930323F7
:10426800049303A94FF09040FCF7D2FDDEE700BFAE
:104278000074004000B589B00023039304930593AC
:10428800069307930268134B9A4202D009B05DF86F
:1042980004FB03F5EC339A6D42F480429A659A6DFB
:1042A80002F480420192019ADA6C42F00802DA6460
:1042B800DB6C03F008030293029B1223039302238F
:1042C8000493032306930523079303A90248FCF7E5
:1042D8009FFDDBE700380040000C00480268094BEE
:1042E8009A4200D0704782B003F564431A6E42F4D4
:1042F80000621A661B6E03F400630193019B02B00F
:10430800704700BF002C01400268134B9A4200D04E
:10431800704700B587B0114B1B684BB9104A116E36
:1043280041F400111166126E02F400120092009A14
:1043380001330A4A13607423019302230293002372
:104348000393032304930D23059301A90548FCF760
:104358005FFD07B05DF804FB04540140E80000204D
:1043680000100240001000487047FEE7FEE7FEE735
:10437800FEE770477047704708B5FCF719FC08BDA1
:104388000F49D1F8883043F47003C1F888300D4BD9
:104398001A6842F001021A60002098601A6822F038
:1043A800A85222F410221A604FF48052DA601A6878
:1043B80022F480221A6098614FF000638B60704786
:1043C80000ED00E000100240DFF834D0002103E0E7
:1043D8000C4B5B58435004310B480C4B42189A4223
:1043E800F6D30B4A02E0002342F8043B094B9A42F9
:1043F800F9D3FFF7C5FF00F0D9FBFFF739FDFEE75A
:1044080000800120C84C000800000020780000202F
:1044180078000020DC020020FEE7000000F05CB815
:104428002DE9F0432DED028B8BB055EC104B00F0CD
:1044380035F9274BB0EE408AF0EE608A93F90060B8
:10444800731C12D022462B4620462946FCF70EFB49
:10445800074650B94FF000084FF00009204629469A
:1044680042464B46FCF7DAFA40B9B0EE480AF0EE9D
:10447800680A0BB0BDEC028BBDE8F0830122154B36
:1044880008970092CDE90445CDE90245019396B11C
:1044980042464B4640464946FCF778F9022ECDE99C
:1044A80006010AD100F07CFB21230360089B53B965
:1044B8009DED068BD9E7CDE90689684600F06EFBCD
:1044C8000028F3D1EEE700F06BFB089B0360EFE7F1
:1044D8000C000020704C000851EC110B43422DE9F0
:1044E800F047034321F0004E6B4F4EEAD373BB42B3
:1044F80055EC104B1ED86342234325F0004A4AEA84
:10450800D373BB42A94615D801F1404303F5801384
:1045180003433DD08E1706F002065AEA040346EA22
:10452800D5760FD1022E52D0032E3CD148A1D1E925
:10453800000103E022462B46FBF748FE41EC100B36
:10454800BDE8F0875EEA000326D0BE452FD0BA4505
:1045580022D0AAEB0E0E4FEA2E5EBEF13C0F3ADCDB
:1045680000293CDA1EF13C0F39DA00200021012E27
:1045780051D0022E42D0002EE0D037A3D3E9002339
:10458800FBF722FE36A3D3E90023FBF71DFED5E790
:10459800BDE8F04700F04CB9B9F1000F13DB32A1C8
:1045A800D1E90001CAE710EE100A2946C6E7F2452C
:1045B80035D0022E0BD0032EB8D0012E4FF00000BC
:1045C80037D00021BAE72AA1D1E90001B6E724A132
:1045D800D1E90001B2E724A1D1E90001C7E7024609
:1045E8000B4620462946FCF7D1F841EC100B00F0A9
:1045F800CBFA00F01DF951EC100BB8E716A3D3E97C
:104608000023FBF7E1FD02460B4615A1D1E90001A5
:10461800FBF7DAFD92E701F1004319468EE7022E17
:1046280012D0032E0CD0012E06D013A1D1E900011F
:1046380084E74FF0004181E711A1D1E900017DE74E
:1046480011A1D1E9000179E711A1D1E9000175E7CC
:10465800182D4454FB2109C0075C143326A6A13C3D
:10466800182D4454FB210940182D4454FB21F93FCF
:10467800182D4454FB21F9BF182D4454FB21E93F60
:10468800182D4454FB21E9BFD221337F7CD902C0C5
:10469800D221337F7CD902400000F07F2DE9F04120
:1046A800624A57EC106BBA4300F09580002F3B46E6
:1046B80010EE101A344654DD3F1500F0AF80C3F3F6
:1046C8001303A7F2FF3743F48013E20FF90702EB55
:1046D80043034FEA440503D5ED0F05EB4303A5005B
:1046E80000267F10B44616224FF400110CEB01008F
:1046F80098424FEAD5744FEA450503DC1B1A00EBD4
:10470800010C0E44013A04EB43034FEA5101EDD189
:104718001046964620244FF0004209E052D05B0034
:10472800013C03EBD5734FEA52024FEA450536D0F8
:10473800634502EB0E01F1DD002901EB020E0ADBF5
:10474800E046A3EB0C03A94288BF03F1FF336D1ABF
:104758001044C446E3E7BEF1000FF1DB0CF1010899
:10476800EFE727F0004232432AD0002F49D1CA0A86
:10477800153B4905002AFAD012F4801001D050E008
:1047880020465200D50200F10104F9D5C4F12005F4
:1047980001FA04F4E9401F1A41EA02038FE72B43A8
:1047A80029D144087110F30701F17F5101F5001177
:1047B80048BF44F0004401EB0753224643EC102B5A
:1047C800BDE8F081A942AAD8002901EB020EC2DB9C
:1047D80098460023BBE710EE102A3B4610EE100A5D
:1047E8003946FBF7A9FE32463B46FBF7EFFC41ECA6
:1047F800100BBDE8F081421C16BF421C013654085C
:10480800D0E710EE102A30463946FBF7DDFC0246A9
:104818000B46FBF7BBFF41EC100BD1E71A463B46B2
:10482800AAE70C4620254FF0FF30B3E70000F07FE1
:104838002DE9F84F55EC104BC94B25F000469E4228
:10484800AA4610DDC74B9E4200F3B58000F0B08049
:10485800BAF1000F40F3F980A5A1D1E9000141ECBC
:10486800100BBDE8F88FC04B9E4200F3C380A3F144
:10487800DE739E4240F3A9804FF0FF3B22462B4651
:1048880020462946FBF758FE02460B4680468946D5
:10489800FBF752FE98A3D3E9002306460F46FBF721
:1048A8004BFE97A3D3E90023FBF790FC32463B4627
:1048B800FBF742FE94A3D3E90023FBF787FC3246BB
:1048C8003B46FBF739FE92A3D3E90023FBF77EFCB6
:1048D80032463B46FBF730FE8FA3D3E90023FBF7B4
:1048E80075FC32463B46FBF727FE8DA3D3E9002330
:1048F800FBF76CFC42464B46FBF71EFE8AA3D3E946
:1049080000238046894630463946FBF715FE88A3C2
:10491800D3E90023FBF758FC32463B46FBF70CFE75
:1049280085A3D3E90023FBF74FFC32463B46FBF750
:1049380003FE83A3D3E90023FBF746FC32463B463C
:10494800FBF7FAFD80A3D3E90023FBF73DFC3246D1
:104958003B46FBF7F1FD02460B4640464946FBF74E
:1049680035FC22462B46FBF7E7FDBBF1FF3F02462D
:104978000B466ED07D4B7E4E4FEACB0B5B44D3E9A2
:104988000023FBF721FC22462B46FBF71DFCB34412
:1049980002460B46DBE90001FBF716FCBAF1000FF3
:1049A8000FDA01F10043194641EC100BBDE8F88F0E
:1049B800002C3FF44DAF22462B4620462946FBF7F4
:1049C80005FC41EC100BBDE8F88F61A3D3E9002387
:1049D80010EE100A2946FBF7F9FB0022654BFCF79D
:1049E8003BF800283FF448AF2046294641EC100B1D
:1049F800BDE8F88F00F0C8F85F4B9E4255EC104BAD
:104A08002FDCA3F550239E4258DC10EE102A10EE3E
:104A1800100A2B462946FBF7D9FB0022554BFBF71A
:104A2800D3FB002206460F464FF080432046294616
:104A3800FBF7CCFB02460B4630463946FBF7A6FE91
:104A48004FF0000B04460D4618E743A1D1E90001D9
:104A5800B7E720462946FBF7B7FB41EC100BBDE84A
:104A6800F88F464B9E421DDC10EE100A0022444B84
:104A78002946FBF7A9FB002206460F46404B204675
:104A88002946FBF759FD00223A4BFBF79FFB0246EC
:104A98000B4630463946FBF779FE4FF0020B0446C9
:104AA8000D46EBE62B4610EE102A00203549FBF7A1
:104AB8006DFE4FF0030B04460D46DFE610EE100ABC
:104AC80000222C4B2946FBF77FFB002206460F46A7
:104AD800284B20462946FBF779FB02460B46304611
:104AE8003946FBF753FE4FF0010B04460D46C5E669
:104AF800182D4454FB21F93F11DA22E33AAD903FD7
:104B0800EB0D76244B7BA93F513DD0A0660DB13FFC
:104B18006E204CC5CD45B73FFF8300922449C23F64
:104B28000D5555555555D53F2F6C6A2C44B4A2BF29
:104B38009AFDDE522DDEAD3F6D9A74AFF2B0B33FF1
:104B4800711623FEC671BC3FC4EB98999999C93F69
:104B58009C7500883CE4377E182D4454FB21F9BF2E
:104B6800FFFF0F440000F07FFFFFDB3F984C000879
:104B7800784C00080000F03FFFFFF23FFF7F034042
:104B88000000F83F0000F0BF51EC100B10EE102AA7
:104B980021F0004343EC102B704700BF0020704702
:104BA800014B1868704700BF1000002070B50D4E0B
:104BB8000D4CA41BA4100025A54209D10B4E0C4C8A
:104BC80000F020F8A41BA4100025A54205D170BD53
:104BD80056F8253098470135EEE756F825309847BE
:104BE8000135F2E7B84C0008B84C0008B84C00088A
:104BF800BC4C000802440346934200D1704703F8B6
:104C0800011BF9E7F8B500BFF8BC08BC9E46704721
:104C1800F8B500BFF8BC08BC9E467047000000000D
:104C2800A0860100400D0300801A060000350C0024
:104C380040420F0080841E0000093D0000127A00E7
:104C48000024F40000366E010048E801006CDC0224
:104C58000000000000000000010203040607080924
:104C68000000000001020304737172740000000068
:104C78004FBB610567ACDD3F182D4454FB21E93F6C
:104C88009BF681D20B73EF3F182D4454FB21F93F5B
:104C9800E2652F227F2B7A3C075C143326A6813CE1
:104CA800BDCBF07A8807703C075C143326A6913C8C
:084CB800AD010008000000003E
:084CC00089010008000000005A
:104CC800010000001000000000093D000100000084
:104CD8001400002000000000000000000000000098
:104CE80000000000000000000000000000000000BC
:104CF80000000000000000000000000000000000AC
:104D0800000000000000000000000000000000009B
:104D1800000000000000000000000000000000008B
:104D2800000000000000000000000000000000007B
:084D3800000000000000000073
:04000005080043D1DB
:00000001FF
