:020000040800F2
:1000000000800120CD3400086D3400086F340008F2
:1000100071340008733400087534000800000000D3
:10002000000000000000000000000000773400081D
:1000300079340008000000007B3400087D3400089B
:100040001D3500081D3500081D3500081D35000848
:100050001D3500081D3500081D3500081D35000838
:100060001D3500081D3500081D3500081D35000828
:100070001D3500081D3500081D3500081D35000818
:100080001D3500081D3500081D3500081D35000808
:100090001D3500081D3500081D3500081D350008F8
:1000A0001D3500081D3500081D3500081D350008E8
:1000B0001D3500081D3500081D3500081D350008D8
:1000C0001D3500081D3500081D3500081D350008C8
:1000D0001D3500081D3500081D3500081D350008B8
:1000E0001D3500081D3500081D3500081D350008A8
:1000F0001D3500081D3500081D3500081D35000898
:100100001D3500081D3500081D3500081D35000887
:100110001D3500081D3500081D3500081D35000877
:100120001D3500081D3500081D3500081D35000867
:100130001D3500081D3500081D3500081D35000857
:100140001D3500081D3500081D3500081D35000847
:100150001D3500081D3500081D3500081D35000837
:100160001D3500081D3500081D3500081D35000827
:100170001D3500081D3500081D3500080000000071
:080180001D3500081D350008C3
:1001880010B5054C237833B9044B13B10448AFF3C9
:1001980000800123237010BD100000200000000023
:1001A8007835000808B5034B1BB103490348AFF382
:1001B800008008BD00000000140000207835000809
:1001C800104B1B680BB90120704710B504464FF45B
:1001D8007A70B0FBF3F30C4A1068B0FBF3F000F050
:1001E80097F868B90F2C01D901200AE000222146AE
:1001F8004FF0FF3000F058F8024B5C60002000E040
:10020800012010BD000000200800002010B5094A98
:10021800136843F480731360032000F033F8002060
:10022800FFF7CEFF10B10124204610BD044603F0AD
:100238006DF8F9E700200240034A1368034909688A
:100248000B441360704700BF8400002000000020AA
:10025800014B1868704700BF8400002038B5044679
:10026800FFF7F6FF0546B4F1FF3F02D0044B1B68C9
:100278001C44FFF7EDFF401BA042FAD338BD00BF76
:1002880000000020074AD36823F4E0631B041B0C1A
:10029800000200F4E060184340F0BF6040F4003012
:1002A800D060704700ED00E030B4174BDB68C3F353
:1002B8000223C3F10704042C28BF04241D1D062DA6
:1002C80018D9033B4FF0FF3505FA04F421EA04017D
:1002D800994005FA03F322EA0303194300280BDBCC
:1002E8000901C9B200F1604000F5614080F80013CF
:1002F80030BC70470023E5E700F00F000901C9B2E0
:10030800024B1954F4E700BF00ED00E014ED00E0E3
:100318000138B0F1807F0AD2064B5860064AF021B6
:1003280082F823100020986007221A607047012085
:10033800704700BF10E000E000ED00E070B110B5BC
:100348000446037933B1022323710020206101237D
:10035800237110BD437102F0F1FFF4E701207047EB
:10036800F8B54379012B00F0948016460D460446F3
:1003780001234371022303710B68042B32D02B69CC
:10038800012B79D02068C36B06F010020721914039
:1003980023EA01012B68AE683343EE683343934088
:1003A8000B43C363206803684FF48041914023EAFC
:1003B800010303602068036840F6FC71914023EA5A
:1003C80001016B6893400B43036020680368C021F8
:1003D80001FA02F223EA02020260012323710020DB
:1003E8006071F8BD72B123685B6B002B25DAFFF7EB
:1003F8002FFF0128F7D9236943F00803236103205D
:100408002071EEE7FFF724FF074623685B6B13F4C0
:10041800004F0BD0FFF71CFFC01B0128F5D923693B
:1004280043F00803236103202071DAE70120FFF776
:1004380015FF2368AA691A6405E00120FFF70EFF7B
:100448002368AA695A642068826C06F0100140F299
:10045800FF338B4022EA0302EB698B401A43826424
:100468002068C36CFF228A4023EA02032A6A02FA40
:1004780001F10B43C36482E721688A6B06F0100020
:100488001F23834022EA03026B69834013438B6373
:1004980078E70220A5E70000F0B482B0002341E02D
:1004A800D0F82CC02CEA040CC6F3C0049C4044EAE3
:1004B8000C04C46286E0062400E00024B4403C43F7
:1004C8000235664E46F82540654C2568D44304EA53
:1004D80005064F6817F4803F01D042EA0506604DD3
:1004E8002E606D6804EA05064F6817F4003F01D0D6
:1004F80042EA05065A4D6E60AD6804EA05064F6883
:1005080017F4801F01D042EA0506554DAE60ED682C
:100518002C404E6816F4001F01D042EA0504504AE8
:10052800D46001330A6832FA03F400F0938001249E
:100538009C402240F5D04D68022D01D0122D10D1DB
:10054800DE08083650F826C003F00705AF000F256F
:10055800BD402CEA050C0D69BD4045EA0C0540F884
:10056800265006685F000325BD40ED4305EA060CEA
:100578004E6806F00306BE4046EA0C0606604E6862
:1005880006F1FF3CBCF1010F03D9112E01D0122E48
:1005980011D1866805EA060CCE68BE4046EA0C060C
:1005A8008660466826EA040C4E68C6F300169E402C
:1005B80046EA0C0646604E6806F0030CBCF1030FD1
:1005C8003FF46EAFC46825408C68BC402C43C460BF
:1005D8004C6814F0805FA4D0224C256E45F00105CC
:1005E8002566246E04F001040194019C9D08AE1C4C
:1005F8001A4C54F8267003F00304A6000F24B440E4
:1006080027EA0407B0F1904F3FF457AF164CA042C9
:1006180016D004F58064A04214D004F58064A0428A
:1006280012D004F58064A04210D004F58064A04282
:100638000ED004F58064A0423FF43DAF07243DE7A7
:1006480001243BE7022439E7032437E7042435E78C
:10065800052433E702B0F0BC704700BF000001403A
:100668000004014000100240000400480AB98162F9
:100678007047816170470000024B186800F4C06041
:10068800704700BF00700040B0F5007F0FD01F4BCF
:100698001B6803F4C063B3F5806F34D01B4A13683A
:1006A80023F4C06343F48063136000207047174B42
:1006B8001B6803F4C063B3F5007F22D0134A1368A4
:1006C80023F4C06343F400731360114B1A68322398
:1006D80003FB02F30F4AA2FB03239B0C013300E048
:1006E800013B0A4A526912F4806F01D0002BF7D1FE
:1006F800064B5B6913F4806F01D10020704703201B
:100708007047002070470020704700BF007000400D
:100718000800002083DE1B4330B583B00546204B1C
:100728009B6D13F0805F0BD0FFF7A6FFB0F5007F3D
:1007380017D0802D1FD82DD0702D2DD000211BE073
:10074800174CA36D43F08053A365A36D03F080534A
:100758000193019BFFF790FFA36D23F08053A365DE
:10076800E4E7802D03D9A02D03D9022104E000215C
:1007780002E0012100E003210A4A136823F007037D
:100788000B431360136803F007038B4206D0012064
:1007980003B030BD0221EFE70121EDE70020F7E7C4
:1007A8000010024000200240284A9368D26802F0F4
:1007B800030213F00C030AD00C2B06D0042B1FD015
:1007C800082B20D00020024610E0012AF6D11F4A4B
:1007D800126812F0080F0CD11C4AD2F89420C2F308
:1007E80003221B4951F8222043B100200C2B0DD0C5
:1007F8007047164A1268C2F30312F2E71046F5E78B
:1008080014480022F2E714480022EFE70F4BDB6898
:1008180003F00303022B15D0032B15D00B4BD8681C
:10082800C0F302100130D968C1F3062102FB01F2BE
:10083800B2FBF0F2D868C0F3416001304000B2FB6F
:10084800F0F0D5E7034AE9E7034AE7E7001002407A
:10085800903500080024F40000127A00002800F007
:10086800D182F0B583B00446AD4B9D6805F00C0508
:10087800DE6806F00306036813F0100F5ED0E5B1DA
:100888000C2D18D0A369002B00F0B880A44A136877
:1008980043F001031360FFF7DBFC0746A04B1B681E
:1008A80013F0020F40F09780FFF7D2FCC01B02281C
:1008B800F4D90323B9E2012EE4D1994B1B6813F054
:1008C800020F03D0A369002B00F09F82206A944B8B
:1008D8001B6813F0080F5ED0914B1B6803F0F00300
:1008E80098425FD9FFF718FF002840F097828C4B99
:1008F8001A6842F008021A601A6822F0F002216AA7
:100908000A431A605A6822F47F42E16942EA0122E6
:100918005A60FFF749FF824B9B68C3F30313814A70
:10092800D35C03F01F03D8407F4B18607F4B1868D7
:10093800FFF746FC0346002840F07782236813F04F
:10094800010F7AD0082D6FD00C2D6BD06368B3F5EA
:10095800803F00F09180B3F5A02F00F09380704B9A
:100968001A6822F480321A601A6822F480221A6007
:100978006368002B00F09380FFF76AFC0746684B1A
:100988001B6813F4003F58D1FFF762FCC01B6428B2
:10099800F5D9032349E2624BD3F894301B0903F0DD
:1009A800F0039DE75E4B1A6842F008021A601A6865
:1009B80022F0F002216A0A431A605A6822F47F4240
:1009C800E16942EA01225A60206AFFF7A5FE002881
:1009D8009FD0012329E2524B1A6842F008021A609C
:1009E8001A6822F0F002216A0A431A605A6822F44F
:1009F8007F42E16942EA01225A609FE7484A136848
:100A080023F001031360FFF723FC0746444B1B68E0
:100A180013F0020F92D0FFF71BFCC01B0228F5D978
:100A2800032302E2032E91D13D4B1B6813F4003FD0
:100A380003D06368002B00F0F381236813F0020FE2
:100A48004FD0042D3CD00C2D38D0E368002B78D043
:100A5800334A136843F480731360FFF7F9FB0646C3
:100A68002F4B1B6813F4806F62D1FFF7F1FB801BDB
:100A78000228F5D90323D8E1294A136843F48033BF
:100A8800136075E703F18043A3F53C331A6842F419
:100A980080221A601A6842F480321A6068E7FFF709
:100AA800D7FB07461E4B1B6813F4003FC5D0FFF762
:100AB800CFFBC01B6428F5D90323B6E1022EC4D1AD
:100AC800174B1B6813F4806F03D0E368002B00F00A
:100AD800A981134A536823F0F853216943EA016353
:100AE8005360236813F0080F56D06369002B3CD07D
:100AF8000B4AD2F8943043F00103C2F89430FFF760
:100B0800A7FB0646064BD3F8943013F0020F43D1E7
:100B1800FFF79EFB801B0228F4D9032385E100BF61
:100B280000100240C0350008080000200400002022
:100B3800B74A536823F0F853216943EA01635360C5
:100B4800CFE7B34A136823F480731360FFF780FB81
:100B58000646AF4B1B6813F4806FC2D0FFF778FBD3
:100B6800801B0228F5D903235FE1A94AD2F8943003
:100B780023F00103C2F89430FFF76AFB0646A44B42
:100B8800D3F8943013F0020F06D0FFF761FB801BF7
:100B98000228F4D9032348E1236813F0040F7AD01C
:100BA8009B4B9B6D13F0805F0BD1994B9A6D42F074
:100BB80080529A659B6D03F080530193019B012637
:100BC80000E00026934B1B6813F4807F26D0A368AF
:100BD800012B37D0052B3DD08D4BD3F8902022F038
:100BE8000102C3F89020D3F8902022F00402C3F841
:100BF8009020A368002B3BD0FFF72AFB0746844BC5
:100C0800D3F8903013F0020F44D1FFF721FBC01B3B
:100C180041F288339842F2D9032306E17D4A1368EA
:100C280043F480731360FFF713FB0746794B1B6887
:100C380013F4807FCBD1FFF70BFBC01B0228F5D93B
:100C48000323F2E0724AD2F8903043F00103C2F86D
:100C58009030CEE76E4BD3F8902042F00402C3F8F0
:100C68009020D3F8902042F00102C3F89020C0E70A
:100C7800FFF7EEFA0746664BD3F8903013F0020FF1
:100C880008D0FFF7E5FAC01B41F288339842F2D941
:100C98000323CAE05EBBA36A002B00F0C5800C2DBD
:100CA80076D0022B29D05A4B1A6822F080721A602B
:100CB8001B6813F0205F04D1554AD36823F003035F
:100CC800D360534AD36823F0887323F48033D36006
:100CD800FFF7BEFA04464E4B1B6813F0007F55D051
:100CE800FFF7B6FA001B0228F5D903239DE0484A0E
:100CF800936D23F080539365CDE7454A136823F03D
:100D080080731360FFF7A4FA0546414B1B6813F084
:100D1800007F06D0FFF79CFA401B0228F5D9032371
:100D280083E03B4AD3683C491940E36A206B0138A9
:100D380043EA0013606B43EA0023E06B4008013884
:100D480043EA4053206C4008013843EA4063A06BF3
:100D5800000943EA40430B43D360136843F08073B0
:100D68001360D36843F08073D360FFF771FA0446C9
:100D7800274B1B6813F0007F06D1FFF769FA001BA9
:100D88000228F5D9032350E000234EE000234CE06D
:100D9800012B4DD01E4BDB6803F00301E26A914240
:100DA80001D0012341E003F07002216B0139B2EB5D
:100DB800011F01D0012338E003F4FE42616BB2EB5E
:100DC800012F01D0012330E003F40031A26B073A70
:100DD80018BF0122914201D0012326E003F4C0018B
:100DE800E26B5208013AB1EB425F01D001231CE0EB
:100DF80003F0C063226C5208013AB3EB426F19D07A
:100E0800012312E001231846704701230DE000BFBB
:100E180000100240007000408C809DF9012304E01E
:100E2800012302E0012300E00023184603B0F0BDCF
:100E38000123FAE70023F8E7002800F09B8070B54B
:100E480004464E4B1B6803F007038B420CD24B4AF7
:100E5800136823F007030B431360136803F00703B9
:100E68008B4201D0012070BD0D46236813F0010F9D
:100E780039D06368032B09D0022B26D063BB404AC4
:100E8800126812F0020F06D10120ECE73C4A126802
:100E980012F0007F70D03A498A6822F003021343A7
:100EA8008B60FFF7D5F90646354B9B6803F00C03BA
:100EB8006268B3EB820F16D0FFF7CAF9801B41F2C4
:100EC80088339842F0D90320CDE72D4A126812F4EE
:100ED800003FE0D10120C6E7294A126812F4806F6A
:100EE800D9D10120BFE7236813F0020F06D0244AA6
:100EF800936823F0F003A1680B4393601F4B1B68B2
:100F080003F00703AB420CD91C4A136823F007030C
:100F18002B431360136803F00703AB4201D0012091
:100F2800A1E7236813F0040F06D0154A936823F449
:100F3800E063E1680B439360236813F0080F07D060
:100F48000F4A936823F46053216943EAC10393600D
:100F5800FFF72AFC0A4B9B68C3F30313094AD35CC7
:100F680003F01F03D840084B1860084B1868FFF7B8
:100F780027F978E701207047012074E70020024034
:100F880000100240C03500080800002004000020BE
:100F9800014B1868704700BF0800002008B5FFF72C
:100FA800F7FF054B9B68C3F30223044AD35C03F0A5
:100FB8001F03D84008BD00BF00100240D03500080C
:100FC80008B5FFF7E5FF054B9B68C3F3C223044A46
:100FD800D35C03F01F03D84008BD00BF00100240D7
:100FE800D0350008B0F5006F24D0B0F5805F2BD065
:100FF8000020B0F5000F31D0B0F1007F2ED00028CE
:1010080049D1384B1B6913F4803F6AD0354BD868F7
:10101800C0F302100130B1FBF0F11869C0F30620EB
:101028001B6913F4003F34D1072300FB01F0B0FB28
:10103800F3F070472B4BD3F8880000F44000B0F56C
:10104800400FD6D128487047264BD3F8880000F0C7
:101058004070B0F1407FCCD123487047214BDB680A
:1010680013F4803F3AD01F4BD868C0F30210013008
:10107800B1FBF0F1D868C0F30620DB6813F4003F39
:1010880005D1072300FB01F0B0FBF3F070471123F3
:10109800F8E71123C9E7B0F5800F04D0B0F1807FDD
:1010A80001D0002070470F4B5B6913F4803F17D0C5
:1010B8000C4BD868C0F302100130B1FBF0F158694D
:1010C800C0F306205B6913F4003F05D0112300FB31
:1010D80001F0B0FBF3F070470723F8E700207047F2
:1010E800002070470010024068FF1F00F8B55A4BF7
:1010F800DB6813F0030F18D0574BDB6803F00303CA
:101108000268934202D001252846F8BD002A00F063
:10111800A080514BDB68C3F302130133426893424A
:1011280001D00125F0E700251AE00368022B59D009
:10113800032B5ED0012B01D001250FE0464A12682F
:1011480012F0020F61D0444DEA6822F0730244683D
:10115800013C43EA04131343EB600025002DD3D16F
:101168000F4604463C4A136823F080631360FFF778
:101178006FF80646384B1B6813F0006F05D0FFF771
:1011880067F8801B0228F5D90325002DBCD1002F54
:101198003DD131490B6923F41F3323F44073A06810
:1011A800E2681209520442EA002213430B612A4AF8
:1011B800136843F080631360FFF74AF80646264B2E
:1011C8001B6813F0006F05D1FFF742F8801B022857
:1011D800F5D90325002D97D11F4A1369A1690B433F
:1011E800136191E71C4A126812F4806FABD1012594
:1011F800B4E7194A126812F4003FA4D1164A1268DB
:1012080012F4802F9FD10125A8E70125A6E7012F19
:101218000FD01148026922F0C06222F4FE42A16890
:1012280063695B08013B5B0643EA012313430361DF
:10123800BDE70948026922F4C00222F4FE42A1680F
:1012480023695B08013B5B0543EA01231343036100
:10125800ADE7012558E700BF00100240F8B5514B33
:10126800DB6813F0030F18D04E4BDB6803F0030361
:101278000268934202D001252846F8BD002A00F0F2
:101288008E80484BDB68C3F30213013342689342F4
:1012980001D00125F0E700251AE00368022B59D098
:1012A800032B5ED0012B01D001250FE03D4A1268C7
:1012B80012F0020F61D03B4DEA6822F073024468D5
:1012C800013C43EA04131343EB600025002DD3D1FE
:1012D8000F460446334A136823F080531360FEF721
:1012E800B7FF06462F4B1B6813F0005F05D0FEF7CB
:1012F800AFFF801B0228F5D90325002DBCD1002F94
:101308003DD128494B6923F41F3323F44073A06867
:10131800E2681209520442EA002213434B61214A4F
:10132800136843F080531360FEF792FF06461D4B87
:101338001B6813F0005F05D1FEF78AFF801B0228A7
:10134800F5D90325002D97D1164A536961690B43D6
:10135800536191E7134A126812F4806FABD10125EB
:10136800B4E7104A126812F4003FA4D10D4A12687B
:1013780012F4802F9FD10125A8E70125A6E7094887
:10138800426922F0C06222F4FE42A16823695B0828
:10139800013B5B0643EA012313434361BFE7012591
:1013A8006AE700BF001002402DE9F04182B0044610
:1013B800036813F4006F2FD0436EB3F5800F25D068
:1013C80008D9B3F5000F10D0B3F5400F40F099805D
:1013D800002610E0002B40F0948000210430FFF735
:1013E80085FE06463EB1374618E05E4AD36843F4A8
:1013F8008033D36000265B4AD2F8883023F4400358
:10140800616E0B43C2F88830002707E000212030C6
:10141800FFF724FF0646E5E700273E46236813F456
:10142800805F15D0A36EB3F1807F7AD06CD9B3F109
:10143800007F70D0B3F1407F7AD1002E7BD1494A2A
:10144800D2F8883023F04073A16E0B43C2F888307D
:10145800236813F4003F00F08E80424B9B6D13F01D
:10146800805F6AD13F4B9A6D42F080529A659B6DBE
:1014780003F080530193019B4FF001083A4A136827
:1014880043F480731360FEF7E3FE0546364B1B6892
:1014980013F4807F05D1FEF7DBFE401B0228F5D947
:1014A8000326002E62D12F4BD3F8903013F44073EB
:1014B80016D0D4F884209A4212D02A4AD2F8903012
:1014C80023F44073D2F8901041F48031C2F89010A0
:1014D800D2F8901021F48031C2F89010C2F8903000
:1014E80013F0010F2CD1002E40F043811D4AD2F891
:1014F800903023F44073D4F884100B43C2F8903032
:1015080035E001273E4689E793B90021201DFFF702
:10151800EDFD064691E7134AD36843F48033D36060
:101528008BE7002104F12000FFF798FE064684E7C8
:1015380001273E468CE737468AE74FF000089DE7CB
:10154800FEF786FE0546074BD3F8903013F0020FDE
:10155800C9D1FEF77DFE401B41F288339842F2D98B
:101568000326C0E700100240007000403746B8F17B
:10157800000F40F00081236813F0010F08D09D4A46
:10158800D2F8883023F00303A16B0B43C2F88830EC
:10159800236813F0020F08D0964AD2F8883023F057
:1015A8000C03E16B0B43C2F88830236813F0040F77
:1015B80008D0904AD2F8883023F03003216C0B43CE
:1015C800C2F88830236813F0080F08D0894AD2F887
:1015D800883023F0C003616C0B43C2F8883023685D
:1015E80013F0100F08D0834AD2F8883023F44073E0
:1015F800A16C0B43C2F88830236813F0200F08D081
:101608007C4AD2F8883023F44063E16C0B43C2F87B
:101618008830236813F4007F08D0764AD2F88830DF
:1016280023F44023E16D0B43C2F88830236813F498
:10163800806F08D06F4AD2F8883023F44013216EA7
:101648000B43C2F88830236813F0400F08D0694A6A
:10165800D2F8883023F44053216D0B43C2F8883008
:10166800236813F0800F08D0624AD2F8883023F438
:101678004043616D0B43C2F88830236813F4807FC0
:1016880008D05C4AD2F8883023F44033A16D0B436C
:10169800C2F88830236813F4005F0FD0554AD2F897
:1016A800883023F04063E16E0B43C2F88830E36E64
:1016B800B3F1006F65D0B3F1806F67D0236813F47E
:1016C800002F0FD04B4AD2F8883023F04063216FA7
:1016D8000B43C2F88830236FB3F1006F5ED0B3F1CB
:1016E800806F60D0236813F4802F0FD0414AD2F85E
:1016F800883023F04063616F0B43C2F88830636F12
:10170800B3F1006F57D0B3F1806F59D0236813F449
:10171800804F0FD0374AD2F8883023F04053A16F5A
:101728000B43C2F88830A36FB3F1805F50D0B3F198
:10173800005F55D0236813F4004F08D02D4AD2F823
:10174800883023F08043E16F0B43C2F88830236868
:1017580013F4803F09D0274AD2F8883023F0004399
:10176800D4F880100B43C2F88830384602B0BDE880
:10177800F0813746FBE61F4A936D23F0805393654B
:10178800F9E6D36843F48013D36097E70121201D5D
:10179800FFF7ACFC002891D007468FE7D36843F4E5
:1017A8008013D3609EE70121201DFFF79FFC0028CE
:1017B80098D0074696E7D36843F48013D360A5E72B
:1017C8000121201DFFF792FC00289FD007469DE7C6
:1017D8000221201DFFF78AFC0028ABD00746A9E7A5
:1017E800022104F12000FFF739FD0028A2D00746A6
:1017F800A0E700BF0010024008B5B0F5003F38D0A0
:10180800BB4BDB6803F00303022B74D0032B79D0A6
:10181800012B58D00021B0F5007F00F0E38200F2E0
:10182800CA80102800F0098200F28A80022800F09D
:101838009E8174D9042800F0C881082840F01881D6
:10184800AB4BD3F8883003F0C003402B00F0EA819B
:1018580040F2E281802B00F0E881C02B40F0348315
:10186800A34BD3F8903013F0020F40F031830020DF
:101878000EE09F4BD3F8903003F44073B3F5007F2C
:1018880010D0B3F5407F16D0B3F5807F01D000208B
:1018980008BD974BD3F8903013F0020F40F0ED825B
:1018A8000020F5E7924BD3F8943013F0020F40F084
:1018B800E7820020ECE78E4B1B6813F4003F40F0F2
:1018C800E2820020E4E78A4B1B6813F0020F20D065
:1018D800874B1B6813F0080F07D0854B1B68C3F3B1
:1018E8000313844A52F8231095E7814BD3F89430B8
:1018F800C3F30323F5E77E4B1B6813F4806F0AD00C
:101908007D4988E77A4B1B6813F4003F05D07B4973
:1019180081E700217FE700217DE700217BE701289F
:1019280040F0A680724BD3F8883003F00303032BF2
:1019380000F2B582DFE813F0040107010A01120181
:10194800402800F0078218D9802800F01F82B0F5DF
:10195800807F40F08D80664BD3F8883003F44033A5
:10196800B3F5803F00F03182B3F5003F00F03082DC
:10197800002B00F0278200208AE7202878D15C4BD2
:10198800D3F8883003F44063B3F5806F00F08581A5
:1019980040F27D81B3F5006F00F08281B3F5406FAE
:1019A80040F0A082524BD3F8903013F0020F40F071
:1019B8009D8200206CE7B0F5804F00F079813DD81A
:1019C800B0F5006F56D007D9B0F5805F23D14FF43A
:1019D8008050FFF707FB5BE7B0F5806F48D1444BB9
:1019E800D3F8883003F44013B3F5801F00F02C823D
:1019F80040F22582B3F5001F00F02E82B3F5401F98
:101A080040F08B823A4BD3F8903013F0020F40F03D
:101A18008B8200203CE7B0F5005F29D1344BD3F826
:101A2800883003F04063B3F1006F41D0B3F1406FE9
:101A380025D0B3F1806F63D0002029E7B0F5803F4F
:101A480000F07D810ED8B0F5004F11D1284BD3F8A6
:101A5800883013F0804300F00682002B40F00682A5
:101A6800002015E7B0F5802FD8D0B0F5002FD5D0DD
:101A780000200DE74FF40060FFF7B4FA08E71C4BAD
:101A88001B6813F0020F00F00082194B1B6813F05B
:101A9800080F07D0164B1B68C3F30313154A52F8F7
:101AA8002300F5E6124BD3F89430C3F30323F5E78C
:101AB8000F4B1B6813F0007F00F0E9810C4BDB68CB
:101AC80013F4801F00F0E581094AD068C0F30620AE
:101AD80000FB01F0D368C3F302130133B0FBF3F04A
:101AE800D368C3F3415301335B00B0FBF3F0CFE697
:101AF80000100240903500080024F40000127A001B
:101B0800B74B1B6813F0006F00F0C581B44B1B691D
:101B180013F4801F00F0C181B14A1069C0F3062098
:101B280000FB01F0D368C3F302130133B0FBF3F0F9
:101B38001369C3F3415301335B00B0FBF3F0A7E62D
:101B4800FFF73EFAA4E6FEF72FFEA1E6A44B1B68BA
:101B580013F4806F40F0A581002099E6A04BD3F8DC
:101B6800903013F0020F40F09E81002090E69C4BCD
:101B7800D3F8883003F00C030C2B00F29781DFE8D0
:101B880013F00D009501950195011000950195013F
:101B9800950113009501950195011B00FFF7FEF9CA
:101BA80076E6FEF701FE73E68D4B1B6813F4806F33
:101BB80040F07E8100206BE6894BD3F8903013F01B
:101BC800020F40F07781002062E6854BD3F8883019
:101BD80003F03003102B14D00DD9202B14D0302B48
:101BE80040F06B817E4BD3F8903013F0020F40F039
:101BF800688100204CE6002B40F05F81FFF7CEF9AA
:101C080046E6FEF7D1FD43E6754B1B6813F4806F7B
:101C180040F0558100203BE6002B40F05581FFF74E
:101C2800BDF935E6FEF7C0FD32E66D4B1B6813F4CF
:101C3800806F40F04B8100202AE6694BD3F888304A
:101C480003F44073B3F5807F16D00FD9B3F5007F46
:101C580015D0B3F5407F40F03E81614BD3F890300A
:101C680013F0020F40F03B81002011E6002B40F0FA
:101C78003281FFF793F90BE6FEF796FD08E6584B1D
:101C88001B6813F4806F40F02881002000E6002BC9
:101C980040F02881FFF782F9FAE5FEF785FDF7E5C0
:101CA8004F4B1B6813F4806F40F01E810020EFE556
:101CB8004B4BD3F8883003F04053B3F1005F24D086
:101CC800B3F1405F04D0B3F1805F04D00020DFE5BA
:101CD800FEF76AFDDCE5424B1B6913F0807F00F0DC
:101CE80008813F4A1069C0F3062000FB01F0D36861
:101CF800C3F302130133B0FBF3F01369C3F3416379
:101D080001335B00B0FBF3F0C2E5354B5B6913F0C0
:101D1800807F00F0F080324A5069C0F3062000FB53
:101D280001F0D368C3F302130133B0FBF3F0536936
:101D3800C3F3416301335B00B0FBF3F0A8E5284B24
:101D4800D3F88830002B02DBFFF73AF9A0E5FEF75D
:101D58002BFD9DE5224BD3F8883003F44053B3F5AF
:101D6800805F08D0B3F5005F08D00BB100208FE585
:101D7800FFF714F98CE5FEF717FD89E5184B1B688A
:101D880013F4806F40F0B980002081E5144BD3F83C
:101D9800883003F44043B3F5804F08D0B3F5004FC3
:101DA80008D00BB1002073E5FFF7F8F870E5FEF7EF
:101DB800FBFC6DE50A4B1B6813F4806F40F09F80B5
:101DC800002065E5FFF7EAF862E5FEF7EDFC5FE560
:101DD800034B1B6813F4806F40F09380002057E595
:101DE80000100240534BD3F8883003F44023B3F576
:101DF800802F15D00FD9B3F5002F19D0B3F5402F88
:101E080040F081804B4BD3F8903013F0020F40F034
:101E1800818000203CE5002B75D1FFF7BFF837E53E
:101E2800444BD3F8943013F0020F6ED100202FE505
:101E3800404B1B6813F4806F6AD1002028E5002B03
:101E48006BD1FFF7ABF823E53A4BD3F8943013F096
:101E5800020F64D100201BE5364B1B6813F4806F1A
:101E680060D1002014E5FFF799F811E5314B1B68A4
:101E780013F4806F5BD100200AE54FF4004007E5BA
:101E88004FF4FA4004E52C4802E5002000E5002064
:101E9800FEE40020FCE40020FAE40020F8E400203E
:101EA800F6E42648F4E44FF40040F1E40020EFE4BF
:101EB8002248EDE44FF40040EAE40020E8E41F483B
:101EC800E6E44FF40040E3E40020E1E41B48DFE4EB
:101ED8004FF40040DCE40020DAE41848D8E44FF47A
:101EE8000040D5E40020D3E41448D1E44FF4004086
:101EF800CEE40020CCE40020CAE41048C8E40F482F
:101F0800C6E40E48C4E40020C2E44FF4FA40BFE43B
:101F18000A48BDE44FF40040BAE40020B8E44FF4A6
:101F2800FA40B5E40548B3E44FF40040B0E4034890
:101F3800AEE400BF0010024090D003000024F4007B
:101F48000E4B1B680E4AA2FB03231B0B9B00016868
:101F58000A6822F480320A603BB1013B02681268C9
:101F680012F4803FF8D100207047D0F8803043F059
:101F78004003C0F880300320704700BF08000020ED
:101F88001BECCB95F8B5002800F0D680044690F8F5
:101F98007D300BB32046FFF7D3FF0546002840F0FD
:101FA800CD80022384F87D30E368012B1BD0022BFF
:101FB80017D00022A368022B17D0032B18D0012BAF
:101FC8001BD0002623685E498B4219D020318B42F2
:101FD80016D05C4B1A6015E080F87C3001F012FADC
:101FE800D8E72022E6E71022E4E74FF40066E9E7A5
:101FF80042F001024FF40066E4E74FF48066E1E73F
:10200800514B1A60E3691BB323684D4A934207D0CA
:102018002032934204D04FF48050FFF7EDFB03E0E9
:102028004FF40060FFF7E8FB00EB80004100E36934
:102038005B02B1FBF3F1454BA3FB0123DB082362F1
:1020480003EB830042008A1A082A01D9013323626C
:10205800636833B1022B04D0E36B012B69D00027EE
:1020680004E0E36B012B62D04FF4007721680B6822
:10207800374A1A400A6021680A686368206B03437C
:10208800606B0343A06B03433B433343606A0343E2
:102098002069034360690343206A43EA00531343FA
:1020A8000B602268536823F4604323F00F035360E6
:1020B80021684A68A369A06A0343E06A034313439B
:1020C8004B6022689168234B0B40936020688268BC
:1020D800236C013B216D0B43A16C0B43E16C0B435B
:1020E800616C013943EA0123134383602268D36892
:1020F80023F47D6323F00F031B041B0CD3602068BB
:10210800C268636DA16D0B43216E43EA0143E16D23
:10211800013943EA01231343C3600023C4F8803024
:10212800012284F87D2084F87C302846F8BD0027F9
:102138009CE74FF4007799E70125F6E70125F4E7D6
:10214800045401400058014000540140CDCCCCCC8F
:1021580010C005FF0080F8FFF8B505460F46164683
:102168001C462B689B6837EA03030CBF0123002336
:10217800B34237D0B4F1FF3FF3D0FEF769F8069BBE
:10218800C01AA04201D2002CEBD12A68536823F070
:10219800E00353606B68B3F5827F0BD0AB6AB3F58D
:1021A800005F14D0012385F85D30002385F85C308A
:1021B800032018E0AB68B3F5004F02D0B3F5806F89
:1021C800ECD12A68136823F040031360E6E72A6815
:1021D800136823F4005313602A68136843F4005308
:1021E8001360DFE70020F8BDF8B507460C46154632
:1021F8001E4602E0B6F1FF3F0BD13A6893682340D0
:10220800AB423BD0B4F5C06FF4D1002DF2D1137BB3
:10221800F0E7FEF71DF8069BC01AB04201D2002E67
:10222800EBD13A68536823F0E00353607B68B3F559
:10223800827F0BD0BB6AB3F5005F14D0012387F807
:102248005D30002387F85C30032018E0BB68B3F5E5
:10225800004F02D0B3F5806FECD13A68136823F0D1
:1022680040031360E6E73A68136823F400531360E9
:102278003A68136843F400531360DFE70020F8BDA1
:1022880070B582B004460D46164600920B460022F1
:102298004FF4C051FFF7A8FFB8B900962B460022AB
:1022A80080212046FFF758FFB8B900962B46002238
:1022B8004FF4C0612046FFF797FF034650B1236EE5
:1022C80043F020032366032304E0236E43F0200336
:1022D80023660323184602B070BD236E43F0200323
:1022E80023660323F6E770B582B004460D4616460A
:1022F8004368B3F5827F0FD000962B4600228021D9
:102308002046FFF729FF034698B96268B2F5827F35
:1023180015D0184602B070BD8368B3F5004F02D0DF
:10232800B3F5806FE8D12268136823F04003136087
:10233800E2E7236E43F0200323660323E9E7A2685C
:10234800B2F5004F02D0B2F5806FE2D100962B466D
:1023580000224FF4C0612046FFF746FF03460028DD
:10236800D7D0236E43F0200323660323D1E7002848
:1023780053D010B504460023836290F85D30002BDB
:1023880040D0022384F85D302268136823F04003AC
:102398001360E368B3F5E06F39D90022B3F5706FC5
:1023A80004D0B3F5E06F01D00021A162216B21B9FF
:1023B800B3F5E06F2ED9022323636368A1680B434A
:1023C80021690B4361690B43A16901F400710B4357
:1023D800E1690B43216A0B43A06A216803430B6040
:1023E800638B03F00403616A0B43616B0B43E16881
:1023F8000B43216813434B6000202066012384F8B7
:102408005D3010BD80F85C3000F0C8FFB9E74FF4CC
:102418008052C3E701232363CFE7012070472DE9EA
:10242800F04182B090F85C40012C00F0E4801E4638
:10243800154688460446012380F85C30FDF708FFFE
:10244800074694F85D20D2B2012A09D00220012360
:1024580084F85D30002384F85C3002B0BDE8F08178
:10246800B8F1000F00F0B980002D00F0B880032308
:1024780084F85D3000232366C4F83880A587E58793
:102488002364A4F84430A4F846302365E364A368C1
:10249800B3F5004F1CD023681A6812F0400F03D11F
:1024A8001A6842F040021A60E368B3F5E06F33D966
:1024B80063680BB1012D1BD1A26B23681288DA6007
:1024C800A36B0233A363E38F013B9BB2E3870FE067
:1024D8002268136843F480431360DCE7FDF7B8FE15
:1024E800C01BB04202D3B6F1FF3F7AD1002E7AD09A
:1024F800E38F9BB2002B5BD023689A6812F0020F1F
:10250800ECD0A26B1288DA60A36B0233A363E38F6B
:10251800013B9BB2E387EBE763680BB1012D30D138
:10252800E38F9BB2012B0BD9A26B23681288DA6068
:10253800A36B0233A363E38F023B9BB2E38720E0E4
:10254800A26B236812781A73A36B0133A363E38F1A
:10255800013B9BB2E38714E0A36B1B781373A36B57
:102568000133A363E38F013B9BB2E38709E0FDF7E7
:102578006FFEC01BB04202D3B6F1FF3F35D1002E2B
:1025880035D0E38F9BB29BB12268936813F0020F9A
:10259800EDD0E38F9BB2012BDED9A36B1B88D360F0
:1025A800A36B0233A363E38F023B9BB2E387E8E7A5
:1025B8003A4631462046FFF763FE08B120232366DA
:1025C800A36833B901932368DA6801929B68019381
:1025D800019B236E6BB9002039E7012037E7012002
:1025E80035E7032033E7032031E703202FE70320F3
:1025F8002DE701202BE702202FE72DE9F843DDF82E
:10260800208090F85C40012C00F05C811D46174644
:102618000E460446012380F85C30FDF719FE81461A
:1026280094F85D00C0B26368012814D0B3F5827FC6
:1026380009D00223012284F85D20002284F85C205E
:102648001846BDE8F883A368002B40F02D810428C4
:1026580001D00223EEE7002E00F02881002F00F0C1
:102668002781002D00F0268194F85D30DBB2042B21
:1026780002D0052384F85D30002323662764A4F87C
:102688004650A4F84450A663E587A587E36423650C
:10269800E368B3F5E06F01D8012D22D922685368A9
:1026A80023F48053536023681A6812F0400F03D153
:1026B8001A6842F040021A60E368B3F5E06F56D931
:1026C80063680BB1012D0AD1A26B23681288DA6006
:1026D800A36B0233A363E38F013B9BB2E38701251E
:1026E80025E02268536843F480535360DBE723688E
:1026F8009A6812F0010F10D0B4F8462092B262B175
:10270800DA68236C1A80236C02332364B4F84630E9
:10271800013B9BB2A4F846300125FDF799FDA0EBDB
:102728000900404503D3B8F1FF3F40F0C580E38F6F
:102738009BB22BB9B4F846309BB2002B00F0A780AF
:1027480023689A6812F0020FD1D0E28F92B2002A61
:10275800CDD0002DCBD0A26B1288DA60A36B0233E8
:10276800A363E38F013B9BB2E3870025BFE7636860
:102778000BB1012D0ED1E38F9BB2012B0CD9A26BAB
:1027880023681288DA60A36B0233A363E38F023BEA
:102798009BB2E387012547E0A26B236812781A737E
:1027A800A36B0133A363E38F013B9BB2E387F1E79C
:1027B800E28F92B2012A0BD9A26B1288DA60A36B5E
:1027C8000233A363E38F023B9BB2E38700253CE01F
:1027D800A26B12781A73A36B0133A363E38F013BD7
:1027E8009BB2E387002530E02268536843F48053A6
:1027F800536001250CE0226C1B7B1370236C0133A2
:102808002364B4F84630013B9BB2A4F84630012556
:10281800FDF71EFDA0EB0900404502D3B8F1FF3FCC
:102828004CD1B8F1000F4BD0E38F9BB21BB9B4F871
:1028380046309BB25BB323689A6812F0020F04D04B
:10284800E28F92B20AB1002DB2D123689A6812F0D1
:10285800010FDDD0B4F8462092B2002AD8D0B4F8DF
:10286800462092B2012AC6D9DA68236C1A80236CF2
:1028780002332364B4F84630023B9BB2A4F84630D6
:10288800B4F846309BB2012BAED90125C0E74A46C1
:1028980041462046FFF7F4FC034600283FF4CAAE41
:1028A800202323660123C5E60223C3E60123C1E6EC
:1028B8000123BFE60123BDE60323BBE60323B9E6F4
:1028C8000323B7E60223BBE62DE9F04182B00446B4
:1028D8000F4690461D464368B3F5827F19D094F899
:1028E8005C30012B00F0B880012384F85C30FDF7E0
:1028F800AFFC064694F85D30DBB2012B15D0022000
:10290800012384F85D30002384F85C3002B0BDE810
:10291800F0818368002BE2D1042380F85D300095B4
:1029280013460A46FFF769FEF0E7002F00F086809D
:10293800B8F1000F00F08480042384F85D30002390
:1029480023662764A4F84480A4F84680A363A38779
:10295800E387E3642365E368B3F5E06F16D922687B
:10296800536823F480535360A368B3F5004F13D022
:1029780023681A6812F0400F03D11A6842F0400227
:102988001A60E368B3F5E06F16D935E0226853683A
:1029980043F480535360E7E72268136823F48043C5
:1029A8001360E5E7FDF754FC801BA84202D3B5F19C
:1029B800FF3F47D1002D47D0B4F846309BB2002BDB
:1029C80030D023689A6812F0010FEBD0226C1B7B81
:1029D8001370236C01332364B4F84630013B9BB277
:1029E800A4F84630E8E7FDF733FC801BA84202D381
:1029F800B5F1FF3F2AD15DB3B4F846309BB28BB135
:102A080023689A6812F0010FEDD0DA68236C1A80F7
:102A1800236C02332364B4F84630013B9BB2A4F81C
:102A28004630E9E7324629462046FFF75CFC08B104
:102A380020232366236E6BB9002061E701205FE73E
:102A480001205DE703205BE7032059E7032057E7F0
:102A5800032055E7012053E7022057E7F0B583B07C
:102A68000746012280214A48FDF700FE494C012211
:102A780011462046FDF7FAFD012211464648FDF7AA
:102A8800F5FD67238DF8053002AE202306F8043DD6
:102A9800002201212046FDF7E9FD404D32230122A5
:102AA80031462846FFF7BBFC322301220DF1050110
:102AB8002846FFF7B4FC012211462046FDF7D6FD53
:102AC80064238DF8053021238DF80430002201217C
:102AD8002046FDF7CBFD3223012231462846FFF779
:102AE8009EFC322301220DF105012846FFF797FCD1
:102AF800012211462046FDF7B9FD3FB1012F43D011
:102B0800022F06D1F3238DF8053002E0C3238DF898
:102B1800053002AE232306F8043D1E4C0022012195
:102B28002046FDF7A3FD1D4D3223012231462846DC
:102B3800FFF775FC322301220DF105012846FFF746
:102B48006EFC012211462046FDF790FD002201216E
:102B58002046FDF78BFD02A98F2301F8013D3223A2
:102B680001222846FFF75BFC322301220DF1060102
:102B78002846FFF7A9FE012211462046FDF776FDFB
:102B88009DF8060003B0F0BDE3238DF80530C0E7DB
:102B9800000C004800100048000800488800002089
:102BA800F0B585B005464F4F002280213846FDF725
:102BB8005DFD04AEA82306F8093D4B4C32230122E3
:102BC80031462046FFF72BFC3223012202A920467A
:102BD800FFF77AFEA9238DF8073032230122314608
:102BE8002046FFF71CFC322301220DF10901204683
:102BF800FFF76AFEAA238DF80730322301223146F7
:102C08002046FFF70CFC322301220DF10A01204671
:102C1800FFF75AFEAB238DF80730322301223146E5
:102C28002046FFF7FCFB322301220DF10B01204661
:102C3800FFF74AFEAC238DF80730322301223146D4
:102C48002046FFF7ECFB3223012203A92046FFF7B9
:102C58003BFEAD238DF80730322301223146204652
:102C6800FFF7DDFB322301220DF10D012046FFF7AE
:102C78002BFE012280213846FDF7F8FC9DF809203B
:102C88009DF8083003EB02231BB207EE103A9DF8BB
:102C98000B209DF80A3003EB02231BB207EE903A93
:102CA8009DF80D209DF80C3003EB02231BB2B8EE03
:102CB800C77ABEEEEE7A17EE102A2A80F8EEE77A87
:102CC800FEEEEE7A17EE902A6A8007EE903AF8EE5A
:102CD800E77AFEEEEE7A17EE903AAB80002005B068
:102CE800F0BD00BF000C004888000020F0B583B09C
:102CF80007465A4C012280212046FDF7B7FC0122E5
:102D080011465748FDF7B2FC012211465548FDF718
:102D1800ADFCFF238DF8053002AD202305F8043DF6
:102D2800002280212046FDF7A1FC4F4E32230122CC
:102D380029463046FFF773FB322301220DF10501C6
:102D48003046FFF76CFB012280212046FDF78EFC00
:102D58003FB1012F7DD0022F06D121238DF80530F8
:102D680002E001238DF8053002AF232307F8043D64
:102D78003A4D002280212846FDF778FC3A4E32234E
:102D8800012239463046FFF74AFB322301220DF172
:102D980005013046FFF743FB012280212846FDF755
:102DA80065FC01248DF8054021238DF804300022AC
:102DB80080212846FDF75AFC322322463946304600
:102DC800FFF72DFB322322460DF105013046FFF7B0
:102DD80026FB224680212846FDF748FC10238DF863
:102DE800053024238DF80430002280212846FDF781
:102DF8003DFC3223224639463046FFF710FB32238A
:102E080022460DF105013046FFF709FB22468021D5
:102E18002846FDF72BFC002280212846FDF726FCDA
:102E280002A9CF2301F8013D322322463046FFF79D
:102E3800F6FA322322460DF106013046FFF744FD2B
:102E4800224680212846FDF711FC9DF8060003B0B4
:102E5800F0BD11238DF8053086E700BF000C00484F
:102E680000100048000800488800002070B584B0B1
:102E780004462B4D002280212846FDF7F7FB04A9C4
:102E8800E82301F8093D274E322301223046FFF797
:102E9800C6FA3223062202A93046FFF715FD0122A1
:102EA80080212846FDF7E2FB9DF809209DF80830AF
:102EB80003EB02231BB206EE903A9DF80B209DF817
:102EC8000A3003EB02231BB207EE103A9DF80D20DF
:102ED8009DF80C3003EB02231BB207EE903AF8EE94
:102EE800E66A9FED116A66EE866AFDEEE66A16EE00
:102EF800903A2380B8EEC77A27EE067ABDEEC77AF5
:102F080017EE103A6380F8EEE77A67EE867AFDEE00
:102F1800E77A17EE903AA380002004B070BD00BF96
:102F2800000C004888000020295C8F3D08B50F4838
:102F38000F4B03604FF4827343604FF40043836088
:102F48004FF4E063C3600023036143614FF40072F0
:102F580082613822C2610362436283620722C262CD
:102F6800036308234363FFF702FA08BD88000020C3
:102F7800003800402DE9F0478AB0002405940694F3
:102F88000794089409943D4BDA6C42F01002DA6415
:102F9800DA6C02F010020092009ADA6C42F0040235
:102FA800DA64DA6C02F004020192019ADA6C42F0F7
:102FB8000102DA64DA6C02F001020292029ADA6C17
:102FC80042F00802DA64DA6C02F008020392039A0B
:102FD800DA6C42F00202DA64DB6C03F00203049359
:102FE800049B274E224609213046FDF73FFBDFF8B8
:102FF80098A0224601215046FDF738FBDFF88C9057
:10300800224680214846FDF731FB1E4F2246082103
:103018003846FDF72BFB4FF00808CDF81480012542
:10302800069507940223089305A93046FDF734FA5C
:10303800059506950794089405A95046FDF72CFABE
:1030480080230593069507940323089305A948460A
:10305800FDF722FACDF8148006950794089405A97F
:103068003846FDF719FA059506950794089405A9B9
:103078003046FDF711FA0AB0BDE8F08700100240AB
:10308800001000480004004800080048000C0048F0
:1030980008B51148114B03600023036343604022C5
:1030A80042638363C36383600361436183610C4A42
:1030B800C261C36043628362C36208220264012260
:1030C80042648364C364036543658365C2650366BC
:1030D800FEF758FF08BD00BF14010020045401404A
:1030E80000EE020010B58AB02422002101A800F0E9
:1030F80037FA094C094B23602046FDF71FF90022D7
:1031080001920292039201230493059201A9204699
:10311800FDF726F90AB010BDF40000200074004045
:103128002DE9F041B8B02422002128A800F018FAAF
:1031380000242294239424942594269488222146BA
:10314800684600F00DFA4FF01008CDF89C80012673
:103158002D9660232F9302253195329633961423AA
:103168003493072735973695379527A8FDF776FBCB
:103178000F2322930323239324944FF480632593EE
:103188002694294622A8FDF757FE4FF400630093C2
:10319800199401960296CDF80C800497059506952A
:1031A8004FF4803307936846FEF7FEF84FF400703B
:1031B800FDF76AFA38B0BDE8F081000080B5FDF788
:1031C80025F8FFF7ADFFFFF7D5FEFFF761FFFFF723
:1031D800ADFEFFF787FF4748FFF7C9F80220FFF762
:1031E80085FD454B18600220FFF738FC434B1860FB
:1031F800434B00221A603BE0424D2846FFF736FE5B
:10320800414C2046FFF7CCFC28883D4B9A8B801A0E
:1032180000B298856988DA8B891A09B2D985AA8893
:103228001D8C521B12B21A865D6B28445863986B2A
:1032380001449963D96B0A44DA6320889A8C801A0E
:1032480000B2A3F840006188DA8C891A09B2A3F8A1
:103258004210A2881C8D121B12B2A3F844209C6C49
:1032680020449864D86C0144D964196D0A441A65DD
:10327800234B1B68632BBFDC224C2046FFF7F6FD6F
:10328800DFF884804046FFF78BFCB4F900601C4BE4
:103298005A6816445E60B4F902709A6817449F60D1
:1032A800B4F90450DA681544DD60B8F900401A69C9
:1032B80014441C61B8F902005A6910445861B8F9FD
:1032C80004109A69114499611A6801321A6096FBD0
:1032D800F2F69E8397FBF2F7DF8395FBF2F51D84E8
:1032E80094FBF2F49C8490FBF2F0D88491FBF2F208
:1032F8001A85BDE7880000200801002098010020F9
:103308002C000020A0010020EC00002082B00A4B15
:103318001A6E42F001021A661A6E02F00102009259
:10332800009A9A6D42F080529A659B6D03F0805323
:103338000193019B02B070470010024000B589B0AC
:103348000023039304930593069307930268124B93
:103358009A4202D009B05DF804FB03F5CE339A6DAA
:1033680042F000529A659A6D02F000520192019A59
:10337800DA6C42F00102DA64DB6C03F001030293B9
:10338800029B102303930323049303A94FF0904057
:10339800FDF782F8DEE700BF0074004000B589B091
:1033A8000023039304930593069307930268134B32
:1033B8009A4202D009B05DF804FB03F5EC339A6D2C
:1033C80042F480429A659A6D02F480420192019A11
:1033D800DA6C42F00802DA64DB6C03F0080302934B
:1033E800029B1223039302230493032306930523CA
:1033F800079303A90248FDF74FF8DBE700380040C0
:10340800000C00480268134B9A4200D0704700B580
:1034180087B0114B1B684BB9104A116E41F400116B
:103428001166126E02F400120092009A01330A4AE1
:10343800136074230193022302930023039303234D
:1034480004930D23059301A90548FDF725F807B056
:103458005DF804FB04540140800000200010024085
:10346800001000487047FEE7FEE7FEE7FEE77047FA
:103478007047704708B5FCF7DFFE08BD0F49D1F863
:10348800883043F47003C1F888300D4B1A6842F055
:1034980001021A60002098601A6822F0A85222F4EB
:1034A80010221A604FF48052DA601A6822F48022DF
:1034B8001A6098614FF000638B60704700ED00E080
:1034C80000100240DFF834D0002103E00C4B5B58B9
:1034D800435004310B480C4B42189A42F6D30B4A1E
:1034E80002E0002342F8043B094B9A42F9D3FFF764
:1034F800C5FF00F011F8FFF761FEFEE7008001202C
:10350800E83500080000002010000020100000200E
:10351800A8010020FEE7000070B50D4E0D4CA41B5D
:10352800A4100025A54209D10B4E0C4C00F020F840
:10353800A41BA4100025A54205D170BD56F825305E
:1035480098470135EEE756F8253098470135F2E7F8
:10355800D8350008D8350008D8350008DC3500080B
:1035680002440346934200D1704703F8011BF9E770
:10357800F8B500BFF8BC08BC9E467047F8B500BF58
:08358800F8BC08BC9E46704728
:10359000A0860100400D0300801A060000350C00D3
:1035A00040420F0080841E0000093D0000127A0096
:1035B0000024F40000366E010048E801006CDC02D3
:1035C00000000000000000000102030406070809D3
:0835D0000000000001020304E9
:0835D800AD0100080000000035
:0835E000890100080000000051
:1035E800010000001000000000093D00000000007C
:04000005080034CDEE
:00000001FF
