:020000040800F2
:1000000000800120B5490008ED480008FB480008C1
:1000100001490008074900080D49000800000000D8
:10002000000000000000000000000000134900086C
:1000300021490008000000002F4900083D49000840
:10004000054A0008054A0008054A0008054A000854
:10005000054A0008054A0008054A0008054A000844
:10006000054A0008054A0008054A0008054A000834
:10007000054A0008054A0008054A0008054A000824
:10008000054A0008054A0008054A0008054A000814
:10009000054A0008054A0008054A0008054A000804
:1000A000054A0008054A0008054A0008054A0008F4
:1000B000054A0008054A0008054A0008054A0008E4
:1000C000054A0008054A0008054A0008054A0008D4
:1000D000054A0008054A0008054A0008054A0008C4
:1000E000054A0008054A0008054A0008054A0008B4
:1000F000054A0008054A0008054A0008054A0008A4
:10010000054A0008054A0008054A0008054A000893
:10011000054A0008054A0008054A0008054A000883
:10012000054A0008054A0008054A0008054A000873
:10013000054A0008054A0008054A0008054A000863
:10014000054A0008054A0008054A0008054A000853
:10015000054A0008054A0008054A0008054A000843
:10016000054A0008054A0008054A0008054A000833
:10017000054A0008054A0008054A0008000000007A
:08018000054A0008054A0008C9
:1001880010B5054C237833B9044B13B10448AFF3C9
:1001980000800123237010BD100000200000000023
:1001A800604A000808B5034B1BB103490348AFF385
:1001B800008008BD0000000014000020604A00080C
:1001C80080B582B000AF0023FB710C4B1B680B4A53
:1001D80043F480731360032000F03EF9002000F020
:1001E8000FF80346002B02D00123FB7101E004F055
:1001F80099FAFB7918460837BD4680BD00200240B1
:1002080080B584B000AF78600023FB73164B1B6881
:10021800002B22D0154B1A68134B1B684FF47A71C8
:10022800B1FBF3F3B2FBF3F3184600F03CF90346D5
:10023800002B0FD17B680F2B09D8002279684FF06B
:10024800FF3000F014F90A4A7B68136007E00123C5
:10025800FB7304E00123FB7301E00123FB73FB7BC9
:1002680018461037BD4680BD040000200800002055
:100278000000002080B400AF054B1A68054B1B68CE
:100288001344034A136000BFBD465DF8047B704702
:10029800840000200400002080B400AF034B1B68DA
:1002A8001846BD465DF8047B704700BF84000020F7
:1002B80080B584B000AF7860FFF7EEFFB8607B6868
:1002C800FB60FB68B3F1FF3F04D0094B1B68FA6879
:1002D8001344FB6000BFFFF7DFFF0246BB68D31A79
:1002E800FA689A42F7D800BF1037BD4680BD00BFF4
:1002F8000400002080B485B000AF78607B6803F00C
:100308000703FB600C4BDB68BB60BA684FF6FF0362
:100318001340BB60FB681A02BB68134343F0BF631A
:1003280043F40033BB60044ABB68D36000BF143792
:10033800BD465DF8047B704700ED00E080B400AF77
:10034800044BDB681B0A03F007031846BD465DF83B
:10035800047B704700ED00E080B483B000AF034633
:100368003960FB7197F90730002B0ADB3B68DAB27A
:100378000C4997F907301201D2B20B4483F80023D5
:100388000AE03B68DAB20849FB7903F00F03043B43
:100398001201D2B20B441A7600BF0C37BD465DF885
:1003A800047B704700E100E000ED00E080B489B014
:1003B80000AFF860B9607A60FB6803F00703FB617F
:1003C800FB69C3F10703042B28BF0423BB61FB6946
:1003D8000433062B02D9FB69033B00E000237B6151
:1003E8004FF0FF32BB6902FA03F3DA43BB681A40E5
:1003F8007B699A404FF0FF317B6901FA03F3D943D7
:100408007B680B40134318462437BD465DF8047BD0
:100418007047000080B582B000AF78607B68013B10
:10042800B3F1807F01D301230FE00A4A7B68013BC7
:1004380053600F214FF0FF30FFF78EFF054B00226E
:100448009A60044B07221A60002318460837BD46F5
:1004580080BD00BF10E000E080B582B000AF7860DA
:100468007868FFF747FF00BF0837BD4680BD80B5F5
:1004780086B000AF0346B9607A60FB7300237B61E6
:10048800FFF75CFF78617A68B9687869FFF78EFFD3
:10049800024697F90F3011461846FFF75DFF00BF77
:1004A8001837BD4680BD80B582B000AF78607868E7
:1004B800FFF7B0FF034618460837BD4680BD80B534
:1004C80082B000AF78607B68002B01D1012314E073
:1004D8007B681B79DBB2002B05D17B6800225A713F
:1004E800786804F043F97B6802221A717B6800225D
:1004F8001A617B6801221A71002318460837BD4625
:1005080080BD80B588B000AFF860B9607A6000231C
:10051800FB61FB685B79012B01D1022307E1FB68D2
:1005280001225A71FB6802221A71BB681B68042BEE
:1005380074D17B68002B37D1FFF7AEFEF86111E06C
:10054800FFF7AAFE0246FB69D31A012B0AD9FB68FA
:100558001B6943F00802FB681A61FB6803221A71E1
:100568000323E4E0FB681B685B6B03F40043002B88
:10057800E6D10120FFF79CFEFB681B68BA68926908
:100588001A641EE0FFF788FE0246FB69D31A012BA6
:100598000AD9FB681B6943F00802FB681A61FB680B
:1005A80003221A710323C2E0FB681B685B6B002BF4
:1005B800E8DB0120FFF77CFEFB681B68BA689269DC
:1005C8005A64FB681B689A6C7B6803F0100340F25E
:1005D800FF3101FA03F3DB4302EA0301BB68DA697E
:1005E8007B6803F010039A40FB681B680A439A640F
:1005F800FB681B68DA6C7B6803F01003FF2101FAC3
:1006080003F3DB4302EA0301BB681A6A7B6803F061
:1006180010039A40FB681B680A43DA64BB681B69CD
:10062800012B1DD1FB681B689B6BBB617B6803F0CA
:1006380010031F2202FA03F3DB43BA691340BB61BC
:10064800BB685B697B617B6803F010037A6902FA17
:1006580003F3BA691343BB61FB681B68BA699A6301
:10066800FB681B68DB6BBB617B6803F01003072228
:1006780002FA03F3DB43BA691340BB61BB681A682B
:10068800BB689B681A43BB68DB6813437B617B6864
:1006980003F010037A6902FA03F3BA691343BB61E2
:1006A800FB681B68BA69DA63FB681B6819687B68B2
:1006B80003F010034FF4804202FA03F3DA43FB68B5
:1006C8001B680A401A60FB681B681B68BB617B6873
:1006D80003F0100340F6FC7202FA03F3DB43BA6935
:1006E8001340BB61BB685B687B617B6803F01003E8
:1006F8007A6902FA03F3BA691343BB61FB681B68A2
:10070800BA691A60FB681B6819687B6803F01003F4
:10071800C02202FA03F3DA43FB681B680A401A6036
:10072800FB6801221A71FB6800225A7100231846DF
:100738002037BD4680BD000080B487B000AF786028
:10074800396000237B617FE13B681A6801217B697E
:1007580001FA03F31340FB60FB68002B00F0718182
:100768003B685B68022B03D03B685B68122B23D184
:100778007B69DA087B68083253F822303B617B6971
:1007880003F007039B000F2202FA03F3DB433A69E5
:1007980013403B613B681A697B6903F007039B00C0
:1007A80002FA03F33A6913433B617B69DA087B6811
:1007B8000832396943F822107B681B683B617B6902
:1007C8005B00032202FA03F3DB433A6913403B61FF
:1007D8003B685B6803F003027B695B0002FA03F382
:1007E8003A6913433B617B683A691A603B685B6806
:1007F800012B0BD03B685B68022B07D03B685B681A
:10080800112B03D03B685B68122B30D17B689B6847
:100818003B617B695B00032202FA03F3DB433A691D
:1008280013403B613B68DA687B695B0002FA03F3BB
:100838003A6913433B617B683A699A607B685B68F5
:100848003B6101227B6902FA03F3DB433A691340F7
:100858003B613B685B681B0903F001027B6902FA94
:1008680003F33A6913433B617B683A695A603B6812
:100878005B6803F00303032B18D17B68DB6A3B61D9
:1008880001227B6902FA03F3DB433A6913403B61B7
:100898003B685B68DB0803F001027B6902FA03F33B
:1008A8003A6913433B617B683A69DA627B68DB68C3
:1008B8003B617B695B00032202FA03F3DB433A697D
:1008C80013403B613B689A687B695B0002FA03F35B
:1008D8003A6913433B617B683A69DA603B685B6855
:1008E80003F08053002B00F0AC805E4B1B6E5D4A1A
:1008F80043F0010313665B4B1B6E03F00103BB60FF
:10090800BB68594A7B699B08023352F823303B6124
:100918007B6903F003039B000F2202FA03F3DB4316
:100928003A6913403B617B68B3F1904F25D07B68EF
:100938004E4A93421FD07B684D4A934219D07B6838
:100948004C4A934213D07B684B4A93420DD07B6844
:100958004A4A934207D07B68494A934201D1062309
:100968000CE007230AE0052308E0042306E003233C
:1009780004E0022302E0012300E000237A6902F088
:100988000302920093403A6913433B6136497B69FD
:100998009B0802333A6941F823203A4B1B683B61B4
:1009A800FB68DB433A6913403B613B685B6803F4CF
:1009B8008033002B03D03A69FB6813433B61314A0B
:1009C8003B6913602F4B5B683B61FB68DB433A690B
:1009D80013403B613B685B6803F40033002B03D092
:1009E8003A69FB6813433B61264A3B695360254BD0
:1009F8009B683B61FB68DB433A6913403B613B689A
:100A08005B6803F48013002B03D03A69FB68134337
:100A18003B611C4A3B6993601A4BDB683B61FB688E
:100A2800DB433A6913403B613B685B6803F400139E
:100A3800002B03D03A69FB6813433B61114A3B69B9
:100A4800D3607B6901337B613B681A687B6922FA52
:100A580003F3002B7FF478AE00BF1C37BD465DF86A
:100A6800047B704700100240000001400004004869
:100A780000080048000C0048001000480014004816
:100A8800001800480004014080B483B000AF7860CB
:100A98000B467B8013467B707B78002B03D07A88CB
:100AA8007B689A6102E07A887B689A6200BF0C379B
:100AB800BD465DF8047B704780B400AF044B1B68EB
:100AC80003F4C0631846BD465DF8047B704700BF59
:100AD8000070004080B485B000AF78607B68B3F5E3
:100AE800007F30D1234B1B6803F4C063B3F5007F4C
:100AF80038D0204B1B6823F4C0631E4A43F40073AC
:100B080013601D4B1B68322202FB03F31B4AA2FB36
:100B180003239B0C0133FB6002E0FB68013BFB6095
:100B2800144B5B6903F48063B3F5806F02D1FB68F3
:100B3800002BF2D10F4B5B6903F48063B3F5806F30
:100B480010D103230FE00B4B1B6803F4C063B3F50C
:100B5800806F07D0074B1B6823F4C063054A43F432
:100B680080631360002318461437BD465DF8047B84
:100B7800704700BF007000400800002083DE1B4360
:100B880080B588B000AF78607B68002B01D1012365
:100B98009DE3A44B9B6803F00C03BB61A14BDB688E
:100BA80003F003037B617B681B6803F01003002BD1
:100BB80000F0E180BB69002B07D0BB690C2B40F02B
:100BC80088807B69012B40F08480964B1B6803F07A
:100BD8000203002B05D07B689B69002B01D1012300
:100BE80075E37B681A6A8F4B1B6803F00803002BB8
:100BF80004D08C4B1B6803F0F00305E0894BD3F855
:100C080094301B0903F0F003934223D27B681B6ADC
:100C1800184600F009FD0346002B01D0012356E3D6
:100C2800804B1B687F4A43F0080313607D4B1B68A9
:100C380023F0F0027B681B6A7A4913430B60794BF7
:100C48005B6823F47F427B68DB691B0275491343A9
:100C58004B6022E0734B1B68724A43F00803136031
:100C6800704B1B6823F0F0027B681B6A6D491343C5
:100C78000B606C4B5B6823F47F427B68DB691B026B
:100C8800684913434B607B681B6A184600F0CCFC2C
:100C98000346002B01D0012319E300F003FC0146B1
:100CA800604B9B681B0903F00F035F4AD35C03F09A
:100CB8001F0321FA03F35D4A13605D4B1B68184656
:100CC800FFF79EFA0346FB73FB7B002B52D0FB7B9E
:100CD800FDE27B689B69002B32D0524B1B68514A5E
:100CE80043F001031360FFF7D7FA386108E0FFF714
:100CF800D3FA02463B69D31A022B01D90323E6E251
:100D0800484B1B6803F00203002BF0D0454B1B68CF
:100D1800444A43F008031360424B1B6823F0F00277
:100D28007B681B6A3F4913430B603E4B5B6823F4A7
:100D38007F427B68DB691B023A4913434B601AE028
:100D4800384B1B68374A23F001031360FFF7A4FAF6
:100D5800386108E0FFF7A0FA02463B69D31A022B74
:100D680001D90323B3E22F4B1B6803F00203002BC6
:100D7800F0D100E000BF7B681B6803F00103002B83
:100D880074D0BB69082B05D0BB690C2B0ED17B69CD
:100D9800032B0BD1234B1B6803F40033002B64D0C7
:100DA8007B685B68002B60D1012390E27B685B68FD
:100DB800B3F5803F06D11B4B1B681A4A43F48033B6
:100DC80013601DE07B685B68B3F5A02F0CD1154B51
:100DD8001B68144A43F480231360124B1B68114AA2
:100DE80043F4803313600BE00E4B1B680D4A23F469
:100DF800803313600B4B1B680A4A23F4802313606B
:100E08007B685B68002B1CD0FFF746FA386111E05D
:100E1800FFF742FA02463B69D31A642B0AD9032327
:100E280055E200BF00100240784A00080800002080
:100E380000000020AE4B1B6803F40033002BE7D002
:100E480014E0FFF729FA386108E0FFF725FA0246AF
:100E58003B69D31A642B01D9032338E2A44B1B68DE
:100E680003F40033002BF0D100E000BF7B681B685F
:100E780003F00203002B60D0BB69042B05D0BB69CB
:100E88000C2B19D17B69022B16D1994B1B6803F4E3
:100E98008063002B05D07B68DB68002B01D1012320
:100EA80015E2934B5B6823F0F8527B681B691B06BD
:100EB8008F4913434B6040E07B68DB68002B23D0ED
:100EC8008B4B1B688A4A43F480731360FFF7E4F97D
:100ED800386108E0FFF7E0F902463B69D31A022BB4
:100EE80001D90323F3E1824B1B6803F48063002BD1
:100EF800F0D07F4B5B6823F0F8527B681B691B06B8
:100F08007B4913434B6018E0794B1B68784A23F4FC
:100F180080731360FFF7C0F9386108E0FFF7BCF988
:100F280002463B69D31A022B01D90323CFE1704B48
:100F38001B6803F48063002BF0D17B681B6803F007
:100F48000803002B3CD07B685B69002B1CD0684BE6
:100F5800D3F89430664A43F00103C2F89430FFF79F
:100F68009BF9386108E0FFF797F902463B69D31A05
:100F7800022B01D90323AAE15D4BD3F8943003F087
:100F88000203002BEFD01BE0594BD3F89430584A9A
:100F980023F00103C2F89430FFF77EF9386108E0C6
:100FA800FFF77AF902463B69D31A022B01D90323CA
:100FB8008DE14F4BD3F8943003F00203002BEFD1AF
:100FC8007B681B6803F00403002B00F0A580002356
:100FD800FB77474B9B6D03F08053002B0DD1444B9F
:100FE8009B6D434A43F080539365414B9B6D03F0DF
:100FF8008053BB60BB680123FB773E4B1B6803F43F
:101008008073002B18D13B4B1B683A4A43F480731A
:101018001360FFF741F9386108E0FFF73DF9024630
:101028003B69D31A022B01D9032350E1314B1B68CA
:1010380003F48073002BF0D07B689B68012B08D1E8
:101048002B4BD3F890302A4A43F00103C2F8903072
:1010580024E07B689B68052B10D1254BD3F8903092
:10106800234A43F00403C2F89030214BD3F8903060
:101078001F4A43F00103C2F890300FE01C4BD3F82D
:1010880090301B4A23F00103C2F89030184BD3F874
:101098009030174A23F00403C2F890307B689B68AD
:1010A800002B16D0FFF7F8F838610AE0FFF7F4F8DC
:1010B80002463B69D31A41F28832934201D903238D
:1010C80005E10B4BD3F8903003F00203002BEDD071
:1010D80019E0FFF7E1F838610EE0FFF7DDF80246A6
:1010E8003B69D31A41F28832934205D90323EEE0D3
:1010F8000010024000700040774BD3F8903003F0A6
:101108000203002BE9D1FB7F012B05D1724B9B6DAC
:10111800714A23F0805393657B689B6A002B00F02B
:10112800D580BB690C2B00F08E807B689B6A022BF4
:101138005BD1694B1B68684A23F080731360FFF723
:10114800ABF8386108E0FFF7A7F802463B69D31A05
:10115800022B01D90323BAE05F4B1B6803F000732D
:10116800002BF0D15C4BDA685C4B13407A68D16A8B
:101178007A68126B013A120111437A68526B1202B3
:1011880011437A68D26B5208013A520511437A68C2
:10119800126C5208013A520611437A68926B12098E
:1011A80052040A434C491343CB604B4B1B684A4AD1
:1011B80043F080731360484BDB68474A43F0807301
:1011C800D360FFF769F8386108E0FFF765F8024671
:1011D8003B69D31A022B01D9032378E03E4B1B68E5
:1011E80003F00073002BF0D070E03B4B1B683A4AC9
:1011F80023F080731360384B1B6803F02053002BD7
:1012080005D1354BDB68344A23F00303D360324BF6
:10121800DB68314A23F0887323F48033D360FFF707
:101228003BF8386108E0FFF737F802463B69D31A04
:10123800022B01D903234AE0274B1B6803F00073F4
:10124800002BF0D142E07B689B6A012B01D101237E
:101258003DE0214BDB687B617B6903F003027B681F
:10126800DB6A9A4230D17B6903F070027B681B6BA2
:10127800013B1B019A4227D17B6903F4FE427B683C
:101288005B6B1B029A421FD17B6903F400337A68B7
:10129800926B072A14BF01220022D2B2934213D1C3
:1012A8007B6903F4C0027B68DB6B5B08013B5B0571
:1012B8009A4209D17B6903F0C0627B681B6C5B08AA
:1012C800013B5B069A4201D0012300E00023184647
:1012D8002037BD4680BD00BF001002408C809DF9BC
:1012E80080B584B000AF786039607B68002B01D18D
:1012F8000123C8E0664B1B6803F007033A689A426B
:1013080010D9634B1B6823F0070261493B681343FC
:101318000B605F4B1B6803F007033A689A4201D0E1
:101328000123B0E07B681B6803F00103002B4CD05D
:101338007B685B68032B07D1564B1B6803F000736F
:10134800002B21D101239EE07B685B68022B07D12B
:10135800504B1B6803F40033002B15D1012392E096
:101368007B685B68002B07D14A4B1B6803F00203BC
:10137800002B09D1012386E0464B1B6803F48063E8
:10138800002B01D101237EE0424B9B6823F003022E
:101398007B685B683F4913438B60FEF77DFFF8600D
:1013A8000AE0FEF779FF0246FB68D31A41F2883259
:1013B800934201D9032366E0364B9B6803F00C0285
:1013C8007B685B689B009A42EBD17B681B6803F0E3
:1013D8000203002B08D02F4B9B6823F0F0027B6898
:1013E8009B682C4913438B60294B1B6803F0070348
:1013F8003A689A4210D2264B1B6823F00702244908
:101408003B6813430B60224B1B6803F007033A68E1
:101418009A4201D0012336E07B681B6803F004037D
:10142800002B08D01B4B9B6823F4E0627B68DB68C9
:10143800184913438B607B681B6803F00803002B73
:1014480009D0144B9B6823F460527B681B69DB004E
:10145800104913438B6000F025F801460D4B9B683B
:101468001B0903F00F030C4AD35C03F01F0321FA96
:1014780003F30A4A13600A4B1B681846FEF7C0FEBE
:101488000346FB72FB7A18461037BD4680BD00BF85
:101498000020024000100240784A0008080000209E
:1014A8000000002080B489B000AF0023FB61002356
:1014B800BB613D4B9B6803F00C033B613A4BDB6817
:1014C80003F00303FB603B69002B05D03B690C2B41
:1014D80021D1FB68012B1ED1334B1B6803F0080395
:1014E800002B07D1304BD3F894301B0A03F00F03BD
:1014F800FB6105E02C4B1B681B0903F00F03FB6124
:101508002A4AFB6952F82330FB613B69002B0DD155
:10151800FB69BB610AE03B69042B02D1244BBB6128
:1015280004E03B69082B01D1224BBB613B690C2BC2
:1015380033D11D4BDB6803F00303BB60BB68022B90
:1015480002D0032B03D005E0194B7B6105E0194B52
:101558007B6102E0FB697B6100BF134BDB681B0901
:1015680003F0070301337B600F4BDB681B0A03F0B2
:101578007F037A6902FB03F27B68B2FBF3F37B61BA
:10158800094BDB685B0E03F0030301335B003B6030
:101598007A693B68B2FBF3F3BB61BB691846243731
:1015A800BD465DF8047B704700100240904A000871
:1015B8000024F40000127A0080B400AF034B1B68CB
:1015C8001846BD465DF8047B704700BF0800002040
:1015D80080B500AFFFF7F0FF0146064B9B681B0A7A
:1015E80003F00703044AD35C03F01F0321FA03F353
:1015F800184680BD00100240884A000880B500AF38
:10160800FFF7DAFF0146064B9B68DB0A03F0070386
:10161800044AD35C03F01F0321FA03F3184680BD84
:1016280000100240884A000880B586B000AF786094
:1016380000233B612A4B9B6D03F08053002B03D0A2
:10164800FFF73AFA786114E0254B9B6D244A43F082
:1016580080539365224B9B6D03F08053FB60FB68BE
:10166800FFF72AFA78611E4B9B6D1D4A23F08053C1
:1016780093657B69B3F5007F0BD17B68802B19D903
:101688007B68A02B02D902233B6113E001233B6155
:1016980010E07B68802B02D903233B610AE07B685A
:1016A800802B02D102233B6104E07B68702B01D1BF
:1016B80001233B610B4B1B6823F0070209493B6977
:1016C80013430B60074B1B6803F007033A699A4200
:1016D80001D0012300E0002318461837BD4680BD1D
:1016E800001002400020024080B586B000AF78604C
:1016F8000023FB740023BB747B681B6803F400633E
:10170800002B3FD07B685B6EB3F5800F1CD0B3F520
:10171800800F02D8002B0ED01FE0B3F5000F03D0C6
:10172800B3F5400F1CD018E0854BDB68844A43F4BE
:101738008033D36015E07B6804330021184600F03D
:1017480031FF0346FB740CE07B6820330021184608
:1017580001F018F80346FB7403E00123FB7400E072
:1017680000BFFB7C002B0BD1754BD3F8883023F4DA
:1017780040027B685B6E72491343C1F8883001E010
:10178800FB7CBB747B681B6803F48053002B3FD041
:101798007B689B6EB3F1807F1CD0B3F1807F02D849
:1017A800002B0ED01FE0B3F1007F03D0B3F1407FD0
:1017B8001CD018E0624BDB68614A43F48033D36085
:1017C80015E07B6804330021184600F0EBFE034661
:1017D800FB740CE07B6820330021184600F0D2FF30
:1017E8000346FB7403E00123FB7400E000BFFB7CAD
:1017F800002B0BD1524BD3F8883023F040727B6812
:101808009B6E4F491343C1F8883001E0FB7CBB74E1
:101818007B681B6803F40033002B00F0A0800023D2
:101828007B74474B9B6D03F08053002B01D1012340
:1018380000E00023002B0DD0414B9B6D404A43F044
:10184800805393653E4B9B6D03F08053BB60BB6830
:1018580001237B743B4B1B683A4A43F48073136043
:10186800FEF71AFDF86009E0FEF716FD0246FB6870
:10187800D31A022B02D90323FB7405E0314B1B68F2
:1018880003F48073002BEFD0FB7C002B5CD12C4B36
:10189800D3F8903003F440737B617B69002B1FD031
:1018A8007B68D3F884307A699A4219D0244BD3F8EC
:1018B800903023F440737B61214BD3F89030204A59
:1018C80043F48033C2F890301D4BD3F890301C4A53
:1018D80023F48033C2F89030194A7B69C2F89030FB
:1018E8007B6903F00103002B16D0FEF7D5FCF860E6
:1018F8000BE0FEF7D1FC0246FB68D31A41F28832AE
:10190800934202D90323FB7406E00D4BD3F89030C1
:1019180003F00203002BECD0FB7C002B0CD1084B0E
:10192800D3F8903023F440727B68D3F884300449AC
:101938001343C1F8903009E0FB7CBB7406E000BF9C
:101948000010024000700040FB7CBB747B7C012BC4
:1019580005D19E4B9B6D9D4A23F0805393657B6810
:101968001B6803F00103002B0AD0984BD3F888308A
:1019780023F003027B689B6B94491343C1F88830BA
:101988007B681B6803F00203002B0AD08F4BD3F847
:10199800883023F00C027B68DB6B8C491343C1F859
:1019A80088307B681B6803F00403002B0AD0874B40
:1019B800D3F8883023F030027B681B6C83491343CB
:1019C800C1F888307B681B6803F00803002B0AD035
:1019D8007E4BD3F8883023F0C0027B685B6C7B4970
:1019E8001343C1F888307B681B6803F01003002B91
:1019F8000AD0764BD3F8883023F440727B689B6C0E
:101A080072491343C1F888307B681B6803F02003D0
:101A1800002B0AD06D4BD3F8883023F440627B68E2
:101A2800DB6C6A491343C1F888307B681B6803F490
:101A38000073002B0AD0654BD3F8883023F440227A
:101A48007B68DB6D61491343C1F888307B681B688C
:101A580003F48063002B0AD05C4BD3F8883023F45E
:101A680040127B681B6E59491343C1F888307B6864
:101A78001B6803F04003002B0AD0544BD3F888307E
:101A880023F440527B681B6D50491343C1F88830DA
:101A98007B681B6803F08003002B0AD04B4BD3F8FC
:101AA800883023F440427B685B6D48491343C1F892
:101AB80088307B681B6803F48073002B0AD0434B83
:101AC800D3F8883023F440327B689B6D3F49134339
:101AD800C1F888307B681B6803F40053002B28D0BA
:101AE8003A4BD3F8883023F040627B68DB6E374985
:101AF8001343C1F888307B68DB6EB3F1006F06D101
:101B0800324BDB68314A43F48013D36011E07B68C1
:101B1800DB6EB3F1806F0CD17B680433012118466A
:101B280000F040FD0346FB74FB7C002B01D0FB7CDE
:101B3800BB747B681B6803F40023002B28D0234B5D
:101B4800D3F8883023F040627B681B6F1F4913432A
:101B5800C1F888307B681B6FB3F1006F06D11B4B4F
:101B6800DB681A4A43F48013D36011E07B681B6F6B
:101B7800B3F1806F0CD17B6804330121184600F063
:101B880011FD0346FB74FB7C002B01D0FB7CBB746E
:101B98007B681B6803F48023002B2BD00B4BD3F8F6
:101BA800883023F040627B685B6F08491343C1F8B3
:101BB80088307B685B6FB3F1006F09D1034BDB683A
:101BC800024A43F48013D36014E000BF00100240BF
:101BD8007B685B6FB3F1806F0CD17B6804330121A4
:101BE800184600F0DFFC0346FB74FB7C002B01D099
:101BF800FB7CBB747B681B6803F48043002B2FD0ED
:101C08002B4BD3F8883023F040527B689B6F2849D0
:101C18001343C1F888307B689B6FB3F1805F0DD1A7
:101C28007B6804330221184600F0BCFC0346FB74B1
:101C3800FB7C002B14D0FB7CBB7411E07B689B6F92
:101C4800B3F1005F0CD17B6820330221184600F005
:101C580099FD0346FB74FB7C002B01D0FB7CBB7415
:101C68007B681B6803F40043002B0AD0104BD3F8A1
:101C7800883023F080427B68DB6F0D491343C1F83D
:101C880088307B681B6803F48033002B0BD0084B2B
:101C9800D3F8883023F000427B68D3F880300449B9
:101CA8001343C1F88830BB7C18461837BD4680BD41
:101CB8000010024080B588B000AF78600023FB6157
:101CC8007B68B3F5003F37D1B84BD3F8903003F4B5
:101CD80040733B613B69B3F5007F14D0B3F5407F97
:101CE8001ED0B3F5807F01D000F053BCAF4BD3F8C2
:101CF800903003F00203022B40F046844FF4004377
:101D0800FB6100F041BCA94BD3F8943003F0020307
:101D1800022B40F03B844FF4FA43FB6100F036BCE1
:101D2800A24B1B6803F40033B3F5003F40F0308446
:101D38009F4BFB6100F02CBC9C4BDB6803F003035A
:101D48007B617B69022B23D0032B2ED0012B39D149
:101D5800964B1B6803F00203022B16D1934B1B68AA
:101D680003F00803002B05D0904B1B681B0903F0F8
:101D78000F0305E08D4BD3F894301B0A03F00F03D3
:101D88008C4A52F82330BB611FE00023BB611CE082
:101D9800864B1B6803F48063B3F5806F02D1864BD2
:101DA800BB6112E00023BB610FE0804B1B6803F4AA
:101DB8000033B3F5003F02D1804BBB6105E000233F
:101DC800BB6102E00023BB6100BF7B68B3F5007F05
:101DD80000F03783B3F5007F25D8102B00F0DF81A2
:101DE800102B0FD8022B00F02881022B03D8012BCF
:101DF80000F0EC80CDE3042B00F06981082B00F0A3
:101E08009A81C6E3402B00F0B382402B03D8202BE5
:101E180000F0FD81BDE3802B00F0CD82B3F5807F1B
:101E280000F0EC82B5E3B3F5804F00F02D82B3F5F6
:101E3800804F11D8B3F5006F21D0B3F5006F04D8E7
:101E4800B3F5806F00F03E83A3E3B3F5805F1DD048
:101E5800B3F5005F21D09CE3B3F5803F00F07782B3
:101E6800B3F5803F04D8B3F5004F00F0718390E3D9
:101E7800B3F5802F11D0B3F5002F0ED089E3B969DF
:101E88004FF4006000F058FDF86182E3B9694FF43F
:101E9800805000F051FDF8617BE3444BD3F8883063
:101EA80003F040633B613B69B3F1006F23D0B3F1AA
:101EB800406F03D0B3F1806F4AD086E03B4B1B687C
:101EC80003F00203022B7BD1384B1B6803F0080395
:101ED800002B05D0354B1B681B0903F00F0305E0E9
:101EE800324BD3F894301B0A03F00F03314A52F8EF
:101EF8002330FB6164E02D4B1B6803F00073B3F1E2
:101F0800007F5FD1294BDB6803F48013B3F5801F92
:101F180058D1264BDB681B0A03F07F03FB60BB69C3
:101F2800FA6802FB03F2214BDB681B0903F0070385
:101F38000133B2FBF3F3BB611C4BDB685B0D03F0B1
:101F4800030301335B00BA69B2FBF3F3FB6139E0C9
:101F5800164B1B6803F00063B3F1006F34D1134BC9
:101F68001B6903F48013B3F5801F2DD10F4B1B6938
:101F78001B0A03F07F03FB60BB69FA6802FB03F2EC
:101F88000A4BDB681B0903F007030133B2FBF3F3C9
:101F9800BB61064B1B695B0D03F0030301335B0058
:101FA800BA69B2FBF3F3FB610EE000BF0010024018
:101FB80090D00300904A00080024F40000127A0030
:101FC80000BFE6E200BFE4E200BFE2E2AC4BD3F8B8
:101FD800883003F003033B613B69032B27D801A238
:101FE80052F823F0FD1F0008052000080D20000806
:101FF80021200008FFF702FBF8611DE0FFF752FA05
:10200800F86119E09E4B1B6803F48063B3F5806F99
:102018000FD19C4BFB610CE0994BD3F8903003F047
:102028000203022B07D14FF40043FB6103E000BF1A
:10203800AFE200BFADE200BFABE2914BD3F888300E
:1020480003F00C033B613B690C2B3AD801A252F810
:1020580023F000BF91200008CB200008CB20000807
:10206800CB20000899200008CB200008CB200008CE
:10207800CB200008A1200008CB200008CB200008B6
:10208800CB200008B5200008FFF7A2FAF8611DE090
:10209800FFF708FAF86119E0794B1B6803F48063CD
:1020A800B3F5806F0FD1774BFB610CE0744BD3F81D
:1020B800903003F00203022B07D14FF40043FB6179
:1020C80003E000BF65E200BF63E200BF61E26C4B62
:1020D800D3F8883003F030033B613B69102B0DD0F7
:1020E800102B02D8002B05D024E0202B0AD0302B4F
:1020F80012D01FE0FFF76CFAF8611BE0FFF7D2F986
:10210800F86117E05E4B1B6803F48063B3F5806FDA
:102118000DD15C4BFB610AE0594BD3F8903003F0CA
:102128000203022B05D14FF40043FB6101E000BF1D
:102138002FE200BF2DE2524BD3F8883003F0C003E2
:102148003B613B69402B0DD0402B02D8002B05D0BA
:1021580024E0802B0AD0C02B12D01FE0FFF738FAFA
:10216800F8611BE0FFF79EF9F86117E0444B1B6824
:1021780003F48063B3F5806F0DD1424BFB610AE035
:102188003F4BD3F8903003F00203022B05D14FF4F4
:102198000043FB6101E000BFFBE100BFF9E1384B00
:1021A800D3F8883003F440733B613B69B3F5807F13
:1021B80010D0B3F5807F02D8002B07D026E0B3F506
:1021C800007F0BD0B3F5407F12D01FE0FFF700FA75
:1021D800F8611BE0FFF766F9F86117E0284B1B6808
:1021E80003F48063B3F5806F0DD1264BFB610AE0E1
:1021F800234BD3F8903003F00203022B05D14FF4A0
:102208000043FB6101E000BFC3E100BFC1E11C4B1B
:10221800D3F8883003F440633B613B69B3F5806FC2
:1022280010D0B3F5806F02D8002B07D026E0B3F5A5
:10223800006F0BD0B3F5406F12D01FE0FFF7C8F95D
:10224800F8611BE0FFF72EF9F86117E00C4B1B68EB
:1022580003F48063B3F5806F0DD10A4BFB610AE08C
:10226800074BD3F8903003F00203022B05D14FF44B
:102278000043FB6101E000BF8BE100BF89E100BFC3
:10228800001002400024F400AE4BD3F8883003F06D
:1022980040533B613B69B3F1005F2FD0B3F1405F1E
:1022A80003D0B3F1805F04D050E0FFF7FBF8F8618A
:1022B8004CE0A44B1B6903F08073002B43D0A14B67
:1022C8001B691B0A03F07F03FB60BB69FA6802FB0A
:1022D80003F29C4BDB681B0903F007030133B2FBD5
:1022E800F3F3BB61974B1B695B0E03F003030133E8
:1022F8005B00BA69B2FBF3F3FB6124E0914B5B69C5
:1023080003F08073002B20D08E4B5B691B0A03F00F
:102318007F03FB60BB69FA6802FB03F2894BDB6849
:102328001B0903F007030133B2FBF3F3BB61854BD1
:102338005B695B0E03F0030301335B00BA69B2FB10
:10234800F3F3FB6101E000BF23E100BF21E17D4B16
:10235800D3F8883003F000433B613B69002B03D17D
:10236800FFF74CF9F86114E1FFF79CF8F86110E108
:10237800744BD3F8883003F440533B613B69B3F5A1
:10238800805F09D0B3F5005F0AD0002B00D011E0C0
:10239800FFF71EF9F8610DE0FFF784F8F86109E02E
:1023A800684B1B6803F48063B3F5806F01D1664BFB
:1023B800FB6100BFEDE0634BD3F8883003F4404382
:1023C8003B613B69B3F5804F09D0B3F5004F0AD0A4
:1023D800002B00D011E0FFF7FBF8F8610DE0FFF7E4
:1023E80061F8F86109E0574B1B6803F48063B3F5A3
:1023F800806F01D1544BFB6100BFCAE0514BD3F849
:10240800883003F440333B613B69B3F5803F09D022
:10241800B3F5003F0AD0002B00D011E0FFF7D8F841
:10242800F8610DE0FFF73EF8F86109E0454B1B68DD
:1024380003F48063B3F5806F01D1434BFB6100BFA8
:10244800A7E0404BD3F8883003F440233B613B6955
:10245800B3F5802F10D0B3F5802F02D8002B07D00A
:102468002FE0B3F5002F12D0B3F5402F19D028E094
:10247800FFF7AEF8F86124E0324BD3F8943003F05C
:102488000203022B18D14FF4FA43FB6114E02D4BE1
:102498001B6803F48063B3F5806F0FD12A4BFB618F
:1024A8000CE0284BD3F8903003F00203022B07D13D
:1024B8004FF40043FB6103E000BF6AE000BF68E03F
:1024C80000BF66E01F4BD3F8883003F440133B612C
:1024D8003B69B3F5801F10D0B3F5801F02D8002BDD
:1024E80007D034E0B3F5001F12D0B3F5401F19D060
:1024F8002DE0FFF76DF8F86129E0124BD3F894301E
:1025080003F00203022B18D14FF4FA43FB6114E0E5
:102518000C4B1B6803F48063B3F5806F0FD10A4B33
:10252800FB610CE0074BD3F8903003F00203022B59
:102538000CD14FF40043FB6108E000BF29E000BF65
:1025480027E000BF001002400024F40000BF20E094
:10255800124BD3F8883003F080433B613B69002B72
:1025680003D0B3F1804F04D00DE0FFF731F8F861E4
:1025780009E00A4B1B6803F48063B3F5806F01D14F
:10258800074BFB6100BF04E000BF02E000BF00E0B2
:1025980000BFFB6918462037BD4680BD00100240C9
:1025A8000024F40080B584B000AF7860396000235F
:1025B800FB73734BDB6803F00303002B18D0704BDD
:1025C800DB6803F003027B681B689A420DD17B68C5
:1025D8001B68002B09D06A4BDB681B0903F0070353
:1025E8005A1C7B685B689A4244D00123FB7341E024
:1025F8007B681B68022B0CD0032B13D0012B20D136
:102608005F4B1B6803F00203002B1DD10123FB73F2
:102618001AE05B4B1B6803F48063002B16D101237F
:10262800FB7313E0564B1B6803F40033002B0FD1E8
:10263800534B1B6803F48023002B09D10123FB7340
:1026480006E00123FB7304E000BF02E000BF00E0E6
:1026580000BFFB7B002B0DD1494BDB6823F07302D5
:102668007B6819687B685B68013B1B010B43444925
:102678001343CB60FB7B002B7DD1414B1B68404A49
:1026880023F080631360FDF707FEB86009E0FDF7EB
:1026980003FE0246BB68D31A022B02D90323FB733D
:1026A80005E0374B1B6803F00063002BEFD1FB7B81
:1026B800002B60D13B68002B11D1314B1B6923F4EF
:1026C8001F3323F440737A68926811027A68D268DB
:1026D800120952040A432A4913430B6127E03B6855
:1026E800012B12D1264B1B6923F4C00323F4FE43AC
:1026F8007A68926811027A6812695208013A52059A
:102708000A431F4913430B6111E01D4B1B6923F05A
:10271800C06323F4FE437A68926811027A685269AA
:102728005208013A52060A43154913430B61144BE8
:102738001B68134A43F080631360FDF7ADFDB86072
:1027480009E0FDF7A9FD0246BB68D31A022B02D99E
:102758000323FB7305E00A4B1B6803F00063002B9F
:10276800EFD0FB7B002B06D1054B1A697B689B6970
:10277800034913430B61FB7B18461037BD4680BDE8
:102788000010024080B584B000AF78603960002343
:10279800FB73684BDB6803F00303002B18D0654B11
:1027A800DB6803F003027B681B689A420DD17B68E3
:1027B8001B68002B09D05F4BDB681B0903F007037C
:1027C8005A1C7B685B689A4244D00123FB7341E042
:1027D8007B681B68022B0CD0032B13D0012B20D154
:1027E800544B1B6803F00203002B1DD10123FB731C
:1027F8001AE0504B1B6803F48063002B16D10123A9
:10280800FB7313E04B4B1B6803F40033002B0FD111
:10281800484B1B6803F48023002B09D10123FB7369
:1028280006E00123FB7304E000BF02E000BF00E004
:1028380000BFFB7B002B0DD13E4BDB6823F07302FE
:102848007B6819687B685B68013B1B010B4339494E
:102858001343CB60FB7B002B67D1364B1B68354A93
:1028680023F080531360FDF717FDB86009E0FDF70A
:1028780013FD0246BB68D31A022B02D90323FB734C
:1028880005E02C4B1B6803F00053002BEFD1FB7BBA
:10289800002B4AD13B68002B11D1264B5B6923F4EE
:1028A8001F3323F440737A68926811027A68D268F9
:1028B800120952040A431F4913434B6111E01D4B8F
:1028C8005B6923F0C06323F4FE437A6892681102BF
:1028D8007A6812695208013A52060A4315491343A5
:1028E8004B61144B1B68134A43F080531360FDF788
:1028F800D3FCB86009E0FDF7CFFC0246BB68D31AE9
:10290800022B02D90323FB7305E00A4B1B6803F073
:102918000053002BEFD0FB7B002B06D1054B5A69E7
:102928007B685B69034913434B61FB7B184610378F
:10293800BD4680BD0010024080B489B000AF786009
:1029480039600023FB610023BB6100237B617B6846
:10295800B3F5006F0CD1624BD3F8883003F4400311
:10296800BB61BB69B3F5400F12D15E4BFB610FE051
:102978007B68B3F5805F0BD1594BD3F8883003F0EF
:102988004073BB61BB69B3F1407F01D1554BFB611B
:10299800FB69002B40F09C803B683B61BB69B3F549
:1029A800000F03D0BB69B3F1007F2DD14C4BDB681E
:1029B80003F48033002B00F08B80494BDB681B0944
:1029C80003F0070301333A69B2FBF3F33B61444B6D
:1029D800DB681B0A03F07F03FB607B69002B0AD1CD
:1029E8003F4BDB6803F40033002B02D011237B61DB
:1029F80001E007237B613B69FA6802FB03F27B690C
:102A0800B2FBF3F3FB6163E0BB69002B2CD1344BC1
:102A18001B6903F48033002B5AD0314BDB681B0948
:102A280003F0070301333A69B2FBF3F33B612C4B24
:102A38001B691B0A03F07F03FB607B69002B0AD12B
:102A4800274B1B6903F40033002B02D011237B6151
:102A580001E007237B613B69FA6802FB03F27B69AB
:102A6800B2FBF3F3FB6133E0BB69B3F5800F03D02E
:102A7800BB69B3F1807F2BD1194B5B6903F48033B9
:102A8800002B25D0164BDB681B0903F00703013325
:102A98003A69B2FBF3F33B61114B5B691B0A03F024
:102AA8007F03FB607B69002B0AD10D4B5B6903F444
:102AB8000033002B02D011237B6101E007237B61E7
:102AC8003B69FA6802FB03F27B69B2FBF3F3FB6133
:102AD800FB6918462437BD465DF8047B704700BF84
:102AE8000010024068FF1F0080B588B000AF786012
:102AF8007B68002B01D101234AE17B6893F87D3084
:102B0800DBB2002B06D17B68002283F87C20786832
:102B180001F0AEFE786800F04DF90346002B01D0B5
:102B2800012335E17B68022283F87D207B68DB681E
:102B3800012B07D0012B02D3022B06D008E000237B
:102B4800FB6108E01023FB6105E02023FB6102E044
:102B58000023FB6100BF7B689B68032B1DD801A283
:102B680052F823F07D2B0008832B00088B2B0008DC
:102B7800932B000800237B6112E04FF480637B6194
:102B88000EE04FF400637B610AE04FF400637B6161
:102B9800FB6943F00103FB6102E000237B6100BF96
:102BA8007B681B687C4A934204D07B681B687B4A1D
:102BB800934203D17A4AFB69136002E0794AFB69C0
:102BC80013607B68DB69002B38D07B681B68724A0E
:102BD800934204D07B681B68704A934205D14FF436
:102BE8000060FFF767F8386104E04FF48050FFF7A2
:102BF80061F838613A6913469B0013445B001A4632
:102C08007B68DB695B02B2FBF3F3FB60FB68664A37
:102C1800A2FB0323DA087B681A62F968624BA3FBFC
:102C28000123DA0813469B0013445B00CA1A082ADA
:102C380004D97B681B6A5A1C7B681A627B685B68CC
:102C4800002B03D07B685B68022B09D17B68DB6BA8
:102C5800012B01D1002301E04FF40073BB6108E0B0
:102C68007B68DB6B012B02D14FF4007300E000237B
:102C7800BB617B681B6819687B681A684B4B0B4003
:102C880013607B681B6819687B685A687B681B6BD4
:102C98001A437B685B6B1A437B689B6B1A43BB695F
:102CA8001A437B691A437B685B6A1A437B681B6912
:102CB8001A437B685B691A437B681B6A1B051A43C6
:102CC8007B681B680A431A607B681B685B687A68C4
:102CD800126823F4604323F00F0353607B681B687A
:102CE80059687B689A697B689B6A1A437B68DB6AC8
:102CF8001A437B681B680A435A607B681B6899689B
:102D08007B681A682A4B0B4093607B681B6899683C
:102D18007B681B6C5A1E7B681B6D1A437B689B6C17
:102D28001A437B68DB6C1A437B685B6C013B1B02B4
:102D38001A437B681B680A439A607B681B68D968DA
:102D48007B681A684FF220030B40D3607B681B68CE
:102D5800D9687B685A6D7B689B6D1A437B681B6ECC
:102D68001B041A437B68DB6D013B1B021A437B681B
:102D78001B680A43DA607B680022C3F880207B68FE
:102D8800012283F87D207B68002283F87C200023C1
:102D980018462037BD4680BD0454014024540140E4
:102DA8000054014000580140CDCCCCCC10C005FFE8
:102DB8000080F8FF90B484B000AF7860154B1B68B2
:102DC800154AA2FB03231B0B9C000023FB737B68A3
:102DD8001B681A687B681B6822F480321A60002C12
:102DE8000AD17B68D3F8803043F040027B68C3F88F
:102DF80080200323FB7307E0013C7B681B681B688A
:102E080003F48033002BEAD1FB7B18461037BD460C
:102E180090BC7047080000201BECCB9580B584B0AF
:102E280000AF78607B68002B01D101237CE07B68D0
:102E380000229A627B6893F85D30DBB2002B06D1E2
:102E48007B68002283F85C20786801F0CDFC7B6801
:102E5800022283F85D207B681B681A687B681B6800
:102E680022F040021A607B68DB68B3F5E06F02D994
:102E78000023FB6002E04FF48053FB607B68DB6853
:102E8800B3F5706F07D07B68DB68B3F5E06F02D0ED
:102E98007B6800229A627B681B6B002B0BD17B68D6
:102EA800DB68B3F5E06F03D97B6802221A6302E09E
:102EB8007B6801221A637B685A687B689B681A439F
:102EC8007B681B691A437B685B691A437B689B694B
:102ED80003F400731A437B68DB691A437B681B6A37
:102EE80042EA03017B689A6A7B681B680A431A6096
:102EF8007B689B691B0C03F004027B685B6A1A43BE
:102F08007B685B6B1A437B68DB6842EA03017B687A
:102F18001B68FA680A435A607B6800221A667B6855
:102F2800012283F85D20002318461037BD4680BD76
:102F380080B588B000AFF860B9603B601346FB808D
:102F48000023FB77FB6893F85C30012B01D1022347
:102F580050E1FB68012283F85C20FDF79DF9B86118
:102F6800FB88FB82FB6893F85D30DBB2012B02D053
:102F78000223FB7735E1BB68002B02D0FB88002BCE
:102F880002D10123FB772CE1FB68032283F85D2043
:102F9800FB6800221A66FB68BA689A63FB68FA88BD
:102FA8009A87FB68FA88DA87FB6800221A64FB684C
:102FB8000022A3F84420FB680022A3F84620FB68FF
:102FC80000221A65FB680022DA64FB689B68B3F587
:102FD800004F07D1FB681B681A68FB681B6842F43E
:102FE80080421A60FB681B681B6803F04003402B93
:102FF80007D0FB681B681A68FB681B6842F0400230
:103008001A60FB68DB68B3F5E06F4BD9FB685B6857
:10301800002B02D0FB8A012B3ED1FB689B6B1A88E0
:10302800FB681B68DA60FB689B6B9A1CFB689A63F9
:10303800FB68DB8F9BB2013B9AB2FB68DA872BE017
:10304800FB681B689B6803F00203022B12D1FB6824
:103058009B6B1A88FB681B68DA60FB689B6B9A1C81
:10306800FB689A63FB68DB8F9BB2013B9AB2FB68F3
:10307800DA8711E0FDF710F90246BB69D31A3A68FE
:103088009A4203D83B68B3F1FF3F02D13B68002B5B
:1030980002D10323FB77A4E0FB68DB8F9BB2002BF4
:1030A800CED17CE0FB685B68002B02D0FB8A012B49
:1030B80070D1FB68DB8F9BB2012B12D9FB689B6B2D
:1030C8001A88FB681B68DA60FB689B6B9A1CFB68B4
:1030D8009A63FB68DB8F9BB2023B9AB2FB68DA8784
:1030E80058E0FB689A6BFB681B680C3312781A70FF
:1030F800FB689B6B5A1CFB689A63FB68DB8F9BB26F
:10310800013B9AB2FB68DA8744E0FB681B689B685E
:1031180003F00203022B2BD1FB68DB8F9BB2012B40
:1031280012D9FB689B6B1A88FB681B68DA60FB681E
:103138009B6B9A1CFB689A63FB68DB8F9BB2023B14
:103148009AB2FB68DA8725E0FB689A6BFB681B6814
:103158000C3312781A70FB689B6B5A1CFB689A63D5
:10316800FB68DB8F9BB2013B9AB2FB68DA8711E000
:10317800FDF792F80246BB69D31A3A689A4203D817
:103188003B68B3F1FF3F02D13B68002B02D1032318
:10319800FB7726E0FB68DB8F9BB2002BB5D1BA69C1
:1031A8003968F86800F094FC0346002B02D0FB68ED
:1031B80020221A66FB689B68002B0AD100233B611A
:1031C800FB681B68DB683B61FB681B689B683B61AD
:1031D8003B69FB681B6E002B02D00123FB7700E0E4
:1031E80000BFFB68012283F85D20FB68002283F89A
:1031F8005C20FB7F18462037BD4680BD80B588B06F
:1032080002AFF860B9603B601346FB800023FB7592
:10321800FB685B68B3F5827F12D1FB689B68002B63
:103228000ED1FB68042283F85D20FA883B6800937E
:103238001346BA68B968F86800F008F9034601E16E
:10324800FB6893F85C30012B01D10223FAE0FB689C
:10325800012283F85C20FDF71FF83861FB6893F8BA
:103268005D30DBB2012B02D00223FB75E1E0BB68C5
:10327800002B02D0FB88002B02D10123FB75D8E07C
:10328800FB68042283F85D20FB6800221A66FB684D
:10329800BA681A64FB68FA88A3F84420FB68FA88BD
:1032A800A3F84620FB6800229A63FB6800229A87ED
:1032B800FB680022DA87FB680022DA64FB680022D8
:1032C8001A65FB68DB68B3F5E06F08D9FB681B6813
:1032D8005A68FB681B6822F480525A6007E0FB6852
:1032E8001B685A68FB681B6842F480525A60FB6886
:1032F8009B68B3F5004F07D1FB681B681A68FB6829
:103308001B6822F480421A60FB681B681B6803F084
:103318004003402B07D0FB681B681A68FB681B68D2
:1033280042F040021A60FB68DB68B3F5E06F67D8CB
:1033380030E0FB681B689B6803F00103012B17D181
:10334800FB681B6803F10C02FB681B6C1278D2B295
:103358001A70FB681B6C5A1CFB681A64FB68B3F88C
:1033680046309BB2013B9AB2FB68A3F8462011E0B5
:10337800FCF792FF02463B69D31A3A689A4203D88F
:103388003B68B3F1FF3F02D13B68002B02D1032316
:10339800FB754EE0FB68B3F846309BB2002BC8D1F2
:1033A80034E0FB681B689B6803F00103012B15D10F
:1033B800FB681B68DA68FB681B6C92B21A80FB68B2
:1033C8001B6C9A1CFB681A64FB68B3F846309BB206
:1033D800013B9AB2FB68A3F8462011E0FCF75CFFBA
:1033E80002463B69D31A3A689A4203D83B68B3F15C
:1033F800FF3F02D13B68002B02D10323FB7518E085
:10340800FB68B3F846309BB2002BCAD13A693968D9
:10341800F86800F005FB0346002B02D0FB68202269
:103428001A66FB681B6E002B02D00123FB7500E0B7
:1034380000BFFB68012283F85D20FB68002283F847
:103448005C20FB7D18461837BD4680BD80B58AB024
:1034580000AFF860B9607A607B8001237B6200234B
:1034680087F82330FB6893F85C30012B01D10223E5
:10347800FBE1FB68012283F85C20FCF70DFFF86193
:10348800FB6893F85D30FB76FB685B687B617B8843
:103498007B827B883B82FB7E012B0ED07B69B3F558
:1034A800827F06D1FB689B68002B02D1FB7E042B30
:1034B80003D0022387F82330CDE1BB68002B05D069
:1034C8007B68002B02D07B88002B03D1012387F86F
:1034D8002330C0E1FB6893F85D30DBB2042B03D0E6
:1034E800FB68052283F85D20FB6800221A66FB68EA
:1034F8007A681A64FB687A88A3F84620FB687A8899
:10350800A3F84420FB68BA689A63FB687A88DA876C
:10351800FB687A889A87FB680022DA64FB680022D5
:103528001A65FB68DB68B3F5E06F02D83B8A012BAC
:1035380008D9FB681B685A68FB681B6822F480522C
:103548005A6007E0FB681B685A68FB681B6842F40E
:1035580080525A60FB681B681B6803F04003402BCD
:1035680007D0FB681B681A68FB681B6842F04002BA
:103578001A60FB68DB68B3F5E06F7CD9FB685B68B1
:10358800002B02D07B8A012B69D1FB689B6B1A88C0
:10359800FB681B68DA60FB689B6B9A1CFB689A6384
:1035A800FB68DB8F9BB2013B9AB2FB68DA8756E077
:1035B800FB681B689B6803F00203022B1BD1FB68A6
:1035C800DB8F9BB2002B16D07B6A012B13D1FB68D3
:1035D8009B6B1A88FB681B68DA60FB689B6B9A1CFC
:1035E800FB689A63FB68DB8F9BB2013B9AB2FB686E
:1035F800DA8700237B62FB681B689B6803F0010382
:10360800012B1CD1FB68B3F846309BB2002B16D0B7
:10361800FB681B68DA68FB681B6C92B21A80FB684F
:103628001B6C9A1CFB681A64FB68B3F846309BB2A3
:10363800013B9AB2FB68A3F8462001237B62FCF7A2
:103648002BFE0246FB69D31A3A6B9A4207D83B6BAA
:10365800B3F1FF3F03D0032387F82330FBE0FB6877
:10366800DB8F9BB2002BA3D1FB68B3F846309BB22B
:10367800002B9DD1DFE0FB685B68002B03D07B8AC1
:10368800012B40F0CB80FB68DB8F9BB2012B12D95A
:10369800FB689B6B1A88FB681B68DA60FB689B6B8E
:1036A8009A1CFB689A63FB68DB8F9BB2023B9AB259
:1036B800FB68DA87B2E0FB689A6BFB681B680C331F
:1036C80012781A70FB689B6B5A1CFB689A63FB683C
:1036D800DB8F9BB2013B9AB2FB68DA879EE0FB68FE
:1036E8001B689B6803F00203022B34D1FB68DB8F55
:1036F8009BB2002B2FD07B6A012B2CD1FB68DB8F70
:103708009BB2012B12D9FB689B6B1A88FB681B685C
:10371800DA60FB689B6B9A1CFB689A63FB68DB8F1B
:103728009BB2023B9AB2FB68DA8712E0FB689A6B9D
:10373800FB681B680C3312781A70FB689B6B5A1C69
:10374800FB689A63FB68DB8F9BB2013B9AB2FB680C
:10375800DA8700237B62FB681B689B6803F0010320
:10376800012B48D1FB68B3F846309BB2002B42D0FE
:10377800FB68B3F846309BB2012B23D9FB681B6862
:10378800DA68FB681B6C92B21A80FB681B6C9A1C87
:10379800FB681A64FB68B3F846309BB2023B9AB2E6
:1037A800FB68A3F84620FB68B3F846309BB2012BB0
:1037B8001FD8FB681B685A68FB681B6842F4805274
:1037C8005A6016E0FB681B6803F10C02FB681B6C6F
:1037D8001278D2B21A70FB681B6C5A1CFB681A6408
:1037E800FB68B3F846309BB2013B9AB2FB68A3F87A
:1037F800462001237B62FCF74FFD0246FB69D31A82
:103808003A6B9A4203D83B6BB3F1FF3F02D13B6B53
:10381800002B03D1032387F823301CE0FB68DB8FE0
:103828009BB2002B7FF45BAFFB68B3F846309BB2CA
:10383800002B7FF454AFFA69396BF86800F048F947
:103848000346002B06D0012387F82330FB6820228B
:103858001A6600E000BFFB68012283F85D20FB6860
:10386800002283F85C2097F8233018462837BD4695
:1038780080BD80B584B000AFF860B9603B60134686
:10388800FB714CE03B68B3F1FF3F48D0FCF704FD07
:103898000246BB69D31A3A689A4202D93B68002BA0
:1038A8003DD1FB681B685A68FB681B6822F0E00280
:1038B8005A60FB685B68B3F5827F11D1FB689B682F
:1038C800B3F5004F04D0FB689B68B3F5806F07D150
:1038D800FB681B681A68FB681B6822F040021A60C4
:1038E800FB689B6AB3F5005F0FD1FB681B681A6819
:1038F800FB681B6822F400521A60FB681B681A6890
:10390800FB681B6842F400521A60FB68012283F8C6
:103918005D20FB68002283F85C2003230FE0FB682E
:103928001B689A68BB681340BA689A420CBF0123A7
:103938000023DBB21A46FB799A42A3D1002318462A
:103948001037BD4680BD80B584B000AFF860B9605F
:103958007A603B6057E0BB68B3F5C06F06D17B68FF
:10396800002B03D1FB681B680C331B783B68B3F151
:10397800FF3F48D0FCF790FC0246BB69D31A3A686F
:103988009A4202D93B68002B3DD1FB681B685A68F4
:10399800FB681B6822F0E0025A60FB685B68B3F5BD
:1039A800827F11D1FB689B68B3F5004F04D0FB6898
:1039B8009B68B3F5806F07D1FB681B681A68FB68C2
:1039C8001B6822F040021A60FB689B6AB3F5005F2F
:1039D8000FD1FB681B681A68FB681B6822F4005249
:1039E8001A60FB681B681A68FB681B6842F400527F
:1039F8001A60FB68012283F85D20FB68002283F8C7
:103A08005C20032308E0FB681B689A68BB681340C6
:103A18007A689A429FD1002318461037BD4680BD68
:103A280080B586B002AFF860B9607A60FB685B6801
:103A3800B3F5827F11D1FB689B68B3F5004F04D0C2
:103A4800FB689B68B3F5806F07D1FB681B681A6831
:103A5800FB681B6822F040021A607B680093BB6811
:103A680000228021F868FFF704FF0346002B07D0E7
:103A7800FB681B6E43F02002FB681A66032323E0F1
:103A8800FB685B68B3F5827F1DD1FB689B68B3F563
:103A9800004F04D0FB689B68B3F5806F13D17B6837
:103AA8000093BB6800224FF4C061F868FFF74BFF32
:103AB8000346002B07D0FB681B6E43F02002FB680F
:103AC8001A66032300E0002318461037BD4680BD60
:103AD80080B586B002AFF860B9607A607B68009301
:103AE800BB6800224FF4C051F868FFF72CFF03466B
:103AF800002B07D0FB681B6E43F02002FB681A6698
:103B0800032327E07B680093BB6800228021F868C4
:103B1800FFF7AFFE0346002B07D0FB681B6E43F090
:103B28002002FB681A66032314E07B680093BB68D5
:103B380000224FF4C061F868FFF705FF0346002B29
:103B480007D0FB681B6E43F02002FB681A6603234C
:103B580000E0002318461037BD4680BD80B584B00C
:103B680000AF0346FB71012280214B48FCF78CFF14
:103B7800012201214948FCF787FF01220121484819
:103B8800FCF782FF6F237B7320233B730022012104
:103B98004248FCF779FF07F10C0132230122414822
:103BA800FFF7C6F907F10D01322301223D48FFF75F
:103BB800BFF9012201213948FCF766FF64237B73B2
:103BC80021233B73002201213448FCF75DFF07F1F4
:103BD8000C01322301223348FFF7AAF907F10D013E
:103BE800322301222F48FFF7A3F9012201212B4894
:103BF800FCF74AFFFB79002B02D1C7237B730AE04D
:103C0800FB79012B02D1E7237B7304E0FB79022BBC
:103C180001D1F7237B7323233B73002201211F4823
:103C2800FCF732FF07F10C01322301221D48FFF790
:103C38007FF907F10D01322301221A48FFF778F9BD
:103C4800012201211548FCF71FFF0022012113481A
:103C5800FCF71AFF0023BB738F23FB7307F10F01D7
:103C68004FF4FA7301220F48FFF762F900BF07F11A
:103C78000E014FF4FA7301220A48FFF7BFFA034610
:103C8800002BF4D1012201210448FCF7FDFEBB7B87
:103C980018461037BD4680BD000C0048001000488B
:103CA800000800489000002080B586B000AF78601A
:103CB800002201214348FCF7E7FE00220121414888
:103CC800FCF7E2FEA823FB7307F10F014FF4FA7328
:103CD80001223D48FFF72CF900BF4FF4FA73062282
:103CE8003A493948FFF78AFA0346002BF5D10122F1
:103CF80001213448FCF7C8FE344B5B781B021AB22A
:103D0800324B1B781BB213431BB23B812F4BDB7822
:103D18001B021AB22D4B9B781BB213431BB27B813B
:103D28002A4B5B791B021AB2284B1B791BB213432F
:103D38001BB2BB814FF082437B61B7F9083007EEB5
:103D4800903AF8EEE77A97ED057A67EE277AC7EDAD
:103D5800047AD7ED047AFDEEE77A17EE903A1AB2B4
:103D68007B681A80B7F90A3007EE903AF8EEE77ADE
:103D780097ED057A67EE277AC7ED047AD7ED047ACE
:103D8800FDEEE77A17EE903A1AB27B685A80B7F9D7
:103D98000C3007EE903AF8EEE77A97ED057A67EE81
:103DA800277AC7ED047AD7ED047AFDEEE77A17EEA5
:103DB800903A1AB27B689A80002318461837BD4695
:103DC80080BD00BF0010004890000020880000203F
:103DD80080B584B000AF0346FB71012280215D48A5
:103DE800FCF752FE012201215B48FCF74DFE01223F
:103DF80001215A48FCF748FEFF237B7320233B73BD
:103E0800002280215348FCF73FFE07F10C014FF4D4
:103E1800FA7301225248FFF78BF807F10D014FF4AE
:103E2800FA7301224E48FFF783F80122802149489E
:103E3800FCF72AFEFB79002B02D101237B730AE0F1
:103E4800FB79012B02D111237B7304E0FB79022B50
:103E580001D121237B7323233B73002280213D481A
:103E6800FCF712FE07F10C014FF4FA7301223C48EB
:103E7800FFF75EF807F10D014FF4FA730122384895
:103E8800FFF756F8012280213248FCF7FDFD012397
:103E98007B7321233B73002280212E48FCF7F4FD1D
:103EA80007F10C014FF4FA7301222D48FFF740F88F
:103EB80007F10D014FF4FA7301222948FFF738F88A
:103EC800012280212348FCF7DFFD10237B73242384
:103ED8003B73002280211F48FCF7D6FD07F10C0137
:103EE8004FF4FA7301221E48FFF722F807F10D017B
:103EF8004FF4FA7301221A48FFF71AF801228021B9
:103F08001448FCF7C1FD002280211248FCF7BCFDD3
:103F18000023BB738F23FB7307F10F014FF4FA7370
:103F280001220F48FFF704F800BF07F10E014FF414
:103F3800FA7301220A48FFF761F90346002BF4D10E
:103F4800012280210348FCF79FFDBB7B18461037F0
:103F5800BD4680BD000C004800100048000800481D
:103F68009000002080B588B000AF786000228021E2
:103F78003F48FCF789FDE823FB7307F10F01322363
:103F880001223C48FEF7D4FF00BF07F1100132239D
:103F980006223848FFF732F90346002BF5D10122F3
:103FA80080213348FCF770FD7B7C9BB21B029AB2E0
:103FB8003B7C9BB213449BB21BB23B81FB7C9BB204
:103FC8001B029AB2BB7C9BB213449BB21BB27B818F
:103FD8007B7D9BB21B029AB23B7D9BB213449BB282
:103FE8001BB2BB81244BFB61B7F9083007EE903A4E
:103FF800F8EEE77A97ED077A67EE277AC7ED067A43
:10400800D7ED067AFDEEE77A17EE903A1AB27B689A
:104018001A80B7F90A3007EE903AF8EEE77A97ED8A
:10402800077A67EE277AC7ED067AD7ED067AFDEEAE
:10403800E77A17EE903A1AB27B685A80B7F90C30D3
:1040480007EE903AF8EEE77A97ED077A67EE277A67
:10405800C7ED067AD7ED067AFDEEE77A17EE903AC5
:104068001AB27B689A80002318462037BD4680BD67
:10407800000C004890000020295C8F3D80B500AFFF
:10408800FCF79EF800F042F900F092FA00F0F8F917
:1040980000F050FA00F0C2F98D48FEF7BFFE012289
:1040A8004FF400618B48FCF7EFFC0220FFF790FE0D
:1040B8000246894B1A606420FCF7FAF80220FFF7E1
:1040C8004DFD0246854B1A60854B00221A60844BD1
:1040D8001B68632B74DC0A20FCF7EAF88148FFF7B9
:1040E80041FF8148FFF7E0FD804B1B687D4AB2F92C
:1040F800002013447D4A13607C4B5B68794AB2F90F
:1041080002201344794A5360784B9B68754AB2F988
:1041180004201344754A9360754B1B68724AB2F9C0
:1041280000201344724A1360714B5B686E4AB2F9FF
:10413800022013446E4A53606D4B9B686A4AB2F979
:10414800042013446A4A9360654B1B680133644A30
:104158001360664B1A68624B1B6892FBF3F31AB242
:10416800644B1A80614B5A685D4B1B6892FBF3F3F2
:104178001AB2604B5A805D4B9A68594B1B6892FB88
:10418800F3F31AB25B4B9A80594B1A68544B1B686D
:1041980092FBF3F31AB2584B1A80554B5A68504B9E
:1041A8001B6892FBF3F31AB2534B5A80504B9A6830
:1041B8004B4B1B6892FBF3F31AB24F4B9A8086E77E
:1041C8000A20FCF775F84748FFF7CCFE4648FFF78A
:1041D8006BFD444BB3F900309AB2464BB3F900304B
:1041E8009BB2D31A9BB21AB2444B1A803D4BB3F917
:1041F80002309AB23F4BB3F902309BB2D31A9BB24A
:104208001AB23E4B5A80374BB3F904309AB2394B45
:10421800B3F904309BB2D31A9BB21AB2374B9A80C7
:10422800374B1B68354AB2F900201344344A1360EF
:10423800334B5B68314AB2F902201344304A536069
:104248002F4B9B682D4AB2F9042013442C4A9360E3
:10425800254BB3F900309AB2274BB3F900309BB223
:10426800D31A9BB21AB2274B1A801F4BB3F90230EC
:104278009AB2214BB3F902309BB2D31A9BB21AB24D
:10428800204B5A80184BB3F904309AB21A4BB3F941
:1042980004309BB2D31A9BB21AB21A4B9A801A4BAB
:1042A8001B68184AB2F900201344174A1360164BCA
:1042B8005B68144AB2F902201344134A5360124B44
:1042C8009B68104AB2F9042013440F4A9360FEE633
:1042D800900000200010004810010020A0010020DC
:1042E8007C000020A8010020F400002034000020F9
:1042F8005C0000204C000020740000202C000020EE
:1043080040000020540000206800002080B5B8B0AC
:1043180000AF07F19C0344220021184600F094FBEB
:1043280007F1880300221A605A609A60DA601A61FD
:104338003B4688220021184600F086FB1023C7F868
:104348009C300123C7F8B4300023C7F8B830602385
:10435800C7F8BC300223C7F8C4300123C7F8C830F7
:104368000123C7F8CC301423C7F8D0300723C7F887
:10437800D4300223C7F8D8300223C7F8DC3007F15D
:104388009C031846FCF7FCFB0346002B01D000F009
:10439800C1F90F23C7F888300323C7F88C300023EE
:1043A800C7F890304FF48063C7F894300023C7F8FB
:1043B800983007F1880302211846FCF791FF03465D
:1043C800002B01D000F0A6F94FF400633B600023F6
:1043D8007B6601237B600123BB601023FB600723FE
:1043E8003B6102237B610223BB614FF48033FB6195
:1043F8003B461846FDF778F90346002B01D000F03C
:1044080089F94FF40070FCF765FB0346002B01D0D7
:1044180000F080F900BFE037BD4680BD80B58AB0A6
:1044280000AF3B1D24220021184600F00DFB124B63
:10443800124A1A601048FCF742F80346002B01D0D4
:1044480000F068F900237B600023BB600023FB6059
:1044580001233B6100237B613B1D0022194606486E
:10446800FCF74FF80346002B01D000F053F900BFCA
:104478002837BD4680BD00BFFC0000200074004006
:1044880080B500AF284B294A1A60274B00221A63CF
:10449800254B00225A60244B40225A63224B0022AB
:1044A8009A63214B0022DA631F4B00229A601E4B4D
:1044B80000221A611C4B00225A611B4B00229A6190
:1044C800194B1B4ADA61184B0022DA60164B00229E
:1044D8005A62154B00229A62134B0022DA62124B81
:1044E80008221A64104B01225A640F4B00229A6466
:1044F8000D4B0022DA640C4B00221A650A4B00228D
:104508005A65094B00229A65074B0122DA65064B6A
:1045180000221A660448FEF7E7FA0346002B01D08A
:1045280000F0F8F800BF80BD1C01002004540140D1
:1045380000EE020080B500AF1B4B1C4A1A601A4BF4
:104548004FF482725A60184B4FF400429A60164B2F
:104558004FF4E062DA60144B02221A61124B012216
:104568005A61114B4FF400729A610F4B3822DA618D
:104578000D4B00221A620C4B00225A620A4B002291
:104588009A62094B0722DA62074B00221A63064B2C
:1045980000225A630448FEF741FC0346002B01D071
:1045A80000F0B8F800BF80BD90000020003800403F
:1045B80080B58AB000AF07F1140300221A605A6070
:1045C8009A60DA601A614E4BDB6C4D4A43F0100377
:1045D800D3644B4BDB6C03F010033B613B69484BE6
:1045E800DB6C474A43F00403D364454BDB6C03F0B0
:1045F8000403FB60FB68424BDB6C414A43F0010358
:10460800D3643F4BDB6C03F00103BB60BB683C4BDE
:10461800DB6C3B4A43F00803D364394BDB6C03F093
:1046280008037B607B68364BDB6C354A43F002033A
:10463800D364334BDB6C03F002033B603B6800221E
:1046480040F609012F48FCF71FFA002201212E48E5
:10465800FCF71AFA002280212C48FCF715FA0022F0
:1046680008212B48FCF710FA08237B610123BB6162
:104678000023FB6102233B6207F11403194621481A
:10468800FCF75AF801237B610123BB610023FB611E
:1046980000233B6207F1140319461B48FCF74CF84A
:1046A80040F601037B610123BB610023FB6100230A
:1046B8003B6207F1140319461248FCF73DF88023C2
:1046C8007B610123BB610023FB6103233B6207F18C
:1046D800140319460D48FCF72FF808237B610123C2
:1046E800BB610023FB6100233B6207F114031946F9
:1046F8000748FCF721F800BF2837BD4680BD00BF3A
:10470800001002400010004800080048000C004853
:104718000004004880B400AF00BFBD465DF8047BCC
:104728007047000080B483B000AF0F4B1B6E0E4A79
:1047380043F0010313660C4B1B6E03F001037B600F
:104748007B68094B9B6D084A43F080539365064B81
:104758009B6D03F080533B603B6800BF0C37BD4640
:104768005DF8047B704700BF0010024080B58AB036
:1047780000AF786007F1140300221A605A609A604B
:10478800DA601A617B681B68154A934224D1154B7D
:104798009B6D144A43F000539365124B9B6D03F0D5
:1047A80000533B613B690F4BDB6C0E4A43F001033E
:1047B800D3640C4BDB6C03F00103FB60FB68102334
:1047C8007B610323BB610023FB6107F114031946D6
:1047D8004FF09040FBF7B0FF00BF2837BD4680BDC3
:1047E800007400400010024080B58AB000AF7860C5
:1047F80007F1140300221A605A609A60DA601A619D
:104808007B681B68174A934227D1174B9B6D164A42
:1048180043F480439365144B9B6D03F480433B61E1
:104828003B69114BDB6C104A43F00803D3640E4B11
:10483800DB6C03F00803FB60FB6812237B61022337
:10484800BB610023FB6103233B6205237B6207F105
:10485800140319460548FBF76FFF00BF2837BD460C
:1048680080BD00BF0038004000100240000C004826
:1048780080B588B000AF78607B681B68154A9342A2
:1048880024D1154B1B68002B0BD1144B1B6E134AFC
:1048980043F400131366114B1B6E03F40013BB6043
:1048A800BB680D4B1B6801330B4A13607423FB6014
:1048B80002233B6100237B610323BB610D23FB6162
:1048C80007F10C0319460648FBF736FF00BF2037EF
:1048D800BD4680BD04540140800000200010024005
:1048E8000010004880B400AF00BFBD465DF8047BEF
:1048F800704780B400AFFEE780B400AFFEE780B435
:1049080000AFFEE780B400AFFEE780B400AF00BFA1
:10491800BD465DF8047B704780B400AF00BFBD465C
:104928005DF8047B704780B400AF00BFBD465DF8FA
:10493800047B704780B500AFFBF79CFC00BF80BDCF
:1049480080B400AF174BD3F88830164A43F470038D
:10495800C2F88830144B1B68134A43F001031360F4
:10496800114B00229A60104B1B680F4A23F0A85382
:1049780023F4102313600C4B4FF48052DA600A4B77
:104988001B68094A23F480231360074B00229A61AD
:10499800044B4FF000629A6000BFBD465DF8047B8F
:1049A800704700BF00ED00E000100240DFF834D08F
:1049B800002103E00C4B5B58435004310B480C4B6F
:1049C80042189A42F6D30B4A02E0002342F8043B0D
:1049D800094B9A42F9D3FFF7B3FF00F011F8FFF73C
:1049E8004DFBFEE700800120D04A000800000020AF
:1049F8001000002010000020B0010020FEE7000099
:104A080070B50D4E0D4CA41BA4100025A54209D16C
:104A18000B4E0C4C00F020F8A41BA4100025A54256
:104A280005D170BD56F8253098470135EEE756F8A0
:104A3800253098470135F2E7C04A0008C04A000807
:104A4800C04A0008C44A000802440346934200D101
:104A5800704703F8011BF9E7F8B500BFF8BC08BCBC
:104A68009E467047F8B500BFF8BC08BC9E46704724
:104A78000000000000000000010203040607080906
:104A88000000000001020304A0860100400D03009D
:104A9800801A060000350C0040420F0080841E007A
:104AA80000093D0000127A000024F40000366E016F
:084AB8000048E801006CDC027B
:084AC000AD0100080000000038
:084AC800890100080000000054
:104AD000100000000100000000093D00000000007F
:04000005080049B5F1
:00000001FF
