:020000040800F2
:10000000000002206D320008BD310008BF31000839
:10001000C1310008C3310008C531000800000000EC
:10002000000000000000000000000000C7310008D0
:10003000C931000800000000CB310008CD310008B4
:10004000BD320008BD320008BD320008BD320008D4
:10005000BD320008BD320008BD320008BD320008C4
:10006000BD320008BD320008BD320008BD320008B4
:10007000BD320008BD320008BD320008BD320008A4
:10008000BD320008BD320008BD320008000000008B
:10009000000000000000000000000000BD32000869
:1000A000BD320008BD320008BD320008BD32000874
:1000B000BD320008BD320008BD320008BD32000864
:1000C000BD320008BD320008BD320008BD32000854
:1000D000BD320008BD320008D53100080000000024
:1000E000BD320008BD320008BD320008000000002B
:1000F000000000000000000000000000BD32000809
:1001000000000000BD320008BD320008BD3200080A
:1001100000000000000000000000000000000000DF
:10012000BD320008BD320008BD320008BD320008F3
:10013000BD320008000000000000000000000000C8
:10014000000000000000000000000000BD320008B8
:10015000BD320008BD320008BD320008BD320008C3
:10016000BD320008BD3200080000000000000000A1
:10017000000000000000000000000000000000007F
:1001800000000000BD320008000000000000000078
:08019000BD320008BD32000879
:1001980010B5054C237833B9044B13B10448AFF3B9
:1001A80000800123237010BDE8010020000000003A
:1001B8008C68000808B5034B1BB103490348AFF32B
:1001C800008008BD00000000EC0100208C680008D9
:1001D80081F0004102E000BF83F0004330B54FEAF0
:1001E80041044FEA430594EA050F08BF90EA020F5D
:1001F8001FBF54EA000C55EA020C7FEA645C7FEAF0
:10020800655C00F0E2804FEA5454D4EB5555B8BF12
:100218006D420CDD2C4480EA020281EA030382EA83
:10022800000083EA010180EA020281EA0303362D15
:1002380088BF30BD11F0004F4FEA01314FF4801CE8
:100248004CEA113102D0404261EB410113F0004FFA
:100258004FEA03334CEA133302D0524263EB4303B1
:1002680094EA050F00F0A780A4F10104D5F1200E4F
:100278000DDB02FA0EFC22FA05F2801841F10001AA
:1002880003FA0EF2801843FA05F359410EE0A5F17E
:1002980020050EF1200E012A03FA0EFC28BF4CF0AF
:1002A800020C43FA05F3C01851EBE37101F0004565
:1002B80007D54FF0000EDCF1000C7EEB00006EEB72
:1002C8000101B1F5801F1BD3B1F5001F0CD34908FC
:1002D8005FEA30004FEA3C0C04F101044FEA445253
:1002E80012F5800F80F09A80BCF1004F08BF5FEADA
:1002F800500C50F1000041EB045141EA050130BDBA
:100308005FEA4C0C404141EB010111F4801FA4F15C
:100318000104E9D191F0000F04BF01460020B1FAB1
:1003280081F308BF2033A3F10B03B3F120020CDAE9
:100338000C3208DD02F1140CC2F10C0201FA0CF0C7
:1003480021FA02F10CE002F11402D8BFC2F1200C2C
:1003580001FA02F120FA0CFCDCBF41EA0C019040E2
:10036800E41AA2BF01EB0451294330BD6FEA04042B
:100378001F3C1CDA0C340EDC04F11404C4F1200216
:1003880020FA04F001FA02F340EA030021FA04F328
:1003980045EA030130BDC4F10C04C4F1200220FA7F
:1003A80002F001FA04F340EA0300294630BD21FABD
:1003B80004F0294630BD94F0000F83F4801306BF83
:1003C80081F480110134013D4EE77FEA645C18BF77
:1003D8007FEA655C29D094EA050F08BF90EA020F0E
:1003E80005D054EA000C04BF1946104630BD91EA06
:1003F800030F1EBF0021002030BD5FEA545C05D109
:100408004000494128BF41F0004130BD14F5800447
:100418003CBF01F5801130BD01F0004545F0FE41BB
:1004280041F470014FF0000030BD7FEA645C1ABFF0
:10043800194610467FEA655C1CBF0B46024650EA27
:10044800013406BF52EA033591EA030F41F4002153
:1004580030BD00BF90F0000F04BF0021704730B5D9
:100468004FF4806404F132044FF000054FF00001AE
:1004780050E700BF90F0000F04BF0021704730B56F
:100488004FF4806404F1320410F0004548BF404244
:100498004FF000013EE700BF42004FEAE2014FEA99
:1004A80031014FEA02701FBF12F07F4393F07F4F74
:1004B80081F06051704732F07F4208BF704793F077
:1004C8007F4F04BF41F40021704730B54FF460748A
:1004D80001F0004521F000411CE700BF50EA01028D
:1004E80008BF704730B54FF000050AE050EA010236
:1004F80008BF704730B511F0004502D5404261EBA6
:1005080041014FF4806404F132045FEA915C3FF4E6
:10051800D8AE4FF003025FEADC0C18BF03325FEA83
:10052800DC0C18BF033202EBDC02C2F1200300FA34
:1005380003FC20FA02F001FA03FE40EA0E0021FA59
:1005480002F11444BDE600BF70B54FF0FF0C4CF447
:10055800E06C1CEA11541DBF1CEA135594EA0C0FF9
:1005680095EA0C0F00F0DEF82C4481EA030621EA34
:100578004C5123EA4C5350EA013518BF52EA03356F
:1005880041F4801143F4801338D0A0FB02CE4FF021
:100598000005E1FB02E506F00042E0FB03E54FF051
:1005A8000006E1FB03569CF0000F18BF4EF0010E49
:1005B800A4F1FF04B6F5007F64F5407404D25FEA45
:1005C8004E0E6D4146EB060642EAC62141EA5551F8
:1005D8004FEAC52040EA5E504FEACE2EB4F1FD0C3A
:1005E80088BFBCF5E06F1ED8BEF1004F08BF5FEAB8
:1005F800500E50F1000041EB045170BD06F000466A
:1006080046EA010140EA020081EA0301B4EB5C0416
:10061800C2BFD4EB0C0541EA045170BD41F480110E
:100628004FF0000E013C00F3AB8014F1360FDEBF33
:10063800002001F0004170BDC4F10004203C35DA0F
:100648000C341BDC04F11404C4F1200500FA05F392
:1006580020FA04F001FA05F240EA020001F0004233
:1006680021F0004110EBD37021FA04F642EB0601A9
:100678005EEA430E08BF20EAD37070BDC4F10C04D3
:10068800C4F1200500FA04F320FA05F001FA04F297
:1006980040EA020001F0004110EBD37041F1000183
:1006A8005EEA430E08BF20EAD37070BDC4F120058E
:1006B80000FA05F24EEA020E20FA04F301FA05F2F6
:1006C80043EA020321FA04F001F0004121FA04F29E
:1006D80020EA020000EBD3705EEA430E08BF20EA6E
:1006E800D37070BD94F0000F0FD101F000464000A8
:1006F80041EB010111F4801F08BF013CF7D041EA2A
:10070800060195F0000F18BF704703F0004652002D
:1007180043EB030313F4801F08BF013DF7D043EAFE
:100728000603704794EA0C0F0CEA135518BF95EAB4
:100738000C0F0CD050EA410618BF52EA4306D1D13B
:1007480081EA030101F000414FF0000070BD50EA5A
:10075800410606BF1046194652EA430619D094EAE4
:100768000C0F02D150EA013613D195EA0C0F05D1CE
:1007780052EA03361CBF104619460AD181EA030122
:1007880001F0004141F0FE4141F470014FF00000DA
:1007980070BD41F0FE4141F4780170BD70B54FF075
:1007A800FF0C4CF4E06C1CEA11541DBF1CEA1355F5
:1007B80094EA0C0F95EA0C0F00F0A7F8A4EB0504D7
:1007C80081EA030E52EA03354FEA013100F08880CE
:1007D8004FEA03334FF0805545EA131343EA126397
:1007E8004FEA022245EA111545EA10654FEA00264C
:1007F8000EF000419D4208BF964244F1FD0404F505
:10080800407402D25B084FEA3202B61A65EB030560
:100818005B084FEA32024FF480104FF4002CB6EB1D
:10082800020E75EB030E22BFB61A754640EA0C009D
:100838005B084FEA3202B6EB020E75EB030E22BFDD
:10084800B61A754640EA5C005B084FEA3202B6EB1E
:10085800020E75EB030E22BFB61A754640EA9C00DD
:100868005B084FEA3202B6EB020E75EB030E22BFAD
:10087800B61A754640EADC0055EA060E18D04FEA6B
:10088800051545EA16754FEA06164FEAC30343EA0B
:1008980052734FEAC2025FEA1C1CC0D111F4801FD8
:1008A8000BD141EA00014FF000004FF0004CB6E7D1
:1008B80011F4801F04BF01430020B4F1FD0C88BF70
:1008C800BCF5E06F3FF6AFAEB5EB030C04BFB6EB7B
:1008D800020C5FEA500C50F1000041EB045170BD6E
:1008E8000EF0004E4EEA113114EB5C04C2BFD4EB9B
:1008F8000C0541EA045170BD41F480114FF0000E1F
:10090800013C90E645EA060E8DE60CEA135594EA9A
:100918000C0F08BF95EA0C0F3FF43BAF94EA0C0F9D
:100928000AD150EA01347FF434AF95EA0C0F7FF412
:1009380025AF104619462CE795EA0C0F06D152EA66
:1009480003353FF4FDAE1046194622E750EA41064A
:1009580018BF52EA43067FF4C5AE50EA41047FF45B
:100968000DAF52EA43057FF4EBAE12E74FF0FF3CC0
:1009780006E000BF4FF0010C02E000BF4FF0010C91
:100988004DF804CD4FEA410C7FEA6C5C4FEA430C0A
:1009980018BF7FEA6C5C1BD001B050EA410C0CBF59
:1009A80052EA430C91EA030F02BF90EA020F0020BB
:1009B800704710F1000F91EA030F58BF994208BF22
:1009C80090422CBFD8176FEAE37040F001007047DF
:1009D8004FEA410C7FEA6C5C02D150EA013C07D136
:1009E8004FEA430C7FEA6C5CD6D152EA033CD3D081
:1009F8005DF8040B704700BF8446104662468C467B
:100A08001946634600E000BF01B5FFF7B7FF0028AD
:100A180048BF10F1000F01BD4DF808EDFFF7F4FFD6
:100A28000CBF012000205DF808FB00BF4DF808ED61
:100A3800FFF7EAFF34BF012000205DF808FB00BF84
:100A48004DF808EDFFF7E0FF94BF012000205DF8A6
:100A580008FB00BF4DF808EDFFF7CEFF94BF01205B
:100A680000205DF808FB00BF4DF808EDFFF7C4FF54
:100A780034BF012000205DF808FB00BF4FEA410C9D
:100A88007FEA6C5C02D150EA013C0AD14FEA430C80
:100A98007FEA6C5C02D152EA033C02D14FF00000BD
:100AA80070474FF0010070474FEA410212F50012FB
:100AB80015D211D56FF47873B3EB625212D94FEA9D
:100AC800C12343F0004343EA505311F0004F23FA87
:100AD80002F018BF404270474FF00000704750EADC
:100AE800013005D111F0004008BF6FF00040704799
:100AF8004FF00000704700BF4FEA4102B2F1E043F7
:100B080024BFB3F5001CDCF1FE5C0DD901F0004CEC
:100B18004FEAC0024CEA5070B2F1004F40EB83003C
:100B280008BF20F00100704711F0804F21D113F168
:100B38003872BCBF01F00040704741F480114FEAA1
:100B48005252C2F11802C2F1200C10FA0CF320FA2A
:100B580002F018BF40F001004FEAC1234FEAD32347
:100B680003FA0CFC40EA0C0023FA02F34FEA4303B1
:100B7800CCE77FEA625307D150EA01331EBF4FF03A
:100B8800FE4040F44000704701F0004040F0FE4055
:100B980040F40000704700BF53B94AB9002908BFA4
:100BA80000281CBF4FF0FF314FF0FF3000F072B942
:100BB800ADF1080C6DE904CE00F006F8DDF804E0AC
:100BC800DDE9022304B070472DE9F047089E04468A
:100BD8008846002B4BD18A42154667D9B2FA82F271
:100BE8004AB1C2F1200701FA02F320FA07F795404B
:100BF80047EA030894404FEA154E230CB8FBFEF76A
:100C08001FFA85FC0EFB178843EA084307FB0CF123
:100C1800994209D9EB1807F1FF3080F01B819942FE
:100C280040F21881023F2B445B1AA4B2B3FBFEF0DA
:100C38000EFB103344EA034400FB0CFCA44509D91D
:100C48002C1900F1FF3380F00781A44540F204819C
:100C580002382C4440EA0740A4EB0C0400271EB1DC
:100C6800D4400023C6E900433946BDE8F0878B42EB
:100C780009D9002E00F0EB800027C6E900013846AC
:100C88003946BDE8F087B3FA83F7002F47D18B4286
:100C980002D3824200F2FA80841A61EB0303012036
:100CA8009846002EE0D0C6E90048DDE702B9FFDE2D
:100CB800B2FA82F2002A40F08F80491B4FEA154EA3
:100CC8001FFA85F80127B1FBFEFC230C0EFB1C1153
:100CD80043EA014308FB0CF1994207D9EB180CF1E0
:100CE800FF3002D2994200F2CD808446591AA3B24D
:100CF800B1FBFEF00EFB101443EA044408FB00F8B5
:100D0800A04507D92C1900F1FF3302D2A04500F203
:100D1800B6801846A4EB080440EA0C409FE7C7F1E8
:100D2800200CBB4022FA0CFE4EEA030E01FA07F42F
:100D380020FA0CF521FA0CF34FEA1E482543B3FBC1
:100D4800F8F92C0C08FB19331FFA8EFA44EA03430E
:100D580009FB0AF49C4202FA07F200FA07F10BD9E0
:100D68001EEB030309F1FF3080F087809C4240F2BC
:100D78008480A9F1020973441B1BADB2B3FBF8F0E0
:100D880008FB103345EA034400FB0AFAA24508D9D8
:100D98001EEB040400F1FF336BD2A24569D9023877
:100DA800744440EA0940A0FB0289A4EB0A044C45BC
:100DB800C2464B4654D351D0002E69D0B1EB0A0538
:100DC80064EB030404FA0CFCFD40FC404CEA050506
:100DD800C6E90054002747E7C2F1200320FA03F7C9
:100DE800954001FA02F021FA03F34FEA154E384311
:100DF800010CB3FBFEF71FFA85F80EFB173341EA27
:100E0800034107FB08F38B4204FA02F407D9691877
:100E180007F1FF3C2FD28B422DD9023F2944CB1A30
:100E280081B2B3FBFEF00EFB103341EA034100FB35
:100E380008F38B4207D9691800F1FF3C17D28B429F
:100E480015D902382944C91A40EA07473BE737460B
:100E5800304609E70746E7E61846FBE64145ABD2C8
:100E6800B8EB020A69EB0E0201381346A4E76046A4
:100E7800E9E7184695E76746D1E781467CE70238F7
:100E88002C4447E7ACF1020C2B442FE7384608E71F
:100E98003746E9E6704700BF034613F8012B002ADE
:100EA800FBD1181A0138704710B504460E4B187854
:100EB8004FF47A73B3FBF0F30C4A1068B0FBF3F00D
:100EC80000F0AAF868B90F2C01D901200AE0002225
:100ED80021464FF0FF3000F05DF8034B5C600020C6
:100EE80000E0012010BD00BF00000020100000201D
:100EF80008B50B4B1A6842F400721A601A6842F47B
:100F080080621A601A6842F480721A60032000F046
:100F18002FF80020FFF7C8FF02F092F8002008BD64
:100F2800003C0240034A1168034B1B780B441360D2
:100F3800704700BF4402002000000020014B1868E1
:100F4800704700BF4402002038B50446FFF7F6FF9B
:100F58000546B4F1FF3F02D0044B1B781C44FFF751
:100F6800EDFF401BA042FAD338BD00BF00000020AF
:100F7800074AD36823F4E0631B041B0C000200F447
:100F8800E060184340F0BF6040F40030D060704724
:100F980000ED00E030B4174BDB68C3F30223C3F164
:100FA8000704042C28BF04241D1D062D18D9033B53
:100FB8004FF0FF3505FA04F421EA0401994005FAD7
:100FC80003F322EA0303194300280BDB0901C9B222
:100FD80000F1604000F5614080F8001330BC7047B4
:100FE8000023E5E700F00F000901C9B2024B1954CC
:100FF800F4E700BF00ED00E014ED00E0002807DB97
:1010080000F01F02400901239340024A42F82030B1
:10101800704700BF00E100E00138B0F1807F0AD2DC
:10102800064B5860064AF02182F823100020986089
:1010380007221A6070470120704700BF10E000E0E7
:1010480000ED00E090F83530DBB2022B03D08023AE
:10105800436501207047052380F83530026813681E
:1010680023F00103136000207047000000230F2BBA
:1010780000F2C580F0B482B039E0042200E000221A
:10108800B2403A4302345E4E46F824205D4A146862
:10109800EA4302EA04064F6817F4803F01D045EAA4
:1010A8000406584C2660646802EA04064F6817F480
:1010B800003F01D045EA0406524C6660A46802EA83
:1010C80004064F6817F4801F01D045EA04064D4C0A
:1010D800A660E46822404E6816F4001F01D045EA75
:1010E8000402484CE26001330F2B00F28580012294
:1010F8009A400C6804EA0205AA42F4D14C68022C12
:1011080001D0122C10D1DE08083650F826C003F0A2
:101118000704A7000F24BC402CEA040C0C69BC404F
:1011280044EA0C0440F8264004685F000326BE40E9
:10113800F64306EA040C4C6804F00304BC4044EA95
:101148000C0404604C6804F1FF3CBCF1010F03D9A6
:10115800112C01D0122C10D1846806EA040CCC683A
:10116800BC4044EA0C048460446824EA02024C68E7
:10117800C4F300149C4014434460C26816408A6853
:10118800BA403243C2604A6812F0805FABD0002296
:1011980001921D4A546C44F480445464526C02F425
:1011A80080420192019A9C08A61C154A52F82670A2
:1011B80003F0030296000F22B24027EA0207134AFF
:1011C80090423FF45CAF02F5806290420ED002F587
:1011D800806290420CD002F5806290420AD002F5FB
:1011E800806290423FF449AF072249E7012247E76E
:1011F800022245E7032243E702B0F0BC704770477C
:1012080000380140003C0140003802400000024024
:1012180003685A6912F4806F11D06FF480625A61C2
:1012280000230363202280F83D2080F83E30026CC2
:1012380042F00402026480F83C300120704700202C
:101248007047F8B506460C4617461D4622E0FFF7DC
:1012580075FE069BC01AA84200D8DDB90023336387
:10126800202286F83D2086F83E30326C42F020027B
:10127800326486F83C3001201AE033685B6924EA5E
:1012880003039BB2B3FA83F35B099F420FD1B5F115
:10129800FF3FDCD1C4F30743012BEED033689B69D1
:1012A80024EA03039BB2B3FA83F35B09EDE700205A
:1012B800F8BDF8B504460D4616461F463CE01A68C8
:1012C80042F400721A6023686FF480625A61002346
:1012D8002363202284F83D2084F83E30226C42F0BB
:1012E8000402226484F83C30012033E0FFF726FE34
:1012F800C01BB04200D8FEB900232363202284F823
:101308003D2084F83E30226C42F02002226484F8AA
:101318003C3001201EE023685B6925EA03039BB289
:10132800003318BF0123A3B123685A6912F4806FF0
:10133800C5D1B6F1FF3FD9D1C5F30743012BEAD098
:1013480023689B6925EA03039BB2003318BF012376
:10135800E9E70020F8BD70B504460D461646236837
:101368005B6913F0800F1CD12046FFF751FFD0B9FD
:10137800B5F1FF3FF3D0FFF7E1FD801BA84201D88C
:10138800002DECD100232363202284F83D2084F82B
:101398003E30226C42F02002226484F83C30012066
:1013A80000E0002070BD0120FCE700002DE9F041BD
:1013B80084B00446884616461F460B9D026813688B
:1013C80043F48073136000950A9B00224FF00111CB
:1013D800FFF737FF20B10123184604B0BDE8F081BC
:1013E800226808F0FE0313612B460A9A204920461A
:1013F800FFF75FFF08B10123EEE70023039323689B
:101408005A6903929B690393039B2A460A992046CB
:10141800FFF7A1FF034658B1236C042B01D0012329
:10142800DAE72268136843F4007313600123D3E7F3
:10143800012F0ED02368320A1A612A460A992046DB
:10144800FFF789FF034678B1236C042B05D00123ED
:10145800C2E72268F6B21661BEE72268136843F451
:10146800007313600123B7E72268F6B21661B3E789
:10147800020001002DE9F04184B004460E461746EB
:1014880098460B9D0268136843F4806313600268F2
:10149800136843F48073136000950A9B00224FF091
:1014A8000111FFF7CEFE20B10123184604B0BDE8B4
:1014B800F081F6B2236806F0FE021A612B460A9AFA
:1014C80038492046FFF7F5FE08B10123EDE7002370
:1014D800039323685A6903929B690393039B2A46E3
:1014E8000A992046FFF737FF58B1236C042B01D027
:1014F8000123DAE72268136843F4007313600123B9
:10150800D3E7B8F1010F0DD12368FFB21F612A4656
:101518000A992046FFF71FFF20B3236C042B1AD02B
:101528000123C2E723683A0A1A612A460A99204623
:10153800FFF711FF58B1236C042B01D00123B4E746
:101548002268136843F4007313600123ADE723682E
:10155800FFB21F61DBE72268136843F4007313606E
:101568000123A2E72268136843F48073136000958F
:101578000A9B00224FF001112046FFF762FE08B1D6
:10158800012392E7236846F001061E612B460A9A5A
:1015980004492046FFF78DFE0346002885D0012325
:1015A80083E700BF0200010070B504460D461646E9
:1015B80023685B6913F0040F1CD12046FFF728FE4F
:1015C800D0B9B5F1FF3FF3D0FFF7B8FC801BA842B4
:1015D80001D8002DECD100232363202284F83D207C
:1015E80084F83E30226C42F02002226484F83C30B9
:1015F800012000E0002070BD0120FCE770B5054621
:101608000C4616462B685A6912F0400F29D15A69C0
:1016180012F0100F15D1FFF791FC801BA04201D8E2
:10162800002CEFD100232B63202285F83D2085F87C
:101638003E302A6C42F020022A6485F83C300120B2
:1016480070BD6FF010025A6100232B63202285F8C9
:101658003D2085F83E302A6C2A6485F83C3001200C
:10166800EEE70020ECE70000002800F0BE80F8B5A7
:10167800044690F83D30002B6BD0242384F83D308D
:101688002268136823F00103136000F0C3FD626849
:10169800584B9A4262D8584B98428CBF002301237A
:1016A800002B40F0A480554BA3FB00239B0C216822
:1016B8004A6822F03F021A434A6025682A6A22F0E3
:1016C8003F0266684B498E424ED8013313432B6262
:1016D8002568E96921F44F4121F0FF016368454A13
:1016E80093424BD801385B00B0FBF3F30133C3F3EB
:1016F8000B03042B38BF04230B43EB6121680B68F1
:1017080023F0C003E269206A024313430B60216897
:101718008B6823F4034323F0FF032269E068024344
:1017280013438B602168CB6823F0FF036269A069CB
:1017380002431343CB602268136843F0010313602C
:1017480000202064202384F83D30206384F83E0084
:10175800F8BD80F83C3001F093FC8EE7284B9842A6
:101768008CBF002301239BE74FF4967101FB03F321
:101778002449A1FB03139B090133A7E7A268BAB95F
:10178800461E03EB4307B6FBF7F60136C6F30B0616
:10179800B6FA86F6760936BBC2B9013803EB4303BD
:1017A800B0FBF3F30133C3F30B0242F40043A3E7A6
:1017B800461E03EB830707EB8707B6FBF7F60136F0
:1017C800C6F30B06B6FA86F67609E4E7013803EBAA
:1017D800830303EB8303B0FBF3F20132C2F30B0282
:1017E80042F4404388E7012386E70120704701203F
:1017F800AEE700BFA08601007F841E0083DE1B4386
:10180800FF083D00D34D62102DE9F04182B0044637
:101818000E4617469846FFF791FB94F83D30DBB229
:10182800202B04D00223184602B0BDE8F0810546FB
:101838000090192301224C492046FFF702FD002899
:1018480040F08B8094F83C30012B00F08880012315
:1018580084F83C3023681A6812F0010F03D11A6823
:1018680042F001021A602268136823F400631360CF
:10187800212384F83D30402384F83E30002323643C
:10188800089B6362BDF824306385638D2385374BDD
:10189800E36201950A9B009343463A463146204647
:1018A800FFF784FD00285CD1238D002B34D02A4615
:1018B8000A992046FFF74FFD10BB626A2368127829
:1018C8001A61616A4B1C6362238D013B9BB22385BD
:1018D800628D013A92B262852268506910F0040F55
:1018E800E2D0002BE0D04B781361636A0133636266
:1018F800238D013B2385638D013B9BB26385D3E731
:10190800236C042B01D001238DE72268136843F46C
:1019180000731360012386E72A460A992046FFF7D9
:1019280043FE034658B1236C042B01D001237AE708
:101938002268136843F400731360012373E7216876
:101948000A6842F400720A60202284F83D200022CE
:1019580084F83E2084F83C2065E7022363E70223ED
:1019680061E701235FE700BF020010000000FFFFEE
:101978002DE9F04186B004460E4617469846FFF713
:10198800DDFA94F83D30DBB2202B04D00226304635
:1019980006B0BDE8F08105460090192301229E4952
:1019A8002046FFF74EFC002840F0348194F83C3084
:1019B800012B00F03781012384F83C3023681A6832
:1019C80012F0010F03D11A6842F001021A6022686E
:1019D800136823F400631360222384F83D30402306
:1019E80084F83E30002323640C9B6362BDF83430D6
:1019F8006385638D2385894BE36201950E9B009374
:101A080043463A4631462046FFF734FD064600284D
:101A180040F00A81238D5BB9029323685A690292C8
:101A28009A690292029A1A6842F400721A6072E085
:101A3800012B0AD0022B1AD00023059323685A6978
:101A480005929B690593059B65E02268136823F45A
:101A5800806313600023039323685A6903929A6989
:101A68000392039A1A6842F400721A6053E02268DB
:101A7800136823F4806313602268136843F40063D7
:101A880013600023049323685A6904929B690493A2
:101A9800049B40E02A460E992046FFF7AFFD002838
:101AA80040F0C48023681A69636A1A70636A013354
:101AB8006362238D013B2385638D013B9BB2638564
:101AC80029E000950E9B002255492046FFF7B9FBF7
:101AD800002840F0AD802268136843F40073136057
:101AE80023681A69636A1A70626A531C6362238DD9
:101AF800013B2385638D013B9BB2638523681B698A
:101B08005370636A01336362238D013B2385638DC0
:101B1800013B9BB26385238D002B72D0032B49D8E0
:101B2800012BB7D0022BCCD000950E9B00223C494C
:101B38002046FFF786FB00287CD12268136823F42F
:101B48008063136023681A69636A1A70636A0133D1
:101B58006362238D013B2385638D013B9BB26385C3
:101B680000950E9B00222E492046FFF76AFB0028AD
:101B780062D12268136843F40073136023681A69FA
:101B8800636A1A70626A531C6362238D013B238562
:101B9800638D013B9BB2638523681B695370636A3D
:101BA80001336362238D013B2385638D013B9BB227
:101BB8006385B0E72A460E992046FFF71FFD0028E7
:101BC8003CD123681A69636A1A70626A531C63629B
:101BD800238D013B2385638D013B9BB2638523687D
:101BE800596911F0040F96D01B695370636A013369
:101BF8006362238D013B2385638D013B9BB2638523
:101C080089E7202384F83D30002384F83E3084F8A7
:101C18003C30BCE60226BAE6020010000000FFFFD6
:101C2800040001000226B2E60126B0E60126AEE66F
:101C38000126ACE60126AAE60126A8E60126A6E6C4
:101C4800002800F0BB8170B582B00446036813F029
:101C5800010F3BD0A74B9B6803F00C03042B2CD03F
:101C6800A44B9B6803F00C03082B21D06368B3F5E1
:101C7800803F4FD0B3F5A02F52D09E4B1A6822F464
:101C880080321A601A6822F480221A606368002B76
:101C980050D0FFF753F90546964B1B6813F4003FE5
:101CA80014D1FFF74BF9401B6428F5D903208AE1CA
:101CB800904B5B6813F4800FD8D08E4B1B6813F4DD
:101CC800003F03D06368002B00F07A81236813F08B
:101CD800020F55D0874B9B6813F00C0F3ED0854BF5
:101CE8009B6803F00C03082B33D0E368002B68D003
:101CF800814B01221A60FFF721F905467D4B1B68CD
:101D080013F0020F54D1FFF719F9401B0228F5D937
:101D1800032058E1774A136843F480331360B5E72A
:101D2800744B1A6842F480221A601A6842F48032AE
:101D38001A60ABE7FFF702F905466E4B1B6813F410
:101D4800003FC3D0FFF7FAF8401B6428F5D90320F9
:101D580039E1684B5B6813F4800FC6D1654B1B688B
:101D680013F0020F04D0E368012B01D001202AE10F
:101D7800604A136823F0F803216943EAC10313603A
:101D8800236813F0080F40D0636963B35B4B0122EB
:101D98001A60FFF7D3F80546564B5B6F13F0020F36
:101DA80033D1FFF7CBF8401B0228F5D903200AE10D
:101DB800504A136823F0F803216943EAC10313600A
:101DC800DEE74D4B00221A60FFF7B8F80546494B8D
:101DD8001B6813F0020FD3D0FFF7B0F8401B02289E
:101DE800F5D90320EFE0454B00221A60FFF7A6F86B
:101DF8000546404B5B6F13F0020F06D0FFF79EF8C5
:101E0800401B0228F5D90320DDE0236813F0040FF6
:101E180079D0384B1B6C13F0805F33D100230193CA
:101E2800344B1A6C42F080521A641B6C03F08053D6
:101E38000193019B0125324B1B6813F4807F23D04B
:101E4800A368012B34D0052B38D02A4B1A6F22F007
:101E580001021A671A6F22F004021A67A368002B9E
:101E680036D0FFF76BF80646224B1B6F13F0020FB4
:101E780048D1FFF763F8801B41F288339842F3D9C1
:101E88000320A0E00025D6E71D4A136843F48073B9
:101E98001360FFF753F80646194B1B6813F4807F4D
:101EA800CED1FFF74BF8801B0228F5D903208AE032
:101EB800104A136F43F001031367CFE70D4B1A6FF6
:101EC80042F004021A671A6F42F001021A67C5E766
:101ED800FFF734F80646074B1B6F13F0020F11D0BB
:101EE800FFF72CF8801B41F288339842F3D903207E
:101EF80069E000BF0038024000004742800E4742B8
:101F080000700040E5B9A369002B5BD0304A9268A5
:101F180002F00C02082A58D0022B17D02D4B0022B1
:101F28001A60FFF70BF80446294B1B6813F0007F73
:101F380042D0FFF703F8001B0228F5D9032042E03E
:101F4800234A136C23F080531364DCE7214B0022EF
:101F58001A60FEF7F3FF05461D4B1B6813F0007F60
:101F680006D0FEF7EBFF401B0228F5D903202AE034
:101F7800E369226A1343626A43EA8213A26A520837
:101F8800013A43EA0243E26A43EA0263104A5360B1
:101F9800104B01221A60FEF7D1FF04460C4B1B6858
:101FA80013F0007F06D1FEF7C9FF001B0228F5D900
:101FB800032008E0002006E0002004E0012070472C
:101FC800012000E0002002B070BD0120FBE700BF47
:101FD8000038024060004742324B9B6803F00C0314
:101FE800042B5CD0082B01D02F4870472DE9F04B0B
:101FF8002C4B5A6802F03F025B6813F4800F2BD019
:10200800284B5B68C3F388131E4600275C01002534
:10201800E41A65EB0705A90141EA9461A001001BD8
:1020280061EB0501CB0043EA5073C400A01943EBF0
:1020380007014B0243EAD0534402204619460023C5
:10204800FEF7AAFD174B5B68C3F3014301335B003E
:10205800B0FBF3F0BDE8F08B124B5B68C3F3881359
:102068001E4600275C010025E41A65EB0705A90157
:1020780041EA9461A001001B61EB0501CB0043EA32
:102088005073C400A01943EB07018B0243EA905335
:102098008402204619460023FEF77EFDD2E7034856
:1020A800704700BF003802400024F40000127A0094
:1020B800002800F09D8070B504464F4B1B6803F064
:1020C8000F038B4209D2CBB24B4A1370136803F04B
:1020D8000F038B4201D0012070BD236813F0020F5B
:1020E80017D013F0040F04D0444A936843F4E05324
:1020F8009360236813F0080F04D0404A936843F4B0
:10210800604393603D4A936823F0F003A06803435B
:1021180093600D46236813F0010F32D06368012BDA
:1021280021D09A1E012A25D9344A126812F0020FCA
:1021380060D032498A6822F0030213438B60FEF7AD
:10214800FDFE06462D4B9B6803F00C036268B3EB5B
:10215800820F16D0FEF7F2FE801B41F288339842B8
:10216800F0D90320B8E7254A126812F4003FE0D1FD
:102178000120B1E7214A126812F0007FD9D101206D
:10218800AAE71D4B1B6803F00F03AB4209D9EAB25B
:10219800194B1A701B6803F00F03AB4201D00120E2
:1021A8009AE7236813F0040F06D0144A936823F4BF
:1021B800E053E1680B439360236813F0080F07D0DE
:1021C8000E4A936823F46043216943EAC10393608C
:1021D800FFF702FF094B9B68C3F30313084AD35C5C
:1021E800D840084B18600020FEF75EFE002073E719
:1021F8000120704701206FE7003C02400038024090
:10220800AC68000810000020014B1868704700BF38
:102218001000002008B5FFF7F7FF044B9B68C3F3D5
:102228008223034AD35CD84008BD00BF003802406F
:10223800BC68000808B5FFF7E7FF044B9B68C3F3C9
:102248004233034AD35CD84008BD00BF003802407F
:10225800BC6800080268D36823F49073D3600268EE
:10226800536923F001035361202380F83A30704703
:1022780090F83930DBB2212B2AD18368B3F5805F1F
:1022880016D0036A5A1C02621A7803685A60C38C13
:10229800013B9BB2C384EBB90268D36823F0800387
:1022A800D3600268D36843F04003D36000207047CE
:1022B800036A1B880268C3F30803536003691BB9E8
:1022C800036A02330362E2E7036A01330362DEE76B
:1022D80002207047002070472DE9F8430446026841
:1022E800136923F44053C1680B431361836802697F
:1022F800134342691343C2691A430168CB6823F444
:10230800164323F00C031343CB600268536923F48C
:10231800407381690B435361C369B3F5004F60D0C3
:102328000368B84A934200F0148102F58062934230
:1023380000F00F81FFF76EFF00EB800000EB8000DC
:102348006568AD00B0FBF5F5AF4FA7FB05356D0926
:102358002E01FFF75FFF00EB800000EB800065684F
:10236800AD00B0FBF5F9FFF755FF00EB800000EB7F
:1023780080006568AD00B0FBF5F5A7FB05356D0974
:102388004FF0640808FB15952D013235A7FB05357C
:102398006D0905F0F0053544FFF73CFF00EB8000C0
:1023A80000EB80006668B600B0FBF6F6FFF732FF78
:1023B80000EB800000EB800063689B00B0FBF3F04B
:1023C800A7FB0030400908FB10684FEA081808F11D
:1023D8003208A7FB0837C7F3431723682F449F60C9
:1023E8000DE10368874A93425BD002F5806293420D
:1023F80057D0FFF70FFF00EB800000EB8000656807
:102408006D00B0FBF5F5804FA7FB05356D092E0172
:10241800FFF700FF00EB800000EB800065686D00AF
:10242800B0FBF5F9FFF7F6FE00EB800000EB80004B
:1024380065686D00B0FBF5F5A7FB05356D094FF034
:10244800640808FB1595ED003235A7FB05356D09C5
:102458006D0005F4F8753544FFF7DCFE00EB8000ED
:1024680000EB800066687600B0FBF6F6FFF7D2FE58
:1024780000EB800000EB800063685B00B0FBF3F3C7
:10248800A7FB03235B0908FB13684FEAC80808F198
:102498003208A7FB0837C7F3421723682F449F6009
:1024A800ADE0FFF7C7FE00EB800000EB8000656839
:1024B8006D00B0FBF5F5544FA7FB05356D092E01EE
:1024C800FFF7B8FE00EB800000EB800065686D0048
:1024D800B0FBF5F9FFF7AEFE00EB800000EB8000E3
:1024E80065686D00B0FBF5F5A7FB05356D094FF084
:1024F800640808FB1595ED003235A7FB05356D0915
:102508006D0005F4F8753544FFF794FE00EB800084
:1025180000EB800066687600B0FBF6F6FFF78AFEEF
:1025280000EB800000EB800063685B00B0FBF3F316
:10253800A7FB03235B0908FB13684FEAC80808F1E7
:102548003208A7FB0837C7F3421723682F449F6058
:1025580055E0FFF76FFE00EB800000EB8000656838
:10256800AD00B0FBF5F5284FA7FB05356D092E0129
:10257800FFF760FE00EB800000EB80006568AD00AF
:10258800B0FBF5F9FFF756FE00EB800000EB80008A
:102598006568AD00B0FBF5F5A7FB05356D094FF093
:1025A800640808FB15952D013235A7FB05356D0923
:1025B80005F0F0053544FFF73DFE00EB800000EB29
:1025C80080006668B600B0FBF6F6FFF733FE00EB56
:1025D800800000EB800063689B00B0FBF3F0A7FB72
:1025E8000030400908FB10684FEA081808F1320863
:1025F800A7FB0837C7F3431723682F449F60BDE83C
:10260800F88300BF001001401F85EB5158B310B587
:10261800044690F839300BB3242384F83930226803
:10262800D36823F40053D3602046FFF755FE226891
:10263800136923F4904313612268536923F02A0332
:1026480053612268D36843F40053D3600020E063E9
:10265800202384F8393084F83A3010BD80F83830B7
:1026680000F068FDD8E701207047704708B5016899
:10267800CB6823F04003CB60202380F83930FFF784
:10268800F4FF002008BD704708B590F83A30DBB277
:10269800222B45D18368B3F5805F0ED0036903BB55
:1026A80003685A68836A591C81621A70C38D013B9A
:1026B8009BB2C385F3B1002033E0826A036943B952
:1026C80003685B68C3F308031380836A0233836279
:1026D800ECE703685B68DBB21380836A01338362CB
:1026E800E4E703685B68826A511C816203F07F0338
:1026F8001370DBE70268D36823F02003D360026815
:10270800D36823F48073D3600268536923F001030C
:102718005361202380F83A30FFF7B5FF002000E02E
:10272800022008BD7047000010B50446026813680F
:10273800D168526913F00F0005D113F0200F02D0B1
:1027480011F0200F53D1002867D012F0010202D1F6
:1027580011F4907F61D013F0010F06D011F4807F3F
:1027680003D0E06B40F00100E06313F0040F04D0E5
:102778001AB1E06B40F00200E06313F0020F04D0DE
:102788001AB1E06B40F00400E06313F0080F04D0C6
:102798001AB1E26B42F00802E263E26B002A48D009
:1027A80013F0200F02D011F0200F24D123685B69A9
:1027B80003F04003E26B12F0080F00D13BB3204650
:1027C800FFF748FD23685A6912F0400F1BD05A6979
:1027D80022F040025A61636B8BB11A4A1A65606B2A
:1027E800FEF730FC28B3606B036D984721E0204664
:1027F800FFF74AFF1DE02046FFF746FFD6E72046D1
:10280800FFF790FF15E02046FFF78CFF11E0204608
:10281800FFF788FF0023E3630BE013F0800F02D07B
:1028280011F0800F06D113F0400F02D011F0400FC5
:1028380004D110BD2046FFF71BFDFAE72046FFF73D
:1028480015FFF6E75128000808B5806B0023C385FB
:10285800C384FFF767FF08BDF0B587B000238DF884
:102868001730174B1B68ADF814301B0C8DF8163059
:10287800144D4FF47A760296012401940DF1170352
:10288800009323466B22D2212846FEF7BDFF02960D
:102898000323019305AF009723461A22D221284625
:1028A800FEF7B2FF78238DF8143002960194009752
:1028B80023462322D2212846FEF7A6FF07B0F0BD03
:1028C800A8680008A802002000B587B004AB002261
:1028D8000492ADF814204FF47A7202920622019203
:1028E800009301234322D2211648FFF741F89DF8AF
:1028F80010209DF8113043EA02231BB2124A07EE5A
:10290800903AF8EEE77AC2ED007A9DF812109DF839
:10291800133043EA01231BB207EE903AF8EEE77A48
:10292800C2ED017A9DF814109DF8153043EA012391
:102938001BB207EE903AF8EEE77AC2ED027A07B0DA
:102948005DF804FBA80200201403002000B587B03E
:1029580004AB00220492ADF814204FF47A7202926C
:1029680006220192009301233B22D2211C48FEF744
:10297800FFFF9DF810209DF8113043EA02231BB297
:1029880007EE903AF8EEE77A9FED167A77EEC77A77
:10299800154AC2ED007A9DF812109DF8133043EAEB
:1029A80001231BB207EE903AF8EEE77A9FED0F7A13
:1029B80077EEC77AC2ED017A9DF814109DF81530AC
:1029C80043EA01231BB207EE903AF8EEE77A9FED4F
:1029D800087A77EE877AC2ED027A07B05DF804FBD1
:1029E800A802002000803E43080300200000A04207
:1029F80000E073440000000038B5274B1968274AE7
:102A080011605968516099689160254C2168254A80
:102A1800116061685160A1689160234AD2ED007A23
:102A28009FED227A67EE877AC3ED007AD2ED017ABC
:102A380067EE877AC3ED017AD2ED027A67EE877A7C
:102A4800C3ED027A1A4D2868FDF726FD10A3D3E9D5
:102A58000023FDF7A3FEFEF74FF820606868FDF736
:102A68001BFD0BA3D3E90023FDF798FEFEF744F8FE
:102A78006060A868FDF710FD05A3D3E90023FDF702
:102A88008DFEFEF739F8A06038BD00BFAFF30080B7
:102A9800666666666666304038030020FC020020E1
:102AA8002C03002020030020080300200000003928
:102AB80014030020000000002DE9F04F2DED068BD7
:102AC80083B0C94FDFF860A3DAE90023C7E9002320
:102AD800C64EDFF858B3DBE90023C6E90023C44D2E
:102AE800D5E900230020C349FDF776FB80468946D7
:102AF800C14C94ED008A28EE087AD4ED017A67EE8D
:102B0800A77A37EE277AD4ED027A67EEA77A77EEBE
:102B1800277A17EE900AFDF7BFFC41EC100B00F086
:102B28002DFCB0EE409AF0EE609A18EE100AFDF710
:102B3800B3FCB0EE491AF0EE691A41EC100B00F044
:102B48001BFCA7A3D3E9002351EC100BFDF7FCFCF9
:102B580002460B4640464946FDF7F6FCCDE9000122
:102B6800D5E90089D7E9002340464946FDF7ECFC42
:102B780002460B46DDE90001FDF730FBCAE900011A
:102B880042464B4600209B49FDF726FB8046894676
:102B980094ED018AD4ED007A67EEA77A28EE087AD8
:102BA80077EE877A94ED027A27EE077A77EE877ABE
:102BB80017EE900AFDF770FC41EC100B00F0DEFBFD
:102BC800B0EE409AF0EE609A18EE100AFDF764FC39
:102BD800B0EE491AF0EE691A41EC100B00F0CCFB8C
:102BE8007FA3D3E9002351EC100BFDF7ADFC02469F
:102BF8000B4640464946FDF7A7FCCDE90001D5E95B
:102C08000089D6E9002340464946FDF79DFC024667
:102C18000B46DDE90001FDF7E1FACBE90001774C4D
:102C2800D4E90067764BC3E90067764B93ED008BD8
:102C3800754B83ED008B42464B4600206D49FDF7EE
:102C4800CBFACDE9000102460B4630463946FDF77E
:102C58007BFC06460F46DFF8D89199ED007ADFF83D
:102C6800D481D8ED007A77EE677A17EE900AFDF7EF
:102C780013FC02460B46DDE90001FDF765FC024640
:102C88000B4630463946FDF7A9FAC4E90001DDE9EB
:102C9800002351EC180BFDF757FC06460F4699ED3B
:102CA800017AD8ED017A77EE677A17EE900AFDF788
:102CB800F3FB02460B46DDE90001FDF745FC024641
:102CC8000B4630463946FDF789FA4E4BC3E90001F9
:102CD800FEF734F9FDF7BEFB4C4FD7E90023FDF7AB
:102CE8007BFA4B4EC6E90001FEF728F9FDF7B2FB67
:102CF800C7E90001D5E9008942464B4600203D4915
:102D0800FDF76AFACDE9000196ED00ABD4E900239E
:102D180051EC1A0BFDF718FC00223E4BFDF73EFD67
:102D280004460D463C4E3068FDF7B6FB22462B465E
:102D3800FDF754FA02460B46DDE90001FDF704FCF5
:102D480004460D46DAE9002340464946FDF7FCFBF8
:102D580002460B4620462946FDF740FAFDF7CCFE11
:102D680008EE100A3060274BD3E9002351EC1A0B08
:102D7800FDF7EAFB0022274BFDF710FD04460D4640
:102D8800264E3068FDF788FB22462B46FDF726FACB
:102D980002460B46DDE90001FDF7D6FB04460D4669
:102DA800DBE9002340464946FDF7CEFB02460B46C9
:102DB80020462946FDF712FAFDF79EFE07EE900A17
:102DC800306038EE088A164B83ED008A77EEA77AD2
:102DD800144BC3ED007A03B0BDEC068BBDE8F08F51
:102DE800B0CB631ADCA54C4068020020A00200208A
:102DF800080000200000F03F3803002048020020AF
:102E080078020020580200208802002008020020D2
:102E18002002002000408F40280200202C020020C1
:102E280018020020100200208002002098020020D2
:102E38002C0300202003002082B0002100910B4BBE
:102E48001A6B42F001021A631A6B02F00102009237
:102E5800009A01911A6B42F004021A631B6B03F08B
:102E680004030193019B02B0704700BF0038024081
:102E780008B50948094B0360094B43600023836088
:102E8800C3604FF48042026143618361C36103629E
:102E9800FEF7EAFB08BD00BFA8020020005C004066
:102EA800A086010008B50848084B03604FF4E133D9
:102EB800436000238360C36003610C224261836125
:102EC800C361FFF7A3FB08BD440300200044004092
:102ED80030B595B03022002108A801F0A7FF0024E2
:102EE8000394049405940694079401941B4B1A6C5C
:102EF80042F080521A641B6C03F080530193019BCB
:102F08000294174B1A6842F440421A601B6803F493
:102F180040430293029B0225089501230B9310233B
:102F28000C930E950F9408231093C022119204223B
:102F38001292139308A8FEF783FE0F2303930495B8
:102F480005944FF4A05306934FF48053079303213D
:102F580003A8FFF7ADF815B030BD00BF0038024038
:102F6800007000400000000008B5FDF7C1FFFDF744
:102F7800E5FFFDF76FFA2E4BC3E90001FFF7A8FF45
:102F8800FFF75AFFFFF774FFFFF78CFF2948FEF79A
:102F98006BFB2948FFF73AFBFFF75EFCFFF794FC51
:102FA800FFF7D4FCFFF728FDFFF786FD204CA0684B
:102FB800FDF772FA1AA3D3E90023FDF7C5FA41EC2D
:102FC800100B00F079F951EC100B10EE102A0B469B
:102FD800FDF7BAFAFDF790FDE0602069FDF75CFAAD
:102FE8000FA3D3E90023FDF7AFFA41EC100B00F073
:102FF80063F951EC100B10EE102A0B46FDF7A4FAFA
:1030080009A3D3E90023FDF79FFA00220B4BFDF734
:10301800E5F8FDF771FD60610A20FDF795FFBDE752
:1030280011DD52A246DF913F000000000083D3402B
:1030380008020020A80200204403002000003440B9
:1030480000B583B0002100910C4B5A6C42F48042C9
:103058005A645A6C02F480420092009A01911A6CE8
:1030680042F080521A641B6C03F080530193019B59
:103078000720FDF77DFF03B05DF804FB0038024030
:103088002DE9F04389B00023039304930593069335
:1030980007930268234B9A4202D009B0BDE8F08337
:1030A80000250095204C236B43F004032363236B16
:1030B80003F004030093009B0195236B43F0010385
:1030C8002363236B03F001030193019B4FF4007307
:1030D80003934FF01209CDF810904FF00108CDF886
:1030E8001480032706970426079603A90F48FDF7BF
:1030F800BDFF4FF480730393CDF81090CDF8148082
:103108000697079603A90A48FDF7B0FF0295236CB6
:1031180043F400032364236C03F400030293029B2B
:10312800BBE700BF005C00400038024000080240D6
:103138000000024010B588B0002303930493059360
:10314800069307930268194B9A4201D008B010BD44
:103158000024019403F5FA331A6C42F400321A641D
:103168001A6C02F400320192019A02941A6B42F02E
:1031780001021A631B6B03F001030293029B0C23E9
:103188000393022304930123059303230693072340
:10319800079303A90648FDF769FF22462146262022
:1031A800FDF7F8FE2620FDF729FFCFE70044004091
:1031B800000002407047FEE7FEE7FEE7FEE77047C3
:1031C8007047704708B5FDF7ADFE08BD08B5024861
:1031D800FFF7AAFA08BD00BF4403002008B503465C
:1031E8000B4A126842B10A4A106803446A4693427D
:1031F80006D8074A136008BD054A06491160F2E778
:1032080001F0EAFD0C2303604FF0FF30F3E700BF45
:1032180034020020880300200F49D1F8883043F495
:103228007003C1F888300D4B1A6842F001021A6029
:10323800002098601A6822F0847222F480321A60A2
:10324800074A5A601A6822F480221A60D8604FF040
:1032580000638B60704700BF00ED00E0003802405B
:1032680010300024DFF834D0002103E00C4B5B5809
:10327800435004310B480C4B42189A42F6D30B4A80
:1032880002E0002342F8043B094B9A42F9D3FFF7C6
:10329800C3FF01F0A7FDFFF767FE7047000002209B
:1032A800206D000800000020E8010020E80100204F
:1032B80088030020FEE7000000B551EC100B2C4AF3
:1032C80021F00043934285B027DD2A4A934209DD65
:1032D80010EE102A0B46FCF77FFF41EC100B05B0EF
:1032E8005DF804FB684600F08BF900F00300012844
:1032F8001FD0022830D028B39DED021B9DED000B96
:1033080000F072FC53EC102B10EE100A03F1004190
:1033180041EC100B05B05DF804FB00209FED121B7B
:1033280001F0B2F951EC100B41EC100B05B05DF84F
:1033380004FB9DED021B9DED000B00F055FC51ECCC
:10334800100BCAE701209DED021B9DED000B01F05B
:103358009BF951EC100BC0E701209DED021B9DED80
:10336800000B01F091F9CDE700000000000000001B
:10337800FB21E93FFFFFEF7F00F05EB82DE9F04346
:103388002DED028B8BB055EC104B00F063FB274BF7
:10339800B0EE408AF0EE608A93F90060731C12D098
:1033A80022462B4620462946FDF768FB074650B9BA
:1033B8004FF000084FF000092046294642464B4688
:1033C800FDF734FB40B9B0EE480AF0EE680A0BB0DE
:1033D800BDEC028BBDE8F0830122154B08970092E3
:1033E800CDE90445CDE90245019396B142464B46E5
:1033F80040464946FDF7D2F9022ECDE906010AD129
:1034080001F0EAFC21230360089B53B99DED068B6C
:10341800D9E7CDE90689684601F042FC0028F3D1D6
:10342800EEE701F0D9FC089B0360EFE714000020E9
:10343800C46800080000000051EC110B43422DE95C
:10344800F047034321F0004E6B4F4EEAD373BB4263
:1034580055EC104B1ED86342234325F0004A4AEA34
:10346800D373BB42A94615D801F1404303F5801335
:1034780003433DD08E1706F002065AEA040346EAD3
:10348800D5760FD1022E52D0032E3CD148A1D1E9D6
:10349800000103E022462B46FCF7A0FE41EC100B8E
:1034A800BDE8F0875EEA000326D0BE452FD0BA45B6
:1034B80022D0AAEB0E0E4FEA2E5EBEF13C0F3ADC8C
:1034C80000293CDA1EF13C0F39DA00200021012ED8
:1034D80051D0022E42D0002EE0D037A3D3E90023EA
:1034E800FCF77AFE36A3D3E90023FCF775FED5E78F
:1034F800BDE8F04701F094B9B9F1000F13DB32A130
:10350800D1E90001CAE710EE100A2946C6E7F245DC
:1035180035D0022E0BD0032EB8D0012E4FF000006C
:1035280037D00021BAE72AA1D1E90001B6E724A1E2
:10353800D1E90001B2E724A1D1E90001C7E70246B9
:103548000B4620462946FDF729F941EC100B01F0FE
:1035580013FB01F065F951EC100BB8E716A3D3E99A
:103568000023FCF739FE02460B4615A1D1E90001FC
:10357800FCF732FE92E701F1004319468EE7022E6E
:1035880012D0032E0CD0012E06D013A1D1E90001D0
:1035980084E74FF0004181E711A1D1E900017DE7FF
:1035A80011A1D1E9000179E711A1D1E9000175E77D
:1035B800182D4454FB2109C0075C143326A6A13CEE
:1035C800182D4454FB210940182D4454FB21F93F80
:1035D800182D4454FB21F9BF182D4454FB21E93F11
:1035E800182D4454FB21E9BFD221337F7CD902C076
:1035F800D221337F7CD902400000F07F0000000018
:103608002DE9F04753EC102BBF4923F000478F42B8
:1036180090B040F39380BD498F421C46824629DC16
:10362800002C194610EE100AADA3D3E9002340F38D
:103638009080FCF7D1FDB64B9F4204460D4600F042
:103648007381A9A3D3E90023FCF7C6FD02460B4604
:10365800CAE9002320462946FCF7BEFDA2A3D3E908
:103668000023FCF7B9FD0125CAE90201284610B07C
:10367800BDE8F087A7498F4240F38A80A6498F4268
:1036880000F320813D15A5F2164510EE100AA7EBB0
:10369800055116460F46FDF707FAFCF7EBFE804684
:1036A800894642464B4630463946CDE90A89FCF7F9
:1036B80093FD0022994BFCF747FF89468046FDF7AA
:1036C800F3F9FCF7D7FE06460F4632463B4640461E
:1036D8004946CDE90C67FCF77FFD00228F4BFCF7CC
:1036E80033FF00220023CDE90E01FDF795F90028EC
:1036F80000F065810023304639460022FDF78CF939
:10370800002814BF01230223854A019202212A4678
:1037180000910AA8514600F0ABFB002C054614DACC
:10372800DAF80420DAF80C3002F1004203F1004321
:103738004542CAF80420CAF80C3006E080ED000BB8
:1037480000250024C0E902450025284610B0BDE840
:10375800F087FCF743FD6E4B9F4204460D4600F090
:10376800108161A3D3E90023FCF738FD02460B461C
:10377800CAE9002329462046FCF72EFD5AA3D3E9BF
:103788000023FCF72BFD4FF0FF35CAE90201DCE707
:1037980001F0F2F959EC108B10EE100A54A3D3E99A
:1037A80000234946FCF7D0FE00225E4BFCF716FDCD
:1037B800FDF77AF90546FCF75DFE49A3D3E9002336
:1037C800CDE90601FCF7C0FE02460B4640464946D5
:1037D800FCF702FD44A3D3E9002380468946DDE9CE
:1037E8000601CDE90289FCF7AFFE1F2D02460B4604
:1037F800CDE9042340F3B580DDE90423DDE90201C6
:10380800FCF7EAFC804689463F15C9F30A53FB1AC0
:10381800102B40F3B38038A3D3E90023DDE9060178
:10382800FCF792FE8046894602460B46DDE9020116
:10383800FCF7D2FC02460B46DDE90201CDE908237C
:10384800FCF7CAFC42464B46FCF7C6FC2CA3D3E95E
:10385800002380468946DDE90601FCF775FE4246ED
:103868004B46FCF7B9FC0B46CDE904010246DDE9FD
:103878000801FCF7B1FCC1F30A53FF1A312F804647
:10388800894600F39E809DED087BCAE900898DED8D
:10389800027B42464B46DDE90201FCF79DFCDDE96F
:1038A8000423FCF799FC002CCAE90201BFF64DAFCE
:1038B80009F1004401F100436D42CAE90084CAE9F4
:1038C800020342E710EE100A1946FCF785FC0025B2
:1038D800CAE90201CAE9000137E700BFAFF3008077
:1038E80000004054FB21F93F3163621A61B4D03DB6
:1038F80083C8C96D305FE43F0000601A61B4D03DF1
:103908007370032E8A19A33BFB21E93F7BD9024040
:10391800FB21F93FFB213941FFFFEF7F0000704198
:103928004C6900080000E03F41A3D3E90023FCF7FD
:1039380053FC41A3D3E900230D460446FCF74CFC95
:1039480002460B46CAE9002329462046FCF744FCF8
:1039580039A3D3E90023FCF73FFC0125CAE902019A
:10396800F3E640464946FCF737FC394B6A1E804669
:1039780053F82230BB4289463FF446AFCAE9008972
:1039880087E72BA3D3E90023FCF728FC2AA3D3E974
:1039980000230D460446FCF721FC02460B46CAE903
:1039A800002329462046FCF717FC23A3D3E900236C
:1039B800FCF714FC4FF0FF35CAE90201C5E6032302
:1039C800A2E61FA3D3E90023DDE90601FCF7BCFD4D
:1039D80006460F4602460B46DDE90801FCF7FCFBEC
:1039E8008046894602460B46DDE90801CDE9028991
:1039F800FCF7F2FB32463B46FCF7EEFB12A3D3E999
:103A0800002306460F46DDE90601FCF79DFD324618
:103A18003B46FCF7E1FB02460B4640464946CDE9EA
:103A28000423FCF7D9FB80468946A7E7AFF300805B
:103A38000000601A61B4D03D7370032E8A19A33B4D
:103A48000000002E8A19A33BC14920259A837B399F
:103A5800CC6800082DE9F041624A57EC106BBA4374
:103A680000F09580002F3B4610EE101A344654DDC6
:103A78003F1500F0AF80C3F31303A7F2FF3743F4F9
:103A88008013E20FF90702EB43034FEA440503D51D
:103A9800ED0F05EB4303A50000267F10B446162260
:103AA8004FF400110CEB010098424FEAD5744FEA2D
:103AB800450503DC1B1A00EB010C0E44013A04EB2C
:103AC80043034FEA5101EDD11046964620244FF0AA
:103AD800004209E052D05B00013C03EBD5734FEA8A
:103AE80052024FEA450536D0634502EB0E01F1DD7F
:103AF800002901EB020E0ADBE046A3EB0C03A94206
:103B080088BF03F1FF336D1A1044C446E3E7BEF1E2
:103B1800000FF1DB0CF10108EFE727F00042324318
:103B28002AD0002F49D1CA0A153B4905002AFAD0E4
:103B380012F4801001D050E020465200D50200F166
:103B48000104F9D5C4F1200501FA04F4E9401F1A6B
:103B580041EA02038FE72B4329D144087110F30788
:103B680001F17F5101F5001148BF44F0004401EB19
:103B78000753224643EC102BBDE8F081A942AAD88E
:103B8800002901EB020EC2DB98460023BBE710EECA
:103B9800102A3B4610EE100A3946FCF7D5FC32468F
:103BA8003B46FCF71BFB41EC100BBDE8F081421CC7
:103BB80016BF421C01365408D0E710EE102A3046D2
:103BC8003946FCF709FB02460B46FCF7E7FD41ECDA
:103BD800100BD1E71A463B46AAE70C4620254FF0C2
:103BE800FF30B3E70000F07F2DE9F04F57EC106B82
:103BF8002DED028BB0EE418AF0EE618A27F0004984
:103C0800B9F1795F83B072DA10EE100A3946FCF721
:103C18004BFF002800F0ED8032463B4630463946DF
:103C2800FCF792FC7CA3D3E9002304460D46FCF77D
:103C38008BFC7BA3D3E90023FCF7D0FA22462B4662
:103C4800FCF782FC78A3D3E90023FCF7C5FA2246E7
:103C58002B46FCF779FC76A3D3E90023FCF7BEFAE0
:103C680022462B46FCF770FC73A3D3E90023FCF72C
:103C7800B3FA22462B46FCF767FC71A3D3E900236D
:103C8800FCF7ACFA22462B46FCF75EFC82468B46D4
:103C98000022714B20462946FCF756FC52468046C6
:103CA80089465B4620462946FCF74EFC53EC182B08
:103CB80004460D4630463946FCF746FC02460B469C
:103CC80020462946FCF788FA02460B4640464946F4
:103CD800FCF782FA02460B4600206049FCF77CFAA2
:103CE80041EC100B03B0BDEC028BBDE8F08F10EE79
:103CF800102A10EE100A3B463946FCF725FC46A36D
:103D0800D3E9002304460D46FCF71EFC44A3D3E97F
:103D18000023FCF763FA22462B46FCF715FC42A366
:103D2800D3E90023FCF758FA22462B46FCF70CFC93
:103D38003FA3D3E90023FCF751FA22462B46FCF7B0
:103D480003FC3DA3D3E90023FCF746FA22462B46A1
:103D5800FCF7FAFB3AA3D3E90023FCF73FFA2B461A
:103D68002246FCF7F1FB3E4B994582468B468FDD98
:103D78003C4B994544DC0022A9F500130020374943
:103D880090469946FCF728FACDE900010022324B0B
:103D980020462946FCF7D8FB42464B46FCF71CFA5E
:103DA8005246804689465B4620462946FCF7CCFBAE
:103DB80053EC182B04460D4630463946FCF7C4FB35
:103DC80002460B4620462946FCF706FA02460B46F1
:103DD80040464946FCF700FA02460B46DDE9000179
:103DE800FCF7FAF941EC100B03B0BDEC028BBDE80F
:103DF800F08F9FED150B03B0BDEC028BBDE8F08F83
:103E08009FED137B4FF000088DED007BDFF8589095
:103E1800BCE700BFAFF30080D43888BEE9FAA8BD7C
:103E2800C4B1B4BD9EEE213EAD529C804F7E923E01
:103E38009015CB19A001FA3E7751C1166CC1563FB7
:103E48004C5555555555A53F000000000000F03F62
:103E5800000000000000E73F0000E03F0000F03FE6
:103E68003233D33F0000E93F0000D23F000000009A
:103E78002DE9F04FADF5197DC14CA29EC14D54F806
:103E880026600793D41E85FB0475E417C4EBA504CC
:103E980024EAE4741D46631CA3EB8303013D02EB93
:103EA800C3030593731904960994019503900B9124
:103EB800A4EB05071AD43B44002400255E1C0DF131
:103EC8008008DDF88C9208E059F82700FCF7D2FA50
:103ED8000137B742E8E8020108D0002FF4DA0137C9
:103EE80020462946B742E8E80201F6D1049B002B98
:103EF800079B4FEAC30302932ADB039A20A902EB2C
:103F0800030801EB0309049B72AA02EBC30B0DF52E
:103F1800E07A019B002B4FF000064FF0000711DB01
:103F2800039C4D4675E90223F4E80201FCF70CFBFB
:103F380002460B4630463946FCF750F944450646DA
:103F48000F46EFD1EAE80267DA4509F10809E0D13E
:103F5800DDE90204049920448B0082460BA8A3F1F2
:103F68000802C31808930CAB13440A938B4698AB0A
:103F780003EBCB03BBF1000F53E9284529DD70ABF8
:103F880003EBCB080DF1300900227F4B2046294670
:103F9800FCF7DAFAFCF788FDFCF76CFA00227B4B99
:103FA80006460F46FCF7D0FA02460B46204629463D
:103FB800FCF712F9FCF778FD78E9022349F8040BBD
:103FC80039463046FCF70AF970AB984504460D4669
:103FD800DAD1DDF8149045EC104B484600F064FE49
:103FE80055EC104B00224FF07F5310EE100A294673
:103FF800FCF7AAFA41EC100B00F0CAFD002251ECC4
:10400800100B634BFCF7A0FA02460B4620462946E4
:10401800FCF7E2F80D460446FCF746FD8046FCF73F
:1040280029FA0B46024629462046FCF7D5F84B46A6
:10403800002B06460F4640F3E0800BF1FF320CA937
:10404800C9F1180351F8225045FA03F101FA03F3B4
:104058000CA8EB1A40F82230C9F11705884443FA36
:1040680005F5002D2CDDBBF1000F08F1010840F328
:1040780086820C9C002C40F0A680BBF1010F0AD070
:104088000CA9012251F8044F531C002C40F09D80CC
:104098009B451A46F6D1059B002B0EDD012B00F03F
:1040A800D880022B09D10BF1FF320CAB0CA953F8C5
:1040B8002230C3F3150341F82230022D00F0AE8000
:1040C8000022002330463946FCF7A6FC002800F001
:1040D8005882049B0BF1FF394B4510DC0BF18043F0
:1040E8000CAA013B089802EB8303002253F8041939
:1040F800834242EA0102F9D1002A40F0B580049BCC
:104108000CAA013B52F82330002B40F0A0800A9AF9
:10411800012352F8041901330029FAD05B440BF14A
:104128000109994506934BDC099A079909EB02089E
:1041380001EB0B0508F1804802EB030BA39B08F188
:10414800FF3803EB880870AB03EBC909A39B20A9D0
:1041580003EB8B0301EBC505029358F8040FFCF73A
:1041680089F90B4601990246002905F1080BC5E9B2
:1041780000234FF000064FF000071BDB039C0BE009
:10418800986A0008ABAAAA2A0000703E0000704195
:104198000000204075E90223F4E80201FCF7D4F995
:1041A80002460B4630463946FCF718F85445064691
:1041B8000F46EFD1029B9845E9E802675D46CCD1EE
:1041C800DDF818B0D3E6012300220CA9C4F18074ED
:1041D8009B4541F822400EDD51F8232001EB8B006E
:1041E80001EB83036FF07F4100E01A688A1A43F8F5
:1041F800042B8342F9D101244DE706D10BF1FF339B
:104208000CAA52F82350ED152BE700227E4BFCF741
:1042180021FC002840F0A981054651E732463B467B
:1042280000207A49FBF7D8FF06460F46002C3FF4DA
:1042380047AF05989FED700B00F036FD30463946C4
:1042480053EC102BFBF7C8FF06460F4638E701234F
:1042580064E70BF1FF320CAB0CA953F82230C3F31F
:10426800160341F8223028E70CAB059A53F8293099
:10427800183ACDE9068505926BB909F18043013BEF
:104288000CA901EB830353F8041909F1FF39183A13
:104298000029F8D0059205989FED570B00F004FD12
:1042A800B9F1000F55EC104BC0F2C9814FEAC903B0
:1042B80070AA02EB030808930CAB03EB8906DFF83E
:1042C80050B14FF0000A08F10807043656F8040DFB
:1042D800FCF7D0F822462B46FCF736F95B4667E92F
:1042E8000201524620462946FCF72EF90CAB9E42A5
:1042F80004460D46EAD148AB03930193CDF81490D8
:1043080009F10103DDF810900293C3464FF0000A4B
:10431800B9F1000FC0F23081DFF8F8805D4638A3AC
:10432800D3E9002300260027002403E0544510DCCD
:10433800F8E80223F5E80201FCF706F902460B4605
:1043480030463946FBF74AFF0134A14506460F4679
:10435800ECDA019BE3E802670193029B0AF1010A88
:104368009A45ABF1080BD3D1A29BDDF81490032B2F
:1043780039D8DFE813F0DF0006000600530048AB29
:104388000393B9F1000F4FF000004FF0000109DB73
:10439800039D05EBC904083474E90223FBF71EFFEB
:1043A800A542F9D1079B002B40F027810B9BC3E95D
:1043B80000010B4603990246D1E90001FBF70CFF07
:1043C800B9F1000F0CDD4AAD01240134F5E80223F0
:1043D800FBF704FFA145F8DA079B002B40F01D818D
:1043E8000B9BC3E90201069B03F007000DF5197D3D
:1043F800BDE8F08FAFF30080000000000000F03F40
:1044080000000040FB21F93F0000E03F0000F03FC2
:104418000000703E606A000848AB0393B9F1000FD2
:1044280040F32981039ACDF810904FEAC90301930C
:10443800D318D3E900AB09F10053013B02EBC908DB
:104448000293914678E9026752465B463046394600
:10445800FBF7C4FE04460D4602460B463046394675
:10446800FBF7BAFE52465B46FBF7B8FEC145A246CB
:10447800AB46C8E90201C8E90045E3D1DDF8109070
:10448800B9F1010F40F3F780019B039A0299134495
:10449800C900D3E9006701F1080A019192440DF5BA
:1044A800947B7AE9028932463B4640464946FBF707
:1044B80095FE04460D4602460B4640464946FBF724
:1044C8008BFE32463B46FBF789FED34526462F46F0
:1044D800CAE90201CAE90045E3D1019C039B1034F3
:1044E800002000211C4403F1100574E90223FBF7A6
:1044F80075FEA542F9D1039C079ED4E90023D4E9AF
:104508000245002E00F08D8003F1004701F10043C1
:104518000B99C1E90403069B2646944605F100441D
:1045280003F00700C1E900C7C1E902640DF5197D70
:10453800BDE8F08F089C039D0834002000212C441E
:1045480074E90223FBF74AFEA542F9D1079B13B190
:1045580001F1004319460B9BC3E90001069B03F0D8
:1045680007000DF5197DBDE8F08FBBF1000F08F1CC
:10457800010876DD02257CE500260027E9E600240F
:1045880089E5CDE90685059D47EC106B684200F08A
:104598008BFB57EC106B0022384B10EE100A394693
:1045A800FCF758FA00B30022354B30463946FBF782
:1045B800CBFFFCF779FA0446FBF75CFF00222F4B90
:1045C800FBF7C2FF0B46024639463046FBF704FEAE
:1045D800FCF76AFA0BF101090CAB183543F82B000C
:1045E800059543F8294056E630463946FCF75CFA0B
:1045F8000CABD94643F82B004DE60B9C01F1004368
:10460800C4E900030B4603990246D1E90001FBF710
:10461800E3FDB9F1000F3FF7D6AE01F100431946AB
:10462800DEE60B9EC6E90023069BC6E9040103F0FB
:104638000700C6E902450DF5197DBDE8F08FA29B7C
:10464800032B3FF6D0AE01A252F823F065460008CE
:104658008743000887430008214400080020002100
:1046680074E732463B4600200649FBF7B5FD0225B4
:1046780006460F4624E5002000213CE70000704173
:104688000000703E0000F03F2DE9F04F55EC104B54
:104698002DED028BB0EE418AF0EE618A25F00043E1
:1046A800B3F1795F83B0824607DA10EE100A294623
:1046B800FCF7FAF9002800F08E8022462B462046A7
:1046C8002946FBF741FF06460F4602460B462046A1
:1046D8002946FBF739FF47A3D3E9002380468946DB
:1046E80030463946FBF730FF44A3D3E90023FBF7F4
:1046F80073FD32463B46FBF727FF42A3D3E900236D
:10470800FBF76CFD32463B46FBF71EFF3FA3D3E9A0
:104718000023FBF761FD32463B46FBF715FF3DA33F
:10472800D3E90023FBF75AFDCDE90001BAF1000FE8
:1047380037D000222E4B51EC180BFBF705FFDDE9B3
:10474800002382468B4640464946FBF7FDFE02465B
:104758000B4650465946FBF73FFD32463B46FBF7B2
:10476800F3FE53EC182BFBF737FD1FA3D3E9002307
:1047780006460F4640464946FBF7E6FE02460B460C
:1047880030463946FBF72AFD02460B4620462946A5
:10479800FBF722FD41EC100B03B0BDEC028BBDE82A
:1047A800F08F02460B4630463946FBF7CDFE0EA386
:1047B800D3E90023FBF710FD42464B46FBF7C4FE46
:1047C80022462B46FBF70AFD41EC100B03B0BDEC6B
:1047D800028BBDE8F08F45EC104B03B0BDEC028BAB
:1047E800BDE8F08FAFF30080495555555555C53F85
:1047F8000000E03F7CD5CF5A3AD9E53DEB9C2B8AA7
:10480800E6E55A3E7DFEB157E31DC73ED561C119A5
:10481800A0012A3FA6F810111111813F00000000E5
:104828002DE9F84F55EC104BC94B25F000469E4238
:10483800AA4610DDC74B9E4200F3B58000F0B08059
:10484800BAF1000F40F3F980A5A1D1E9000141ECCC
:10485800100BBDE8F88FC04B9E4200F3C380A3F154
:10486800DE739E4240F3A9804FF0FF3B22462B4661
:1048780020462946FBF768FE02460B4680468946D5
:10488800FBF762FE98A3D3E9002306460F46FBF721
:104898005BFE97A3D3E90023FBF7A0FC32463B4617
:1048A800FBF752FE94A3D3E90023FBF797FC3246AB
:1048B8003B46FBF749FE92A3D3E90023FBF78EFCA6
:1048C80032463B46FBF740FE8FA3D3E90023FBF7B4
:1048D80085FC32463B46FBF737FE8DA3D3E9002320
:1048E800FBF77CFC42464B46FBF72EFE8AA3D3E936
:1048F80000238046894630463946FBF725FE88A3C3
:10490800D3E90023FBF768FC32463B46FBF71CFE65
:1049180085A3D3E90023FBF75FFC32463B46FBF750
:1049280013FE83A3D3E90023FBF756FC32463B462C
:10493800FBF70AFE80A3D3E90023FBF74DFC3246C0
:104948003B46FBF701FE02460B4640464946FBF74D
:1049580045FC22462B46FBF7F7FDBBF1FF3F02461D
:104968000B466ED07D4B7E4E4FEACB0B5B44D3E9B2
:104978000023FBF731FC22462B46FBF72DFCB34402
:1049880002460B46DBE90001FBF726FCBAF1000FF3
:104998000FDA01F10043194641EC100BBDE8F88F1E
:1049A800002C3FF44DAF22462B4620462946FBF704
:1049B80015FC41EC100BBDE8F88F61A3D3E9002387
:1049C80010EE100A2946FBF709FC0022654BFCF79C
:1049D8004BF800283FF448AF2046294641EC100B1D
:1049E800BDE8F88F00F0C8F85F4B9E4255EC104BBD
:1049F8002FDCA3F550239E4258DC10EE102A10EE4F
:104A0800100A2B462946FBF7E9FB0022554BFBF71A
:104A1800E3FB002206460F464FF080432046294616
:104A2800FBF7DCFB02460B4630463946FBF7B6FE81
:104A38004FF0000B04460D4618E743A1D1E90001E9
:104A4800B7E720462946FBF7C7FB41EC100BBDE84A
:104A5800F88F464B9E421DDC10EE100A0022444B94
:104A68002946FBF7B9FB002206460F46404B204675
:104A78002946FBF769FD00223A4BFBF7AFFB0246DC
:104A88000B4630463946FBF789FE4FF0020B0446C9
:104A98000D46EBE62B4610EE102A00203549FBF7B1
:104AA8007DFE4FF0030B04460D46DFE610EE100ABC
:104AB80000222C4B2946FBF78FFB002206460F46A7
:104AC800284B20462946FBF789FB02460B46304611
:104AD8003946FBF763FE4FF0010B04460D46C5E669
:104AE800182D4454FB21F93F11DA22E33AAD903FE7
:104AF800EB0D76244B7BA93F513DD0A0660DB13F0D
:104B08006E204CC5CD45B73FFF8300922449C23F74
:104B18000D5555555555D53F2F6C6A2C44B4A2BF39
:104B28009AFDDE522DDEAD3F6D9A74AFF2B0B33F01
:104B3800711623FEC671BC3FC4EB98999999C93F79
:104B48009C7500883CE4377E182D4454FB21F9BF3E
:104B5800FFFF0F440000F07FFFFFDB3FC86A00083B
:104B6800A86A00080000F03FFFFFF23FFF7F034004
:104B78000000F83F0000F0BF51EC100B10EE102AB7
:104B880021F0004343EC102B704700BF00000000E9
:104B980051EC100BC1F30A532DE9F041A3F2FF3594
:104BA800132D0C460F4610EE106A1DDC002D3DDB60
:104BB800394B43FA05F801EA0803034319D034A333
:104BC800D3E90023FBF70AFB00220023FBF74CFF85
:104BD800D0B3002C04DA4FF4801343FA05F52F44C0
:104BE80027EA080400262FE0332D06DDB5F5806F8F
:104BF80030D041EC100BBDE8F081A3F213434FF025
:104C0800FF3828FA03F818EA000FF2D020A3D3E9F6
:104C18000023FBF7E3FA00220023FBF725FF98B1F6
:104C2800002C28DB26EA08063C460DE018A3D3E949
:104C38000023FBF7D3FA00220023FBF715FF18B176
:104C4800002C0FDB002634462346324643EC102B5B
:104C5800BDE8F08110EE102A0B46FBF7BFFA41ECD5
:104C6800100BC8E724F000430C4A1E43002E18BF5F
:104C780014460026E8E7142D08D00123C5F13405B1
:104C880003FA05F5AE1928BFFF18CBE70137C9E7C6
:104C98009C7500883CE4377EFFFF0F000000F0BFE2
:104CA800002070470000000038B553EC102BC3F308
:104CB8000A511C46054629BB10EE101A23F0004481
:104CC80021431ED019460022394B3A4C10EE100AE7
:104CD800FBF73AFCA54202460B4636DB0C46C1F30D
:104CE8000A513639294440F2FE70814235DC0029E8
:104CF80014DD24F0FF4424F4E00444EA015343ECB7
:104D0800102B38BD40F2FF708142EBD110EE100A33
:104D18001946FBF763FA41EC100B38BD11F1350F5A
:104D28001EDA4CF250318D4243EC112B28DD9FEDF9
:104D38001C0B00F043F81AA3D3E9002351EC100B25
:104D4800FBF702FC41EC100B38BD17A3D3E9002395
:104D5800FBF7FAFB41EC100B38BD43EC112BE6E7EF
:104D680024F0FF4424F4E004363144EA01531046A9
:104D780019460022104BFBF7E7FB41EC100B38BD3E
:104D88009FED090B00F01AF807A3D3E9002351ECB3
:104D9800100BFBF7D9FB41EC100B38BDAFF30080CB
:104DA8009C7500883CE4377E59F3F8C21F6EA50154
:104DB80000005043B03CFFFF0000903C53EC102B28
:104DC80011EE900A23F0004100F0004041EA000390
:104DD80043EC102B704700BF014B1868704700BFA9
:104DE8001800002070B50D4E0D4CA41BA410002512
:104DF800A54209D10B4E0C4C01F044FDA41BA41094
:104E08000025A54205D170BD56F8253098470135D3
:104E1800EEE756F8253098470135F2E7186D000897
:104E2800186D0008186D00081C6D00080244034640
:104E3800934200D1704703F8011BF9E72DE9FF47BA
:104E480055EC104B0D9FDDF830A0002D0E46914615
:104E58001946B8BF22462B4627F02007BBBF05F1ED
:104E680000431D4600232D23B8BF1446462F0B7060
:104E780004D0452F00D10136022100E0032103AB05
:104E8800019302AB00933246534645EC104B00F0B9
:104E9800ABFB472F804602D119F0010F26D0462FD1
:104EA80008EB060911D198F80030302B0AD10022FE
:104EB800002320462946FBF7AFFD18B9C6F10106C5
:104EC800CAF80060DAF8003099440022002320462E
:104ED8002946FBF7A1FD38B93022039B4B4505D283
:104EE800591C03911A70F8E7CDF80C90039B0E9AA1
:104EF800A3EB08034046136004B0BDE8F087F7B59C
:104F080000290446BABF49422D232B23092904F856
:104F1800022B437020DD0DF107031F460A2691FB83
:104F2800F6F506FB15113031092D03F8011C03F1C4
:104F3800FF32294609DC3031023B02F8011CBB4232
:104F4800224604D3101A03B0F0BD1346E7E713F85E
:104F5800012B04F8012BF2E7302319448370021D5A
:104F6800C170EFE72DE9F04F8DB00C46DDF85880A1
:104F780016461F46054601F0EFF8036804931846E5
:104F8800FBF78AFF00230A93D8F80030059007330F
:104F980023F0070303F1080294F818A0D4F800B02E
:104FA800C8F80020D3E90023C4E91223D4E9128900
:104FB80029F000430793CDF818804FF0FF32A74B34
:104FC800DDE90601FBF75AFD70BB4FF0FF32A34B3A
:104FD800DDE90601FBF734FD30BB00220023404623
:104FE8004946FBF723FD10B12D2384F843309C4A32
:104FF8009C4BBAF1470F8CBF9046984603232BF081
:105008000402236122604FF00009009733460BAA7F
:105018002146284600F0E6F9013040F08D804FF037
:10502800FF300DB0BDE8F08F42464B46404649463A
:10503800FBF724FD10B18C4A8C4BDAE761684B1CF6
:105048004BF480620AA83ED1062363600023CDE9B1
:10505800020309AB009349EC108B0DF12303226086
:10506800CDF804A061682846FFF7E8FE0AF0DF03E0
:10507800472B804609D1099BD81C02DB6268934202
:1050880047DDAAF1020A5FFA8AFABAF1650F0999AF
:1050980024D80139524604F150000991FFF72FFF37
:1050A8000A9A1318012A8146236102DC2268D10773
:1050B80001D5013323619DF82330002BA5D02D2382
:1050C80084F84330A1E7BAF1670F00F07781BAF1AD
:1050D800470FBBD10029B9D10123B6E7BAF1660F52
:1050E80019D1002963680CDD216113B92268D20740
:1050F80002D501330B442361099BA3654FF00009D6
:10510800D9E713B92268D00701D50233F3E70123A1
:10511800F1E74FF0670ADDE90932934205DB2268BF
:105128002361D107E8D50133E5E7002BD4BFC3F1EC
:10513800020301231344DEE723685A0507D42369D1
:10514800424631462846B84701302BD167E7BAF1C5
:10515800650F40F2DC8000220023D4E91201FBF73E
:105168005BFC002833D00123414A31462846B84722
:1051780001303FF454AFDDE909239A4202DB23688A
:10518800D8070FD5DDE9042331462846B847013052
:105198003FF445AF4FF0000804F11A090A9B013BA0
:1051A800434509DC23689B0700F10381E0680B9BFA
:1051B8009842B8BF184634E701234A463146284684
:1051C800B84701303FF42BAF08F10108E6E7099B27
:1051D800002B2BDC0123264A31462846B8470130EC
:1051E8003FF41DAF099B23B90A9B13B92368D9075C
:1051F800D8D5DDE9042331462846B84701303FF4C5
:105208000EAF4FF0000904F11A0A099B5B424B45A7
:1052180001DC0A9B94E70123524631462846B847E9
:1052280001303FF4FCAE09F10109EEE70A9AA36DDB
:105238009A42A8BF1A46002A914607DD134631460E
:1052480042462846B84701303FF4E9AE04F11A0354
:105258004FF0000B29EAE979069315E0FFFFEF7F8D
:10526800EC6A0008E86A0008F46A0008F06A0008B6
:10527800F86A00080123069A31462846B8470130E3
:105288003FF4CDAE0BF1010BD4F858A0AAEB0903FB
:105298005B45EFDCDDE909239A42D04415DB23683E
:1052A800DA0712D40A9B0999A3EB0A02A3EB010AB5
:1052B8009245A8BF9246BAF1000F0EDC4FF00008E5
:1052C8002AEAEA7A04F11A0919E0DDE904233146E9
:1052D8002846B8470130E5D1A1E653464246314653
:1052E8002846B8470130E9D199E601234A463146B4
:1052F8002846B84701303FF492AE08F10108DDE9CD
:1053080009239B1AA3EB0A034345EEDC4AE70A9AF2
:10531800012A01DCDB073AD50123424631462846FB
:10532800B84701303FF47BAEDDE904233146284617
:10533800B847013008F101083FF471AE0A9B00221A
:1053480003F1FF3AD4E912010023FBF765FBC8B962
:105358005346424631462846B84701300ED15EE6EC
:105368000123524631462846B84701303FF457AE2C
:1053780008F101080A9B013B4345F1DC4B4604F167
:105388005002DEE64FF0000804F11A0AF2E70123A2
:10539800DFE701234A4631462846B84701303FF443
:1053A8003EAE08F10108E3680B9A9B1A4345F0DC0E
:1053B800FCE64FF0000804F11909F4E700293FF46E
:1053C8008BAE0023CDE9020309AB009349EC108BA7
:1053D8002260CDF804A00DF123032846FFF72EFD27
:1053E800804648E62DE9F04791461F468A680B69D2
:1053F800DDF820809342B8BF1346C9F8003091F811
:10540800432006460C4612B10133C9F80030236820
:10541800990642BFD9F800300233C9F80030256830
:1054280015F0060507D104F1190AE368D9F8002038
:105438009B1AAB4228DC94F843302268003318BF2B
:10544800012392062DD404F1430239463046C04761
:10545800013020D02368E568D9F8002003F006035E
:10546800042B08BFAD1AA36822690CBF25EAE575AD
:1054780000259342C4BF9B1AED184FF000091A3457
:105488004D451AD1002008E00123524639463046DE
:10549800C047013003D14FF0FF30BDE8F087013538
:1054A800C3E7E1185A1C302081F84300224494F8DD
:1054B800451082F843100233C5E7012322463946D6
:1054C8003046C0470130E6D009F10109D8E72DE997
:1054D800F74F03690C69A3428046C0F28280013C01
:1054E80001F114074FEA840C00F1140657F8245010
:1054F80056F8240006EB0C03013507EB0C09019361
:10550800B0FBF5F595B34FF0000A3846B646D346DA
:1055180050F8042B93B205FB03A34FEA134A9BB23E
:10552800ABEB0303120CDEF800B005FB02A213FA82
:105538008BF34FEA124A1FFA82FBDEF80020CBEB0E
:10554800124202EB23429BB243EA024381454FEAEF
:10555800224B4EF8043BDBD256F80C3033B9019B92
:10556800043B9E421A4630D3C8F81040404601F02A
:1055780029F8002825DB013530464FF0000C57F894
:10558800042BD0F800E093B2ACEB0303120C13FA2F
:105598008EF3C2EB1E4202EB23429BB243EA024364
:1055A800B9454FEA224C40F8043BE8D256F824208B
:1055B80006EB84032AB9043B9E421A460BD3C8F86B
:1055C8001040284603B0BDE8F08F1268043B002A5B
:1055D800CAD1013CC5E71268043B002AEFD1013C5F
:1055E800EAE70020EEE700002DE9F04F57EC106BDA
:1055F80097B0456A069104460B921293DDF88080B5
:10560800CDE900673DB9102000F0B4FD6062C0E943
:1056180001550560C560636A196851B15A684A60E6
:10562800012393408B60204600F0EBFD636A002263
:105638001A603B1EBBBF23F00043019300230122E5
:10564800ACBFC8F80030C8F80020AF4BDDF80480C4
:1056580033EA080314D1129A42F20F731360009BC5
:1056680023B9C8F31300002800F04285219BDFF816
:10567800ACB2002B00F044850BF1030300F03EBDF3
:10568800DDE900670022002330463946FBF7C4F9FC
:10569800814668B1129A01231360219B002B00F008
:1056A80024859A4B219A03F1FF3B136000F028BD33
:1056B80014AA15A947EC106B204600F0FAFFC8F3AE
:1056C8000A550490002D7CD0C7F3130343F07F5B89
:1056D800B2464BF4401BA5F2FF35CDF84C900022A2
:1056E8008B4B50465946FAF777FD81A3D3E900233F
:1056F800FAF72AFF80A3D3E90023FAF76FFD0646DD
:1057080028460F46FAF7B6FE7DA3D3E90023FAF739
:105718001BFF02460B4630463946FAF75FFD064640
:105728000F46FBF7C1F9002282460023304639466E
:10573800FBF77CF948B15046FAF79CFE32463B46E7
:10574800FBF76AF908B90AF1FF3ABAF1160F59D806
:10575800704901EBCA01DDE90023D1E90001FBF73B
:1057680083F9002850D00AF1FF3A00230F93149BC5
:105778005D1BB5F1010849BFC5F10103002305937D
:105788004FF0000858BF0593BAF1000F3EDB002325
:10579800D044CDF838A00793069B092B00F29080DF
:1057A800052BC4BF043B0693069BA3F10203CCBFA1
:1057B80000250125032B00F28F80DFE803F07D7FB1
:1057C8003171DDE914531D4405F23240202813DD00
:1057D800C0F14000009B08FA00F805F2124023FAD5
:1057E80000F048EA0000FAF735FE01238246A1F1ED
:1057F800F87B013D139372E7009BC0F1200003FA88
:1058080000F0F0E70123B1E70F90B0E7059BA3EBA9
:105818000A030593CAF10003079300230E93BBE71D
:1058280001230A930B9B002B59DD02939946666A64
:1058380000227260042202F114009842716853D960
:10584800204600F0AAFC636A3060B9F10E0FD3F865
:1058580000B000F2E680002D00F0E3809DED007BB3
:10586800BAF1000F8DED107B74DD2A4A0AF00F03A0
:1058780002EBC30393ED007B4FEA2A16F0068DED89
:10588800087B65D5244BDDE91001D3E90823FAF735
:1058980085FFCDE9000106F00F0603251E4F4CE0F9
:1058A80001230A930B9B534403F1010902934B46CE
:1058B800012BB8BF0123BAE70023B2E70023F0E7C2
:1058C8000125002306930A954FF0FF33029399466A
:1058D800002212230B92AAE701230A93F4E701237B
:1058E800029399461A46F5E7013171605200A2E722
:1058F80061436F63A787D23FB3C8608B288AC63FCE
:10590800FB799F501344D33F0000F07FF96A0008E9
:105918000000F83F306B0008086B0008036B0008B4
:10592800F10708D5DDE90801D7E90023FAF70CFEED
:10593800CDE90801013576100837002EF0D1DDE9F0
:105948000823DDE90001FAF729FFCDE900011AE093
:105958000225A3E700F0A080CAF100069F4BA04FE4
:1059680006F00F0203EBC203D3E90023DDE91001BF
:10597800FAF7EAFDCDE90001361100230225002ED1
:105988007FD1002BE1D10F9B002B00F08780DDE950
:1059980000670022934B30463946FBF747F800284A
:1059A8007CD0B9F1000F79D0029B002B35DD0AF1CC
:1059B800FF330893394600228B4B3046FAF7C4FD73
:1059C800CDE90001029F01352846FAF753FDDDE9CC
:1059D8000023FAF7B9FD0022844BFAF7FFFB0546CE
:1059E800A1F15076002F5DD10022814BDDE9000145
:1059F800FAF7F2FB2A463346CDE90001FBF734F803
:105A0800002840F088822A4606F10043DDE90001BB
:105A1800FBF70CF8002840F07C82DDE91023CDE983
:105A28000023159B002BC0F25081BAF10E0F00F332
:105A38004C816A4B03EBCA0393ED007B0B9B002B55
:105A48008DED027B80F2D880B9F1000F00F3D4808D
:105A580040F05E820022664B51EC170BFAF774FD9A
:105A6800DDE90023FAF7F6FF4F464E46002840F0DE
:105A7800348231230BF101058BF800300AF1010A59
:105A88002FE2F20705D5D7E90023FAF75DFD0135C6
:105A980001237610083772E7022574E7CDF820A0B5
:105AA8004F4691E74D4B03EBC70353E902010A9BAD
:105AB800002B47D002460B4600204E49FAF76EFEEF
:105AC8002A463346FAF788FBCDE90C015D46DDE945
