:020000040800F2
:10000000FF7F0120D96D0008496C0008576C00087B
:100010005D6C0008636C0008696C0008000000005B
:100020000000000000000000000000006F6C0008ED
:100030007D6C0008000000008B6C0008996C0008C3
:10004000296E0008296E0008296E0008296E000834
:10005000296E0008296E0008296E0008296E000824
:10006000296E0008296E0008296E0008296E000814
:10007000296E0008296E0008A56C0008296E00088A
:10008000296E0008296E0008296E0008296E0008F4
:10009000296E0008296E0008296E0008296E0008E4
:1000A000296E0008296E0008296E0008296E0008D4
:1000B000296E0008296E0008296E0008296E0008C4
:1000C000296E0008296E0008296E0008296E0008B4
:1000D000296E0008296E0008296E0008296E0008A4
:1000E000296E0008296E0008296E0008296E000894
:1000F000296E0008296E0008296E0008296E000884
:10010000296E0008296E0008296E0008296E000873
:10011000296E0008296E0008296E0008296E000863
:10012000B96C0008296E0008296E0008296E0008C5
:10013000296E0008296E0008296E0008296E000843
:10014000296E0008296E0008296E0008296E000833
:10015000296E0008296E0008296E0008296E000823
:10016000296E0008296E0008296E0008296E000813
:10017000296E0008296E0008296E000800000000A2
:08018000296E0008296E000839
:1001880010B5054C237833B9044B13B10448AFF3C9
:1001980000800123237010BD4800002000000000EB
:1001A800246F000808B5034B1BB103490348AFF39C
:1001B800008008BD000000004C000020246F0008EB
:1001C80081F0004102E000BF83F0004330B54FEA00
:1001D80041044FEA430594EA050F08BF90EA020F6D
:1001E8001FBF54EA000C55EA020C7FEA645C7FEA00
:1001F800655C00F0E2804FEA5454D4EB5555B8BF23
:100208006D420CDD2C4480EA020281EA030382EA93
:10021800000083EA010180EA020281EA0303362D25
:1002280088BF30BD11F0004F4FEA01314FF4801CF8
:100238004CEA113102D0404261EB410113F0004F0A
:100248004FEA03334CEA133302D0524263EB4303C1
:1002580094EA050F00F0A780A4F10104D5F1200E5F
:100268000DDB02FA0EFC22FA05F2801841F10001BA
:1002780003FA0EF2801843FA05F359410EE0A5F18E
:1002880020050EF1200E012A03FA0EFC28BF4CF0BF
:10029800020C43FA05F3C01851EBE37101F0004575
:1002A80007D54FF0000EDCF1000C7EEB00006EEB82
:1002B8000101B1F5801F1BD3B1F5001F0CD349080C
:1002C8005FEA30004FEA3C0C04F101044FEA445263
:1002D80012F5800F80F09A80BCF1004F08BF5FEAEA
:1002E800500C50F1000041EB045141EA050130BDCA
:1002F8005FEA4C0C404141EB010111F4801FA4F16D
:100308000104E9D191F0000F04BF01460020B1FAC1
:1003180081F308BF2033A3F10B03B3F120020CDAF9
:100328000C3208DD02F1140CC2F10C0201FA0CF0D7
:1003380021FA02F10CE002F11402D8BFC2F1200C3C
:1003480001FA02F120FA0CFCDCBF41EA0C019040F2
:10035800E41AA2BF01EB0451294330BD6FEA04043B
:100368001F3C1CDA0C340EDC04F11404C4F1200226
:1003780020FA04F001FA02F340EA030021FA04F338
:1003880045EA030130BDC4F10C04C4F1200220FA8F
:1003980002F001FA04F340EA0300294630BD21FACD
:1003A80004F0294630BD94F0000F83F4801306BF93
:1003B80081F480110134013D4EE77FEA645C18BF87
:1003C8007FEA655C29D094EA050F08BF90EA020F1E
:1003D80005D054EA000C04BF1946104630BD91EA16
:1003E800030F1EBF0021002030BD5FEA545C05D119
:1003F8004000494128BF41F0004130BD14F5800458
:100408003CBF01F5801130BD01F0004545F0FE41CB
:1004180041F470014FF0000030BD7FEA645C1ABF00
:10042800194610467FEA655C1CBF0B46024650EA37
:10043800013406BF52EA033591EA030F41F4002163
:1004480030BD00BF90F0000F04BF0021704730B5E9
:100458004FF4806404F132044FF000054FF00001BE
:1004680050E700BF90F0000F04BF0021704730B57F
:100478004FF4806404F1320410F0004548BF404254
:100488004FF000013EE700BF42004FEAE2014FEAA9
:1004980031014FEA02701FBF12F07F4393F07F4F84
:1004A80081F06051704792F0000F14BF93F07F4FB6
:1004B800704730B54FF4607401F0004521F00041F9
:1004C80020E700BF50EA010208BF704730B54FF07F
:1004D80000050AE050EA010208BF704730B511F084
:1004E800004502D5404261EB41014FF4806404F1BC
:1004F80032045FEA915C3FF4DCAE4FF003025FEA3E
:10050800DC0C18BF03325FEADC0C18BF033202EBC5
:10051800DC02C2F1200300FA03FC20FA02F001FA1F
:1005280003FE40EA0E0021FA02F11444C1E600BFBE
:1005380070B54FF0FF0C4CF4E06C1CEA11541DBF71
:100548001CEA135594EA0C0F95EA0C0F00F0DEF83C
:100558002C4481EA030621EA4C5123EA4C5350EA21
:10056800013518BF52EA033541F4801143F4801372
:1005780038D0A0FB02CE4FF00005E1FB02E506F003
:100588000042E0FB03E54FF00006E1FB03569CF058
:10059800000F18BF4EF0010EA4F1FF04B6F5007F5E
:1005A80064F5407404D25FEA4E0E6D4146EB0606D0
:1005B80042EAC62141EA55514FEAC52040EA5E5059
:1005C8004FEACE2EB4F1FD0C88BFBCF5E06F1ED803
:1005D800BEF1004F08BF5FEA500E50F1000041EB3A
:1005E800045170BD06F0004646EA010140EA0200E7
:1005F80081EA0301B4EB5C04C2BFD4EB0C0541EA09
:10060800045170BD41F480114FF0000E013C00F31D
:10061800AB8014F1360FDEBF002001F0004170BD41
:10062800C4F10004203C35DA0C341BDC04F114045A
:10063800C4F1200500FA05F320FA04F001FA05F2E6
:1006480040EA020001F0004221F0004110EBD370B3
:1006580021FA04F642EB06015EEA430E08BF20EADF
:10066800D37070BDC4F10C04C4F1200500FA04F382
:1006780020FA05F001FA04F240EA020001F0004114
:1006880010EBD37041F100015EEA430E08BF20EA87
:10069800D37070BDC4F1200500FA05F24EEA020ECF
:1006A80020FA04F301FA05F243EA020321FA04F0FE
:1006B80001F0004121FA04F220EA020000EBD370B5
:1006C8005EEA430E08BF20EAD37070BD94F0000FB5
:1006D8000FD101F00046400041EB010111F4801FE9
:1006E80008BF013CF7D041EA060195F0000F18BF9A
:1006F800704703F00046520043EB030313F4801FD6
:1007080008BF013DF7D043EA0603704794EA0C0F8F
:100718000CEA135518BF95EA0C0F0CD050EA4106A5
:1007280018BF52EA4306D1D181EA030101F0004122
:100738004FF0000070BD50EA410606BF104619464A
:1007480052EA430619D094EA0C0F02D150EA013656
:1007580013D195EA0C0F05D152EA03361CBF104697
:1007680019460AD181EA030101F0004141F0FE4136
:1007780041F470014FF0000070BD41F0FE4141F4BA
:10078800780170BD70B54FF0FF0C4CF4E06C1CEABA
:1007980011541DBF1CEA135594EA0C0F95EA0C0F6F
:1007A80000F0A7F8A4EB050481EA030E52EA03352A
:1007B8004FEA013100F088804FEA03334FF080554B
:1007C80045EA131343EA12634FEA022245EA111578
:1007D80045EA10654FEA00260EF000419D4208BF29
:1007E800964244F1FD0404F5407402D25B084FEAD6
:1007F8003202B61A65EB03055B084FEA32024FF482
:1008080080104FF4002CB6EB020E75EB030E22BFDE
:10081800B61A754640EA0C005B084FEA3202B6EB9E
:10082800020E75EB030E22BFB61A754640EA5C004D
:100838005B084FEA3202B6EB020E75EB030E22BFDD
:10084800B61A754640EA9C005B084FEA3202B6EBDE
:10085800020E75EB030E22BFB61A754640EADC009D
:1008680055EA060E18D04FEA051545EA16754FEAFF
:1008780006164FEAC30343EA52734FEAC2025FEA1D
:100888001C1CC0D111F4801F0BD141EA00014FF0AC
:1008980000004FF0004CB6E711F4801F04BF01437D
:1008A8000020B4F1FD0C88BFBCF5E06F3FF6AFAE99
:1008B800B5EB030C04BFB6EB020C5FEA500C50F129
:1008C800000041EB045170BD0EF0004E4EEA1131AC
:1008D80014EB5C04C2BFD4EB0C0541EA045170BDB3
:1008E80041F480114FF0000E013C90E645EA060EF7
:1008F8008DE60CEA135594EA0C0F08BF95EA0C0F25
:100908003FF43BAF94EA0C0F0AD150EA01347FF46C
:1009180034AF95EA0C0F7FF425AF104619462CE743
:1009280095EA0C0F06D152EA03353FF4FDAE1046A6
:10093800194622E750EA410618BF52EA43067FF4F7
:10094800C5AE50EA41047FF40DAF52EA43057FF487
:10095800EBAE12E74FF0FF3C06E000BF4FF0010C92
:1009680002E000BF4FF0010C4DF804CD4FEA410CF6
:100978007FEA6C5C4FEA430C18BF7FEA6C5C1BD0C3
:1009880001B050EA410C0CBF52EA430C91EA030F44
:1009980002BF90EA020F0020704710F1000F91EAA1
:1009A800030F58BF994208BF90422CBFD8176FEA6F
:1009B800E37040F0010070474FEA410C7FEA6C5C3D
:1009C80002D150EA013C07D14FEA430C7FEA6C5C44
:1009D800D6D152EA033CD3D05DF8040B704700BF70
:1009E8008446104662468C461946634600E000BFBE
:1009F80001B5FFF7B7FF002848BF10F1000F01BD90
:100A08004DF808EDFFF7F4FF0CBF012000205DF85A
:100A180008FB00BF4DF808EDFFF7EAFF34BF0120DF
:100A280000205DF808FB00BF4DF808EDFFF7E0FF78
:100A380094BF012000205DF808FB00BF4DF808EDC9
:100A4800FFF7CEFF94BF012000205DF808FB00BF30
:100A58004DF808EDFFF7C4FF34BF012000205DF812
:100A680008FB00BF4FEA4102B2F1E04324BFB3F5EF
:100A7800001CDCF1FE5C0DD901F0004C4FEAC0020D
:100A88004CEA5070B2F1004F40EB830008BF20F0F1
:100A98000100704711F0804F21D113F13872BCBFAB
:100AA80001F00040704741F480114FEA5252C2F100
:100AB8001802C2F1200C10FA0CF320FA02F018BF49
:100AC80040F001004FEAC1234FEAD32303FA0CFC9C
:100AD80040EA0C0023FA02F34FEA4303CCE77FEA2B
:100AE800625307D150EA01331EBF4FF0FE4040F475
:100AF8004000704701F0004040F0FE4040F4000024
:100B0800704700BF80B586B000AF7B600346FB81AD
:100B18000B46BB811346FB7200237B6100F08CFC03
:100B2800FB89DBB201220221184600F0F7FA0346DE
:100B38001A467B6913447B61BB89013B032B1BD895
:100B480001A252F823F000BF610B0008690B0008EE
:100B5800710B0008790B00085B4BFA221A700FE042
:100B6800594BAF221A700BE0574BAA221A7007E0B4
:100B7800554B05221A7003E0534B05221A7000BF2B
:100B8800FB89D8B2504B1B78DBB21A46042100F01F
:100B9800C5FA03461A467B6913447B61FB89DBB2BD
:100BA80081220521184600F0B9FA03461A467B69E6
:100BB80013447B61FB89DBB204220621184600F04E
:100BC800ADFA03461A467B6913447B61FA7AFB89BE
:100BD8001146184600F05AF902467B6913447B61B6
:100BE800BB89022B23D0FB89DBB206220F211846D2
:100BF80000F094FA03461A467B6913447B61FB892B
:100C0800DBB200222421184600F088FA03461A466F
:100C18007B6913447B61FB89DBB2002225211846DE
:100C280000F07CFA03461A467B6913447B61FB8912
:100C3800DBB200220A21184600F070FA03461A4671
:100C48007B6913447B61FB89DBB204220E211846C1
:100C580000F064FA03461A467B6913447B61FB89FA
:100C6800DBB200222721184600F058FA03461A463C
:100C78007B6913447B61FB89DBB20F221F21184675
:100C880000F04CFA03461A467B6913447B61FB89E2
:100C9800DBB20A221A21184600F040FA03461A4627
:100CA8007B6913447B61FB89DBB20A221B2118464E
:100CB80000F034FA03461A467B6913447B617B696A
:100CC80018461837BD4680BD6400002080B500AFC7
:100CD80000F0E8FB00BF80BD80B584B000AF0346DC
:100CE800FB8000F0A9FBFB88DBB20121184600F06D
:100CF80031FC0346FB73FB7B23F00703FB73FB7B91
:100D080018461037BD4680BD80B584B000AF034695
:100D18003960FB801346BB800023FB60114B1B78B6
:100D2800012B1AD1FB680133FB60FB8800211846B0
:100D380000F018F90246FB681344FB60FB88DBB23D
:100D48009E220221184600F0E9F903461A46FB687C
:100D58001344FB60034B00221A70FB6818461037D7
:100D6800BD4680BD3000002080B584B000AF03468A
:100D7800FB800023FB60FB880121184600F0F2F895
:100D88000246FB681344FB60FB88DBB201220221A8
:100D9800184600F0C3F903461A46FB681344FB6083
:100DA800FB6818461037BD4680BD000080B584B08A
:100DB80000AF0346FB800023FB600023BB60FB8879
:100DC8000021184600F0CEF80246FB681344FB6089
:100DD8000023BB6002E0BB680133BB60BB68FE2B2D
:100DE800F9D9FB88D8B20E4B1B78DBB21A4604211E
:100DF80000F094F903461A46FB681344FB60FB882D
:100E0800DBB29E220221184600F088F903461A46F2
:100E1800FB681344FB60FB6818461037BD4680BD6D
:100E28006400002080B584B000AF03463960FB80C1
:100E38000023FB60FB880121184600F093F8024666
:100E4800FB681344FB60FB88DBB204220E211846C2
:100E580000F064F903461A46FB681344FB60FB88FC
:100E6800DBB29F220221184600F058F903461A46C1
:100E7800FB681344FB60044B01221A70FB68184698
:100E88001037BD4680BD00BF3000002080B584B05B
:100E980000AF03460A46FB8013467B710023FB60C4
:100EA8007B79642B0BD87A7913461B029B1A254A47
:100EB80082FB03125211DB17D31ADBB200E0642362
:100EC800FB727B79E62B1CD9FB88D8B2FB7A1933E5
:100ED800DBB21A46202100F021F903461A46FB68C6
:100EE8001344FB60FB88D8B2FB7A1933DBB21A468D
:100EF800212100F013F903461A46FB681344FB60EE
:100F08001BE0FB88D8B2FB7A1933DBB21A462021E2
:100F180000F004F903461A46FB681344FB60FB889B
:100F2800D8B2FB7A1933DBB21A46212100F0F6F861
:100F380003461A46FB681344FB60FB6818461037E3
:100F4800BD4680BD1F85EB5180B483B000AF03461A
:100F58003960FB80002318460C37BD465DF8047BDA
:100F68007047000080B584B000AF03463960FB804D
:100F78000023FB603B68012B24D1FB88DBB2FF22F6
:100F88000421184600F0CAF803461A46FB681344C1
:100F9800FB60FB88DBB201222221184600F0BEF874
:100FA80003461A46FB681344FB60FB88DBB2012248
:100FB8002321184600F0B2F803461A46FB6813448A
:100FC800FB6025E0FB88DBB200222221184600F0F6
:100FD800A5F803461A46FB681344FB60FB88DBB29E
:100FE80000222321184600F099F803461A46FB68A8
:100FF8001344FB60FB88D8B2084B1B78DBB21A4657
:10100800042100F08BF803461A46FB681344FB6082
:10101800FB6818461037BD4680BD00BF640000203D
:1010280080B584B000AF03460A46FB8013467B7147
:101038000023FB607B79013B032B4BD801A252F8BC
:1010480023F000BF5D1000087D1000089D10000807
:10105800BD100008FB88DBB2FA220421184600F014
:101068005DF803461A46FB681344FB60244BFA22DA
:101078001A703FE0FB88DBB2AF220421184600F06B
:101088004DF803461A46FB681344FB601C4BAF221D
:101098001A702FE0FB88DBB2AA220421184600F060
:1010A8003DF803461A46FB681344FB60144BAA221A
:1010B8001A701FE0FB88DBB205220421184600F0F5
:1010C8002DF803461A46FB681344FB600C4B0522B7
:1010D8001A700FE0FB88DBB205220421184600F0E5
:1010E8001DF803461A46FB681344FB60044B0522AF
:1010F8001A7000BFFB6818461037BD4680BD00BF98
:101108006400002080B483B000AF0346FB80002356
:1011180018460C37BD465DF8047B704780B584B02F
:1011280000AF0346FB710B46BB7113467B7100236E
:10113800FB607A79B979FB79184600F0F3F9FB6816
:10114800DBB218461037BD4680BD000080B500AF41
:10115800124801F0CFFE0346002B1DD10F4B104A59
:101168001A600E4B0F4A5A600C4B00229A600B4BC8
:101178000122DA60094B00221A61084B00225A61E9
:10118800064B0022DA61054B00221A62034800F080
:101198000BF8024801F0C2FB00BF80BD94FB0020A1
:1011A800005400402626119080B5AEB000AF78609C
:1011B8003A4A3A4B9B6D43F080539365374B9B6D8E
:1011C80003F08053BB61BB6902F0CAF87B681B68F7
:1011D800334A93425ED14023FB614FF48053FB6650
:1011E80007F11C03184602F051FE2C4A2B4BDB6C0E
:1011F80043F00203D364294BDB6C03F002037B61E9
:101208007B69264A254BDB6C43F00203D364234BEE
:10121800DB6C03F002033B613B69C023C7F8A430D1
:101228001223C7F8A8300123C7F8AC300323C7F846
:10123800B0300423C7F8B43007F1A403194619489D
:1012480001F0B8F8154A154B9B6D43F400139365EC
:10125800124B9B6D03F40013FB60FB680F4A0F4BA6
:101268009B6B43F4001393630C4A0C4B9B6B23F466
:1012780000139363002200211F2000F022FB1F208F
:1012880000F03BFB00220021202000F01AFB202068
:1012980000F033FB00BFB837BD4680BD00100240E8
:1012A800005400400004004880B500AF064801F033
:1012B80021FE0346002B05D0034801F0BDFB024880
:1012C80000F004F800BF80BD94FB002080B586B014
:1012D80000AF78607B681B68244A934241D1244A56
:1012E800234BDB6C43F00203D364214BDB6C03F02C
:1012F80002037B617B691E4A1D4BDB6C43F00203D2
:10130800D3641B4BDB6C03F002033B613B69C021D8
:10131800184801F0F7F9164A154B9B6B43F4001374
:101328009363134A124B9B6B23F400139363104A85
:101338000F4B9B6D23F4001393651F2000F0EBFA0D
:10134800202000F0E8FA0A4A094B9B6D43F08053CD
:101358009365074B9B6D03F08053FB60FB6802F0BD
:101368000FF800BF1837BD4680BD00BF00540040CD
:10137800001002400004004880B58AB004AF7B60CA
:101388000346FB810B46BB8113467B810023FB751B
:101398000C4B1B687889BA89F98902933B8C0193B5
:1013A8007B6800930346084801F076FB0346FB750B
:1013B800FB7D002B01D000F033F8FB7D1846183771
:1013C800BD4680BD3400002094FB002080B58AB063
:1013D80004AF7B600346FB810B46BB8113467B81D0
:1013E8000023FB750C4B1B687889BA89F98902932D
:1013F8003B8C01937B6800930346084801F060FC2E
:101408000346FB75FB7D002B01D000F009F8FB7D3E
:1014180018461837BD4680BD3400002094FB0020D4
:1014280080B500AF034801F007FBFFF78FFE00BF50
:1014380080BD00BF94FB002080B586B000AF174A7E
:10144800164BDB6C43F01003D364144BDB6C03F0D6
:1014580010033B603B6808237B600123BB600223C9
:101468003B610023FB603B1D19460D4800F0A2FFBD
:10147800FFF76CFE00220821094801F037FA052021
:1014880000F012F901220821054801F02FFA052081
:1014980000F00AF900BF1837BD4680BD00100240B1
:1014A8000010004880B586B000AF1C4A1B4BDB6CAF
:1014B80043F01003D364194BDB6C03F010033B605B
:1014C8003B680123BB607C237B600223FB60032312
:1014D8003B613B1D1946124800F06CFF00220421B5
:1014E8000F4801F003FA002208210D4801F0FEF927
:1014F800002210210A4801F0F9F9002220210848A9
:1015080001F0F4F900224021054801F0EFF9FFF756
:10151800CBFE00BF1837BD4680BD00BF001002409B
:101528000010004880B584B002AF0346FB710B463B
:10153800BB7113467B71FB7998B2BB7999B27A1D5E
:101548000123009313460122FFF716FF00BF083757
:10155800BD4680BD80B586B002AF03460A46FB7122
:101568001346BB710023FB73FB7998B2BB7999B220
:1015780007F10F020123009313460122FFF726FF0C
:10158800FB7B18461037BD4680BD000080B582B091
:1015980000AF7860054B9B68002B02D0034B9B681B
:1015A800984700BF0837BD4680BD00BF68000020CF
:1015B80080B582B000AF7860054B5B68002B02D025
:1015C800034B5B68984700BF0837BD4680BD00BF26
:1015D8006800002080B582B000AF7860064BD3F871
:1015E8009830002B03D0044BD3F89830984700BFAD
:1015F8000837BD4680BD00BF7800002080B582B0A6
:1016080000AF0023FB71032000F050F90F2000F019
:101618000DF80346002B02D00123FB7101E005F011
:1016280089FAFB7918460837BD4680BD80B584B075
:1016380000AF78600023FB730C4B1B680C4AA2FBBD
:1016480003239B09184600F074F90346002B02D0C7
:101658000123FB7305E0002279684FF0FF3000F0AA
:1016680030F9FB7B18461037BD4680BD440000208A
:10167800D34D621080B400AF044B1B680133034A9A
:10168800136000BFBD465DF8047B7047E0FB002097
:1016980080B400AF034B1B681846BD465DF8047B59
:1016A800704700BFE0FB002080B584B000AF7860D1
:1016B800FFF7EEFFB8607B68FB60FB68B3F1FF3FA4
:1016C80002D0FB680133FB6000BFFFF7E1FF024671
:1016D800BB68D21AFB689A42F7D300BF1037BD46E1
:1016E80080BD000080B485B000AF78607B6803F0EF
:1016F8000703FB600C4BDB68BB60BA684FF6FF035F
:101708001340BB60FB681A02BB68134343F0BF6316
:1017180043F40033BB60044ABB68D36000BF14378E
:10172800BD465DF8047B704700ED00E080B400AF73
:10173800044BDB681B0A03F007031846BD465DF837
:10174800047B704700ED00E080B483B000AF03462F
:10175800FB71094997F907305B09FA7902F01F0212
:10176800012000FA02F241F8232000BF0C37BD46E1
:101778005DF8047B704700BF00E100E080B483B0EF
:1017880000AF0346FB71094997F907305B09FA79FD
:1017980002F01F02012000FA02F2203341F8232050
:1017A80000BF0C37BD465DF8047B704700E100E0E0
:1017B80080B483B000AF03463960FB7197F90730F6
:1017C800002B0BDA0D49FB7903F00F03043B3A6851
:1017D800D2B21201D2B20B441A7609E0084997F93D
:1017E80007303A68D2B21201D2B20B4483F8002310
:1017F80000BF0C37BD465DF8047B704700ED00E084
:1018080000E100E080B489B000AFF860B9607A60A8
:10181800FB6803F00703FB61FB69C3F10703042BB3
:1018280028BF0423BB61FB690433062B02D9FB697B
:10183800033B00E000237B610122BB6902FA03F34A
:101848005A1EBB681A407B699A4001217B6901FADC
:1018580003F3591E7B680B40134318462437BD46D3
:101868005DF8047B7047000080B582B000AF7860F7
:101878007B68013BB3F1807F01D301230FE00A4A63
:101888007B68013B53600F214FF0FF30FFF790FF5B
:10189800054B00229A60044B07221A600023184661
:1018A8000837BD4680BD00BF10E000E080B582B0BB
:1018B80000AF78607868FFF715FF00BF0837BD46AE
:1018C80080BD80B586B000AF0346B9607A60FB730F
:1018D80000237B61FFF72AFF78617A68B968786925
:1018E800FFF790FF024697F90F3011461846FFF7A9
:1018F8005FFF00BF1837BD4680BD80B582B000AF1E
:101908000346FB7197F907301846FFF71DFF00BF24
:101918000837BD4680BD80B582B000AF0346FB7175
:1019280097F907301846FFF729FF00BF0837BD466B
:1019380080BD80B582B000AF78607868FFF794FF0B
:10194800034618460837BD4680BD000080B582B002
:1019580000AF78607B68002B01D10123ACE07B6885
:101968001B68184600F082FA0246554B53F822309D
:10197800002B01D001239FE0786804F077FF514BDA
:101988001B6801334F4A13604E4B1B68012B25D14E
:101998004D4A4D4B1B6823F0804313604A494A4B1C
:1019A8001A687B689B6813430B60474A464B1B6861
:1019B80023F47F0313607B681B79012B08D142490C
:1019C800414B1A687B68DB68013B1B0413430B60BF
:1019D8003D4A3D4B1B6843F0004313607B681B681E
:1019E8007A681268126822F471421A607B681B6870
:1019F8007A68126811687A6810697A6852691043BF
:101A08007A68926902430A431A607B681B687A689D
:101A18001268126822F00F021A607B681B687A68E5
:101A2800126811687A68D0697A68126A02430A43B0
:101A38001A607B681B687A681268926822F45F02F1
:101A48009A607B681B687A68126891687A68506A3D
:101A58007A68926A013A120402430A439A607B68E0
:101A68001B687A681268526802F007025A607B683D
:101A78001B687A68126851687A68D26A10027A68B4
:101A8800126BD20002430A435A607B681B687A686B
:101A98001268126842F080021A607B68012283F89B
:101AA80034207B681B68184600F0E0F90146044AB8
:101AB8007B6842F82130002318460837BD4680BDB0
:101AC800200100201C0100200060014080B582B088
:101AD80000AF78607B68002B01D10123CAE07B68E6
:101AE8001B68664A934209D17B685B68012B03D067
:101AF8007B68DB68012B01D10123BBE07B680022F6
:101B08001A637B6801225A647B6801229A647B68A5
:101B180000221A65786804F007FF7B681B687A68FA
:101B28001268126822F400221A607B681B7A012B63
:101B380008D17B681B687A681268126842F0005204
:101B48001A6007E07B681B687A681268126822F0DE
:101B580000521A607B685B7A012B08D17B681B688E
:101B68007A681268126842F400121A6007E07B680B
:101B78001B687A681268126822F400121A607B687F
:101B88001A687B681B681B6823F4CE4323F008039C
:101B980013607B68DB68022B08D17B681B687A6856
:101BA800126811687A6852690A431A607B681B7C5C
:101BB800012B08D17B681B687A681268126842F0AA
:101BC80010021A6007E07B681B687A68126812685E
:101BD80022F010021A607B685B7C012B08D17B68BD
:101BE8001B687A681268126842F020021A6007E0DF
:101BF8007B681B687A681268126822F020021A60F3
:101C08007B681A687B681B685B6923F0634303F091
:101C1800FF2353617B681B687A68126851697A6888
:101C2800D0697A68126A013A120410437A68526AD3
:101C3800013A02430A435A617B685A687B685A63CF
:101C48007B68DA687B689A637B689A697B68DA6381
:101C58007B681A7C7B6883F840207B681B687A68FD
:101C68001268126842F001021A607B68012283F848
:101C78004C20002318460837BD4680BD006101404E
:101C880080B487B000AFF860B9607A600023FB7554
:101C9800FB6893F84C30002B2ED0FB6893F84C303F
:101CA800FF2B29D0FB681A68FB681B681B6823F0A8
:101CB800E06323F4802313607B68012B0DD1FB685C
:101CC8001B68FA6812681168BA68120202F07F424B
:101CD8000A4342F480221A600AE0FB681B68FA682B
:101CE80012681168BA68120202F07F420A431A6049
:101CF800FB687A681A6301E00123FB75FB7D1846CF
:101D08001C37BD465DF8047B7047000080B586B07F
:101D180000AFF860B9607A600023FB75BB68002BE0
:101D280002D07B68002B02D10123FB7564E0FB68BD
:101D38001B681B6803F40013B3F5001F02D00123CE
:101D4800FB7559E0FB685B6B002B0ED1FB681B6BC6
:101D5800002B0AD1FB689B6ADB69002B05D17B68E5
:101D6800012B02D00123FB7546E0FB685B6B002B5F
:101D78000BD1FB681B6B002B07D1FB689B6ADB69E7
:101D8800202B02D10123FB7536E0FB6893F84C3019
:101D9800012B04D0FB6893F84C30032B2AD1FB6845
:101DA8009B6A184ADA62FB689B6A174A5A63FB689F
:101DB8009B6AFA68926AD269202A01D1134A00E024
:101DC80000221A63FB68986AFB681B681C33194673
:101DD800BA687B6800F0AEF90346002B06D0FB68B2
:101DE800FF2283F84C200123FB7505E0F86800F01A
:101DF80093F801E00123FB75FB7D18461837BD46B3
:101E080080BD00BF351E0008511E0008191E0008BD
:101E180080B584B000AF78607B689B6AFB60F86827
:101E280004F048FE00BF1037BD4680BD80B584B0C1
:101E380000AF78607B689B6AFB60F86804F04AFE34
:101E480000BF1037BD4680BD80B584B000AF786054
:101E58007B689B6AFB60FB6803221A65F868FFF7DA
:101E6800B9FB00BF1037BD4680BD000080B485B007
:101E780000AF78607B68204A934202D10023FB6060
:101E880032E07B681D4A934202D10123FB602BE0BC
:101E98007B681B4A934202D10223FB6024E07B68E3
:101EA800184A934202D10323FB601DE07B68164A5F
:101EB800934202D10423FB6016E07B68134A9342E5
:101EC80002D10523FB600FE07B68114A934202D1DF
:101ED8000623FB6008E07B680E4A934202D1072381
:101EE800FB6001E00023FB60FB6818461437BD4621
:101EF8005DF8047B704700BF00600140206001402E
:101F0800406001406060014080600140A060014085
:101F1800C0600140E060014080B483B000AF7860E9
:101F28007B685B6B002B08D17B681B687A6812683A
:101F3800126842F400321A6033E07B681B687A68E2
:101F48001268126822F001021A607B681B687A68BE
:101F58001268126842F400221A607B681B687A686B
:101F68001268126842F001021A607B6893F84C30DC
:101F7800032B16D17B689B6B002B07D17B681B68F2
:101F88007A681268126842F002021A607B6893F855
:101F98004030012B02D17B685B6C00E001237A683A
:101FA80093647B6893F84C30012B01D1022200E046
:101FB80004227B6883F84C2000BF0C37BD465DF8CF
:101FC800047B704780B485B000AF78607B68002BD5
:101FD80001D1012398E07B681B681A464D4B9A4251
:101FE8000FD87B681B681A464B4B13444B4AA2FB1D
:101FF80003231B099A007B685A647B68484A1A6461
:102008000EE07B681B681A46464B1344434AA2FB02
:1020180003231B099A007B685A647B68424A1A6446
:102028007B68022283F825207B681B681B68FB609D
:10203800FB6823F4FF4323F07003FB607B689A6816
:102048007B68DB681A437B681B691A437B685B699A
:102058001A437B689B691A437B68DB691A437B6870
:102068001B6A1343FA681343FB607B681B68FA68B2
:102078001A607B689B68B3F5804F39D07B681B6C0E
:10208800274A93421AD12949284B1A687B685B6C06
:1020980003F01C030F2000FA03F3DB4313400B602B
:1020A8002248224B1A687B6859687B685B6C03F08E
:1020B8001C0301FA03F31343036019E01C491C4B8A
:1020C8001A687B685B6C03F01C030F2000FA03F3AB
:1020D800DB4313400B601648154B1A687B68596838
:1020E8007B685B6C03F01C0301FA03F31343036082
:1020F8007B680022DA637B68012283F825207B68ED
:10210800002283F82420002318461437BD465DF8C2
:10211800047B704707040240F8FFFDBFCDCCCCCC50
:1021280000000240F8FBFDBF00040240A800024086
:10213800A804024080B586B000AFF860B9607A6044
:102148003B600023FB75FB6893F82430012B01D119
:1021580002234BE0FB68012283F82420FB6893F8F4
:102168002530DBB2012B3AD1FB68022283F8252007
:10217800FB680022DA63FB681B68FA681268126859
:1021880022F001021A603B687A68B968F86800F0C2
:10219800E0F8FB681B6B002B08D0FB681B68FA682B
:1021A8001268126842F00E021A600FE0FB681B68A2
:1021B800FA681268126822F004021A60FB681B6849
:1021C800FA681268126842F00A021A60FB681B6813
:1021D800FA681268126842F001021A6005E0FB68AA
:1021E800002283F824200223FB75FB7D184618374C
:1021F800BD4680BD80B584B000AF78607B681B6C3D
:102208001B68FB607B681B681B68BB607B685B6C3A
:1022180003F01C0304229A40FB681340002B26D0CD
:10222800BB6803F00403002B21D07B681B681B6884
:1022380003F02003002B07D17B681B687A681268BB
:10224800126822F004021A607B681B6C7A68526C70
:1022580002F01C02042101FA02F25A607B681B6B2F
:10226800002B71D07B681B6B786898476CE07B68A3
:102278005B6C03F01C0302229A40FB681340002B9E
:102288002ED0BB6803F00203002B29D07B681B68A3
:102298001B6803F02003002B0BD17B681B687A684E
:1022A8001268126822F00A021A607B68012283F819
:1022B80025207B681B6C7A68526C02F01C02022194
:1022C80001FA02F25A607B68002283F824207B68B6
:1022D800DB6A002B38D07B68DB6A7868984733E084
:1022E8007B685B6C03F01C0308229A40FB68134070
:1022F800002B2AD0BB6803F00803002B25D07B688D
:102308001B687A681268126822F00E021A607B68ED
:102318001B6C7A68526C02F01C02012101FA02F26D
:102328005A607B680122DA637B68012283F82520E2
:102338007B68002283F824207B685B6B002B04D029
:102348007B685B6B7868984700BF00BF1037BD4655
:1023580080BD80B485B000AFF860B9607A603B603A
:10236800FB681B6CFA68526C02F01C02012101FA2E
:1023780002F25A60FB681B683A685A60FB689B68FF
:10238800102B08D1FB681B687A689A60FB681B6889
:10239800BA68DA6007E0FB681B68BA689A60FB688D
:1023A8001B687A68DA6000BF1437BD465DF8047BA5
:1023B8007047000080B487B000AF786039600023B0
:1023C8007B617FE13B681A6801217B6901FA03F3AD
:1023D8001340FB60FB68002B00F071813B685B6871
:1023E800022B03D03B685B68122B23D17B69DA0888
:1023F8007B68083253F822303B617B6903F007039E
:102408009B000F2202FA03F3DB433A6913403B6156
:102418003B681A697B6903F007039B0002FA03F320
:102428003A6913433B617B69DA087B68083239698A
:1024380043F822107B681B683B617B695B000322C1
:1024480002FA03F3DB433A6913403B613B685B687C
:1024580003F003027B695B0002FA03F33A69134352
:102468003B617B683A691A603B685B68012B0BD05B
:102478003B685B68022B07D03B685B68112B03D075
:102488003B685B68122B30D17B689B683B617B693A
:102498005B00032202FA03F3DB433A6913403B6112
:1024A8003B68DA687B695B0002FA03F33A69134315
:1024B8003B617B683A699A607B685B683B61012293
:1024C8007B6902FA03F3DB433A6913403B613B68DB
:1024D8005B681B0903F001027B6902FA03F33A699E
:1024E80013433B617B683A695A603B685B6803F059
:1024F8000303032B18D17B68DB6A3B6101227B69EC
:1025080002FA03F3DB433A6913403B613B685B68BB
:10251800DB0803F001027B6902FA03F33A6913430B
:102528003B617B683A69DA627B68DB683B617B699F
:102538005B00032202FA03F3DB433A6913403B6171
:102548003B689A687B695B0002FA03F33A691343B4
:102558003B617B683A69DA603B685B6803F08053EB
:10256800002B00F0AC805E4A5D4B1B6E43F001030C
:1025780013665B4B1B6E03F00103BB60BB68594AD3
:102588007B699B08023352F823303B617B6903F077
:1025980003039B000F2202FA03F3DB433A6913405B
:1025A8003B617B68B3F1904F25D07B684E4A9342DC
:1025B8001FD07B684D4A934219D07B684C4A93429E
:1025C80013D07B684B4A93420DD07B684A4A9342AA
:1025D80007D07B68494A934201D106230CE00723C0
:1025E8000AE0052308E0042306E0032304E00223AD
:1025F80002E0012300E000237A6902F0030292005E
:1026080093403A6913433B6136497B699B0802331F
:102618003A6941F823203A4B1B683B61FB68DB436E
:102628003A6913403B613B685B6803F48033002BD5
:1026380003D03A69FB6813433B61314A3B69136035
:102648002F4B5B683B61FB68DB433A6913403B6196
:102658003B685B6803F40033002B03D03A69FB68DE
:1026680013433B61264A3B695360254B9B683B619A
:10267800FB68DB433A6913403B613B685B6803F4E2
:102688008013002B03D03A69FB6813433B611C4A53
:102698003B6993601A4BDB683B61FB68DB433A6933
:1026A80013403B613B685B6803F40013002B03D0C5
:1026B8003A69FB6813433B61114A3B69D3607B6904
:1026C80001337B613B681A687B6922FA03F3002BAC
:1026D8007FF478AE00BF1C37BD465DF8047B7047B9
:1026E80000100240000001400004004800080048B3
:1026F800000C00480010004800140048001800486A
:102708000004014080B487B000AF786039600023CE
:102718007B61CDE001227B699A403B6813403B61B5
:102728003B69002B00F0C1807B681A687B695B00FD
:10273800032101FA03F31A437B681A607B69DA08FC
:102748007B69D9087B68083153F821107B6903F04D
:1027580007039B000F2000FA03F3DB4319407B6853
:10276800083243F822107B689A687B695B00032172
:1027780001FA03F3DB431A407B689A607B685A6866
:1027880001217B6901FA03F3DB431A407B685A6035
:102798007B68DA687B695B00032101FA03F3DB439A
:1027A8001A407B68DA607B68DA6A01217B6901FA82
:1027B80003F3DB431A407B68DA62444A7B699B086F
:1027C800023352F82330FB607B6903F003039B005C
:1027D8000F2202FA03F3FA681340FB607B68B3F137
:1027E800904F25D07B683A4A93421FD07B68394A7C
:1027F800934219D07B68384A934213D07B68374A92
:1028080093420DD07B68364A934207D07B68354A9D
:10281800934201D106230CE007230AE0052308E0D0
:10282800042306E0032304E0022302E0012300E07E
:1028380000237A6902F00302920003FA02F2FB68AD
:102848009A4232D17B6903F003039B000F2202FAFC
:1028580003F3FB601D487B699B081C497A69920851
:10286800023251F82210FA68D2430A40023340F883
:1028780023201D491C4B1A683B69DB4313400B603E
:102888001949194B5A683B69DB4313404B60164999
:10289800154B9A683B69DB4313408B601249124B16
:1028A800DA683B69DB431340CB607B6901337B61AA
:1028B8003A687B6922FA03F3002B7FF42BAF00BF41
:1028C8001C37BD465DF8047B704700BF000001401F
:1028D8000004004800080048000C004800100048A8
:1028E80000140048001800480004014080B483B078
:1028F80000AF78600B467B8013467B707B78002B9B
:1029080003D07A887B689A6102E07A887B689A6249
:1029180000BF0C37BD465DF8047B704780B582B0B8
:1029280000AF78607B68002B01D1012380E07B68D1
:1029380093F84130DBB2002B06D17B68002283F884
:102948004020786804F01AF97B68242283F8412033
:102958007B681B687A681268126822F001021A60A4
:102968007B681B687A68526822F070621A617B681B
:102978001B687A681268926822F400429A607B6841
:10298800DB68012B07D17B681B687A68926842F480
:1029980000429A6006E07B681B687A68926842F495
:1029A80004429A607B68DB68022B04D17B681B6851
:1029B8004FF400625A607B681A687B681B685B6822
:1029C80043F0007343F4004353607B681B687A68E4
:1029D8001268D26822F40042DA607B681B687A6861
:1029E80011697A68526911437A68926912020A4336
:1029F800DA607B681B687A68D1697A68126A0A4368
:102A08001A607B681B687A681268126842F00102D3
:102A18001A607B6800225A647B68202283F8412070
:102A28007B6800221A637B68002283F84220002317
:102A380018460837BD4680BD80B582B000AF7860C3
:102A48007B68002B01D1012321E07B68242283F8D5
:102A580041207B681B687A681268126822F00102BC
:102A68001A60786804F0CEF87B6800225A647B68A4
:102A7800002283F841207B6800221A637B680022C9
:102A880083F842207B68002283F840200023184600
:102A98000837BD4680BD000080B588B002AFF86039
:102AA800084611461A4603467B810B463B8113466E
:102AB800FB80FB6893F84130DBB2202B40F0F980B3
:102AC8003B6A002B02D0BB8C002B05D1FB684FF46E
:102AD80000725A640123EDE0FB6893F84030012B43
:102AE80001D10223E6E0FB68012283F84020FEF7CB
:102AF800CFFD78617B690093192301224FF40041CF
:102B0800F86800F0D1FA0346002B01D00123D1E088
:102B1800FB68212283F84120FB68402283F8422089
:102B2800FB6800225A64FB683A6A5A62FB68BA8CEE
:102B38005A85FB6800225A63F8883A8979897B6943
:102B48000193BB6A00930346F86800F0E1F9034675
:102B5800002B05D0FB68002283F840200123A9E060
:102B6800FB685B8D9BB2FF2B0ED9FB68FF221A8591
:102B7800FB681B8DDAB27989002300934FF08073CC
:102B8800F86800F0B3FB0FE0FB685B8D9AB2FB6856
:102B98001A85FB681B8DDAB27989002300934FF000
:102BA8000073F86800F0A2FB7A69B96AF86800F067
:102BB800BBFA0346002B01D001237BE0FB681B68AE
:102BC800FA68526A12789A62FB685B6A5A1CFB6858
:102BD8005A62FB685B8D9BB2013B9AB2FB685A85CF
:102BE800FB681B8D013B9AB2FB681A85FB685B8DFD
:102BF8009BB2002B34D0FB681B8D002B30D17B6936
:102C08000093BB6A00228021F86800F04DFA034661
:102C1800002B01D001234DE0FB685B8D9BB2FF2B9D
:102C28000ED9FB68FF221A85FB681B8DDAB27989F9
:102C3800002300934FF08073F86800F057FB0FE013
:102C4800FB685B8D9AB2FB681A85FB681B8DDAB24C
:102C58007989002300934FF00073F86800F046FB71
:102C6800FB685B8D9BB2002B9ED17A69B96AF868C4
:102C780000F09AFA0346002B01D001231AE0FB6802
:102C88001B682022DA61FB681A68FB681B685968B0
:102C98000A4B0B405360FB68202283F84120FB68F5
:102CA800002283F84220FB68002283F8402000239A
:102CB80000E0022318461837BD4680BD00E800FE34
:102CC80080B588B002AFF860084611461A46034638
:102CD8007B810B463B811346FB80FB6893F84130B0
:102CE800DBB2202B40F0FD803B6A002B02D0BB8C6E
:102CF800002B05D1FB684FF400725A640123F1E000
:102D0800FB6893F84030012B01D10223EAE0FB680D
:102D1800012283F84020FEF7BBFC78617B690093B1
:102D2800192301224FF40041F86800F0BDF9034669
:102D3800002B01D00123D5E0FB68222283F8412033
:102D4800FB68402283F84220FB6800225A64FB6833
:102D58003A6A5A62FB68BA8C5A85FB6800225A6341
:102D6800F8883A8979897B690193BB6A009303469D
:102D7800F86800F021F90346002B05D0FB68002213
:102D880083F840200123ADE0FB685B8D9BB2FF2BED
:102D98000ED9FB68FF221A85FB681B8DDAB2798988
:102DA800524B00934FF08073F86800F09FFA0FE0E1
:102DB800FB685B8D9AB2FB681A85FB681B8DDAB2DB
:102DC80079894A4B00934FF00073F86800F08EFA47
:102DD8007B690093BB6A00220421F86800F064F95B
:102DE8000346002B01D001237CE0FB685B6AFA688C
:102DF8001268526AD2B21A70FB685B6A5A1CFB6886
:102E08005A62FB681B8D013B9AB2FB681A85FB6806
:102E18005B8D9BB2013B9AB2FB685A85FB685B8D60
:102E28009BB2002B34D0FB681B8D002B30D17B6903
:102E38000093BB6A00228021F86800F035F9034648
:102E4800002B01D001234DE0FB685B8D9BB2FF2B6B
:102E58000ED9FB68FF221A85FB681B8DDAB27989C7
:102E6800002300934FF08073F86800F03FFA0FE0FA
:102E7800FB685B8D9AB2FB681A85FB681B8DDAB21A
:102E88007989002300934FF00073F86800F02EFA58
:102E9800FB685B8D9BB2002B9AD17A69B96AF86896
:102EA80000F082F90346002B01D001231AE0FB68E9
:102EB8001B682022DA61FB681A68FB681B6859687E
:102EC8000B4B0B405360FB68202283F84120FB68C2
:102ED800002283F84220FB68002283F84020002368
:102EE80000E0022318461837BD4680BD0024008044
:102EF80000E800FE80B483B000AF78607B6893F888
:102F08004130DBB218460C37BD465DF8047B70478C
:102F180080B586B002AFF860084611461A460346E7
:102F28007B810B463B811346FB80FB88DAB27989AB
:102F3800204B00934FF08073F86800F0D7F9FA69D6
:102F4800B969F86800F0F0F80346002B01D00123B6
:102F58002CE0FB88012B05D1FB681B683A89D2B2AB
:102F68009A6215E0FB681B683A89120A92B2D2B2DB
:102F78009A62FA69B969F86800F0D6F80346002B36
:102F880001D0012312E0FB681B683A89D2B29A6229
:102F9800FB690093BB6900228021F86800F084F87F
:102FA8000346002B01D0012300E000231846103708
:102FB800BD4680BD0020008080B586B002AFF860B5
:102FC800084611461A4603467B810B463B81134649
:102FD800FB80FB88DAB27989204B00930023F868DC
:102FE80000F084F9FA69B969F86800F09DF80346B9
:102FF800002B01D001232CE0FB88012B05D1FB68B5
:103008001B683A89D2B29A6215E0FB681B683A8954
:10301800120A92B2D2B29A62FA69B969F86800F0F3
:1030280083F80346002B01D0012312E0FB681B68DC
:103038003A89D2B29A62FB690093BB6900224021A7
:10304800F86800F031F80346002B01D0012300E0B6
:10305800002318461037BD4680BD00BF0020008001
:1030680080B483B000AF78607B681B689B6903F00D
:103078000203022B03D17B681B6800229A627B68DB
:103088001B689B6903F00103012B07D07B681B6851
:103098007A681268926942F001029A6100BF0C379F
:1030A800BD465DF8047B704780B584B000AFF8601A
:1030B800B9603B601346FB7122E03B68B3F1FF3F08
:1030C8001ED0FEF7E5FA0246BB69D21A3B689A425F
:1030D80002D83B68002B13D1FB685B6C43F02002DD
:1030E800FB685A64FB68202283F84120FB680022B1
:1030F80083F84220FB68002283F8402001230FE078
:10310800FB681B689A69BB681A40BB689A420CBF87
:1031180001230023DBB21A46FB799A42CDD0002363
:1031280018461037BD4680BD80B584B000AFF86042
:10313800B9607A602CE07A68B968F86800F070F8CD
:103148000346002B01D001232AE0BB68B3F1FF3FFF
:103158001ED0FEF79DFA02467B68D21ABB689A42D7
:1031680002D8BB68002B13D1FB685B6C43F02002CC
:10317800FB685A64FB68202283F84120FB68002220
:1031880083F84220FB68002283F84020012307E0EF
:10319800FB681B689B6903F00203022BCBD1002359
:1031A80018461037BD4680BD80B584B000AFF860C2
:1031B800B9607A6028E07A68B968F86800F030F891
:1031C8000346002B01D0012326E0FEF761FA0246F0
:1031D8007B68D21ABB689A4202D8BB68002B13D10D
:1031E800FB685B6C43F02002FB685A64FB68202292
:1031F80083F84120FB68002283F84220FB68002204
:1032080083F84020012307E0FB681B689B6903F0F3
:103218002003202BCFD1002318461037BD4680BD90
:1032280080B584B000AFF860B9607A60FB681B684D
:103238009B6903F01003102B51D122E0BB68B3F156
:10324800FF3F1ED0FEF724FA02467B68D21ABB68FD
:103258009A4202D8BB68002B13D1FB685B6C43F021
:103268002002FB685A64FB68202283F84120FB682F
:10327800002283F84220FB68002283F840200123C3
:103288002EE0FB681B689B6903F02003202BD5D137
:10329800FB681B681022DA61FB681B682022DA6170
:1032A800F868FFF7DDFEFB681A68FB681B68596859
:1032B8000D4B0B405360FB685B6C43F00402FB68EA
:1032C8005A64FB68202283F84120FB68002283F8B7
:1032D8004220FB68002283F84020012300E00023FD
:1032E80018461037BD4680BD00E800FE80B485B0A2
:1032F80000AFF8607B600B467B8113467B72FB68EE
:103308001A68FB681B685968BB695B0D03F4806029
:103318000B4B0343DB4319407B89C3F309007B7ADA
:103328001B0403F47F0318437B681843BB690343FA
:103338000B43536000BF1437BD465DF8047B7047EC
:10334800FF63FF0380B400AF044B1B6803F4C06342
:103358001846BD465DF8047B704700BF007000400A
:1033680080B400AF054A054B5B6843F400735360B3
:1033780000BFBD465DF8047B704700BF0070004089
:1033880080B400AF054A054B5B6823F400735360B3
:1033980000BFBD465DF8047B704700BF0070004069
:1033A80080B588B000AF78607B68002B01D101231D
:1033B80053E3A34B9B6803F00C03BB61A04BDB6892
:1033C80003F003037B617B681B6803F01003002B89
:1033D80000F0DF80BB69002B07D0BB690C2B40F0E5
:1033E80086807B69012B40F08280954B1B6803F037
:1033F8000203002B05D07B689B69002B01D10123B8
:103408002BE37B681A6A8E4B1B6803F00803002BBA
:1034180004D08B4B1B6803F0F00305E0884BD3F80E
:1034280094301B0903F0F0039A4223D97B681B6A86
:10343800184600F0CBFC0346002B01D001230CE317
:103448007F4A7F4B1B6843F0080313607C497C4B21
:103458001B6823F0F0027B681B6A13430B607849F2
:10346800774B5B6823F47F427B68DB691B0213435D
:103478004B6022E0724A724B1B6843F008031360EA
:103488006F496F4B1B6823F0F0027B681B6A13437C
:103498000B606B496A4B5B6823F47F427B68DB698E
:1034A8001B0213434B607B681B6A184600F08EFCB6
:1034B8000346002B01D00123CFE200F0B3FB014605
:1034C8005F4B9B681B0903F00F035E4AD35C03F054
:1034D8001F0321FA03F35C4A13600F20FEF7A6F8D6
:1034E8000346FB73FB7B002B52D0FB7BB5E27B686A
:1034F8009B69002B32D0524A514B1B6843F00103A1
:103508001360FEF7C5F8386108E0FEF7C1F8024617
:103518003B69D31A022B01D903239EE2484B1B684F
:1035280003F00203002BF0D0454A454B1B6843F0DB
:10353800080313604249424B1B6823F0F0027B6882
:103548001B6A13430B603E493D4B5B6823F47F4283
:103558007B68DB691B0213434B601AE0384A384B1F
:103568001B6823F001031360FEF792F8386108E046
:10357800FEF78EF802463B69D31A022B01D90323C2
:103588006BE22F4B1B6803F00203002BF0D100E025
:1035980000BF7B681B6803F00103002B72D0BB6976
:1035A800082B05D0BB690C2B0ED17B69032B0BD1E3
:1035B800234B1B6803F40033002B62D07B685B68E5
:1035C800002B5ED1012348E27B685B68B3F5803F3E
:1035D80006D11B4A1A4B1B6843F4803313601DE065
:1035E8007B685B68B3F5A02F0CD1154A144B1B6898
:1035F80043F480231360124A114B1B6843F4803351
:1036080013600BE00E4A0E4B1B6823F480331360E3
:103618000B4A0B4B1B6823F4802313607B685B68A1
:10362800002B1AD0FEF734F838610FE0FEF730F8B7
:1036380002463B69D31A642B08D903230DE200BF65
:10364800001002403C6F000844000020AE4B1B688D
:1036580003F40033002BE9D014E0FEF719F83861C1
:1036680008E0FEF715F802463B69D31A642B01D926
:103678000323F2E1A44B1B6803F40033002BF0D1C1
:1036880000E000BF7B681B6803F00203002B60D0DA
:10369800BB69042B05D0BB690C2B19D17B69022BA4
:1036A80016D1994B1B6803F48063002B05D07B6807
:1036B800DB68002B01D10123CFE19349924B5B6872
:1036C80023F0F8527B681B691B0613434B6040E0EC
:1036D8007B68DB68002B23D08B4A8B4B1B6843F439
:1036E80080731360FDF7D4FF386108E0FDF7D0FF61
:1036F80002463B69D31A022B01D90323ADE1824B61
:103708001B6803F48063002BF0D07F497E4B5B6815
:1037180023F0F8527B681B691B0613434B6018E0C3
:10372800794A794B1B6823F480731360FDF7B0FF67
:10373800386108E0FDF7ACFF02463B69D31A022B5B
:1037480001D9032389E1704B1B6803F48063002BC4
:10375800F0D17B681B6803F00803002B3CD07B6822
:103768005B69002B1CD0684A674BD3F8943043F050
:103778000103C2F89430FDF78BFF386108E0FDF7CC
:1037880087FF02463B69D31A022B01D9032364E160
:103798005D4BD3F8943003F00203002BEFD01BE00D
:1037A800594A594BD3F8943023F00103C2F89430A6
:1037B800FDF76EFF386108E0FDF76AFF02463B69D6
:1037C800D31A022B01D9032347E14F4BD3F8943086
:1037D80003F00203002BEFD17B681B6803F004039E
:1037E800002B00F0A5800023FB77474B9B6D03F06F
:1037F8008053002B0DD1444A434B9B6D43F08053BB
:103808009365414B9B6D03F08053BB60BB680123FC
:10381800FB773E4B1B6803F48073002B18D13B4A9F
:103828003A4B1B6843F480731360FDF731FF38612E
:1038380008E0FDF72DFF02463B69D31A022B01D998
:1038480003230AE1314B1B6803F48073002BF0D08B
:103858007B689B68012B08D12B4A2B4BD3F89030FF
:1038680043F00103C2F8903024E07B689B68052B85
:1038780010D1254A244BD3F8903043F00403C2F802
:103888009030214A204BD3F8903043F00103C2F81E
:1038980090300FE01C4A1C4BD3F8903023F0010302
:1038A800C2F89030184A184BD3F8903023F004032C
:1038B800C2F890307B689B68002B16D0FDF7E8FEB5
:1038C80038610AE0FDF7E4FE02463B69D31A41F28B
:1038D8008832934201D90323BFE00B4BD3F89030D1
:1038E80003F00203002BEDD019E0FDF7D1FE38619B
:1038F8000EE0FDF7CDFE02463B69D31A41F288324D
:10390800934205D90323A8E000100240007000404C
:10391800544BD3F8903003F00203002BE9D1FB7F1E
:10392800012B05D14F4A4F4B9B6D23F08053936574
:103938007B689B6A002B00F08F80BB690C2B00F022
:1039480089807B689B6A022B56D1464A454B1B6887
:1039580023F080731360FDF79BFE386108E0FDF7E4
:1039680097FE02463B69D31A022B01D9032374E060
:103978003C4B1B6803F00073002BF0D139497B687E
:103988001B6B013B1A017B685B6B1B021A437B684C
:103998009B6B1B095B041A437B68DB6A1A437B68D1
:1039A800DB6B5B08013B5B051A437B681B6C5B08A0
:1039B800013B5B061343CB602A4A2A4B1B6843F042
:1039C80080731360274A274BDB6843F08073D3600A
:1039D800FDF75EFE386108E0FDF75AFE02463B69D6
:1039E800D31A022B01D9032337E01E4B1B6803F0BF
:1039F8000073002BF0D02FE01A4A1A4B1B6823F0F3
:103A080080731360174B1B6803F02053002B05D1FC
:103A1800144A144BDB6823F00303D360114A114B9B
:103A2800DB6823F0887323F48033D360FDF730FE1E
:103A3800386108E0FDF72CFE02463B69D31A022BD9
:103A480001D9032309E0074B1B6803F00073002B1F
:103A5800F0D101E0012300E0002318462037BD46DD
:103A680080BD00BF0010024080B584B000AF786010
:103A780039607B68002B01D10123C6E0654B1B68C8
:103A880003F007023B689A4210D26249614B1B68F7
:103A980023F007023B6813430B605E4B1B6803F07F
:103AA80007023B689A4201D00123AEE07B681B689D
:103AB80003F00103002B4CD07B685B68032B07D114
:103AC800554B1B6803F00073002B21D101239CE0A8
:103AD8007B685B68022B07D14F4B1B6803F40033EC
:103AE800002B15D1012390E07B685B68002B07D180
:103AF800494B1B6803F00203002B09D1012384E022
:103B0800454B1B6803F48063002B01D101237CE043
:103B18004149414B9B6823F003027B685B68134370
:103B28008B60FDF7B5FDF8600AE0FDF7B1FD0246D0
:103B3800FB68D31A41F28832934201D9032364E027
:103B4800354B9B6803F00C027B685B689B009A42CC
:103B5800EBD17B681B6803F00203002B08D02E49C9
:103B68002D4B9B6823F0F0027B689B6813438B60A6
:103B7800284B1B6803F007023B689A4210D9254975
:103B8800244B1B6823F007023B6813430B60214B4F
:103B98001B6803F007023B689A4201D0012334E016
:103BA8007B681B6803F00403002B08D01A491A4BE2
:103BB8009B6823F4E0627B68DB6813438B607B6857
:103BC8001B6803F00803002B09D01349124B9B68AC
:103BD80023F460527B681B69DB0013438B6000F0A1
:103BE80021F801460C4B9B681B0903F00F030B4A95
:103BF800D35C03F01F0321FA03F3094A13600F2073
:103C0800FDF714FD0346FB72FB7A18461037BD46D4
:103C180080BD00BF00200240001002403C6F000839
:103C28004400002080B489B000AF0023FB6100236A
:103C3800BB61464B9B6803F00C033B61434BDB685D
:103C480003F00303FB603B69002B05D03B690C2B99
:103C580021D1FB68012B1ED13C4B1B6803F00803E4
:103C6800002B07D1394BD3F894301B0A03F00F030C
:103C7800FB6105E0354B1B681B0903F00F03FB6173
:103C8800334AFB6952F82330FB613B69002B0DD1A5
:103C9800FB69BB610AE03B69042B02D12D4BBB6178
:103CA80004E03B69082B01D12B4BBB613B690C2B12
:103CB80045D1264BDB6803F00303BB60234BDB686D
:103CC8001B0903F0070301337B60BB68022B02D09A
:103CD800032B0DD019E01F4A7B68B2FBF3F31B4A94
:103CE800D268120A02F07F0202FB03F37B6119E03B
:103CF800194A7B68B2FBF3F3144AD268120A02F03D
:103D08007F0202FB03F37B610CE0FA697B68B2FB7C
:103D1800F3F30E4AD268120A02F07F0202FB03F3A1
:103D28007B6100BF094BDB685B0E03F003030133C3
:103D38005B003B607A693B68B2FBF3F3BB61BB692C
:103D480018462437BD465DF8047B704700100240D2
:103D5800546F00080024F40000127A0080B400AF09
:103D6800034B1B681846BD465DF8047B704700BFCF
:103D78004400002080B500AFFFF7F0FF0146064B76
:103D88009B681B0A03F00703044AD35C03F01F0374
:103D980021FA03F3184680BD001002404C6F00085A
:103DA80080B500AFFFF7DAFF0146064B9B68DB0AD8
:103DB80003F00703044AD35C03F01F0321FA03F35B
:103DC800184680BD001002404C6F000880B586B0D0
:103DD80000AF786000233B612A4B9B6D03F0805352
:103DE800002B03D0FFF7AEFA786114E0254A254B83
:103DF8009B6D43F080539365224B9B6D03F080537A
:103E0800FB60FB68FFF79EFA78611E4A1D4B9B6DAD
:103E180023F0805393657B69B3F5007F0BD17B68F2
:103E2800802B19D97B68A02B02D902233B6113E0B0
:103E380001233B6110E07B68802B02D903233B619F
:103E48000AE07B68802B02D102233B6104E07B6897
:103E5800702B01D101233B610B490B4B1B6823F0ED
:103E680007023B6913430B60074B1B6803F007020B
:103E78003B699A4201D0012300E000231846183715
:103E8800BD4680BD001002400020024080B586B0CB
:103E980000AF78600023FB740023BB747B681B6849
:103EA80003F40063002B3FD07B685B6EB3F5800F93
:103EB8001CD0B3F5800F02D8002B0ED01FE0B3F54D
:103EC800000F03D0B3F5400F1CD018E0854A854B8E
:103ED800DB6843F48033D36015E07B68043300214A
:103EE800184600F031FF0346FB740CE07B68203372
:103EF8000021184601F018F80346FB7403E001237B
:103F0800FB7400E000BFFB7C002B0BD17549754B9F
:103F1800D3F8883023F440027B685B6E1343C1F802
:103F2800883001E0FB7CBB747B681B6803F480531A
:103F3800002B3FD07B689B6EB3F1807F1CD0B3F120
:103F4800807F02D8002B0ED01FE0B3F1007F03D092
:103F5800B3F1407F1CD018E0624A624BDB6843F43F
:103F68008033D36015E07B6804330021184600F0E5
:103F7800EBFE0346FB740CE07B68203300211846F7
:103F880000F0D2FF0346FB7403E00123FB7400E05A
:103F980000BFFB7C002B0BD15249524BD3F8883021
:103FA80023F040727B689B6E1343C1F8883001E0B0
:103FB800FB7CBB747B681B6803F40033002B00F0A8
:103FC800A08000237B74474B9B6D03F08053002B2C
:103FD80001D1012300E00023002B0DD0414A414BC1
:103FE8009B6D43F0805393653E4B9B6D03F080536C
:103FF800BB60BB6801237B743B4A3B4B1B6843F4A3
:1040080080731360FDF744FBF86009E0FDF740FB9F
:104018000246FB68D31A022B02D90323FB7405E07E
:10402800314B1B6803F48073002BEFD0FB7C002B13
:104038005CD12C4BD3F8903003F440737B617B69DF
:10404800002B1FD07B68D3F884207B699A4219D053
:10405800244BD3F8903023F440737B61214A214BE1
:10406800D3F8903043F48033C2F890301D4A1D4B8A
:10407800D3F8903023F48033C2F89030194A7B6922
:10408800C2F890307B6903F00103002B16D0FDF7CE
:10409800FFFAF8600BE0FDF7FBFA0246FB68D31A5B
:1040A80041F28832934202D90323FB7406E00D4B98
:1040B800D3F8903003F00203002BECD0FB7C002BEC
:1040C8000CD10849074BD3F8903023F440727B6831
:1040D800D3F884301343C1F8903009E0FB7CBB74FB
:1040E80006E000BF0010024000700040FB7CBB747B
:1040F8007B7C012B05D19E4A9D4B9B6D23F0805301
:1041080093657B681B6803F00103002B0AD098496C
:10411800974BD3F8883023F003027B689B6B1343DB
:10412800C1F888307B681B6803F00203002B0AD0B3
:104138008F498F4BD3F8883023F00C027B68DB6BF8
:104148001343C1F888307B681B6803F00403002B15
:104158000AD08749864BD3F8883023F030027B6831
:104168001B6C1343C1F888307B681B6803F0080395
:10417800002B0AD07E497E4BD3F8883023F0C0024A
:104188007B685B6C1343C1F888307B681B6803F05D
:104198001003002B0AD07649754BD3F8883023F4E6
:1041A80040727B689B6C1343C1F888307B681B683E
:1041B80003F02003002B0AD06D496D4BD3F88830EB
:1041C80023F440627B68DB6C1343C1F888307B685A
:1041D8001B6803F40073002B0AD06549644BD3F8BD
:1041E800883023F440227B68DB6D1343C1F88830A4
:1041F8007B681B6803F48063002B0AD05C495C4B26
:10420800D3F8883023F440127B681B6E1343C1F83F
:1042180088307B681B6803F04003002B0AD05449A0
:10422800534BD3F8883023F440527B681B6D1343FB
:10423800C1F888307B681B6803F08003002B0AD024
:104248004B494B4BD3F8883023F440427B685B6D75
:104258001343C1F888307B681B6803F48073002B14
:104268000AD04349424BD3F8883023F440327B6864
:104278009B6D1343C1F888307B681B6803F40053B7
:10428800002B28D03A493A4BD3F8883023F04062C3
:104298007B68DB6E1343C1F888307B68DB6EB3F153
:1042A800006F06D1324A324BDB6843F48013D36087
:1042B80011E07B68DB6EB3F1806F0CD17B6804334F
:1042C8000121184600F040FD0346FB74FB7C002BDF
:1042D80001D0FB7CBB747B681B6803F40023002BB4
:1042E80028D02349224BD3F8883023F040627B68DA
:1042F8001B6F1343C1F888307B681B6FB3F1006FE5
:1043080006D11B4A1A4BDB6843F48013D36011E0D3
:104318007B681B6FB3F1806F0CD17B68043301217C
:10432800184600F011FD0346FB74FB7C002B01D0FE
:10433800FB7CBB747B681B6803F48023002B2BD0A9
:104348000B490B4BD3F8883023F040627B685B6FD6
:104358001343C1F888307B685B6FB3F1006F09D1F4
:10436800034A034BDB6843F48013D36014E000BFB7
:10437800001002407B685B6FB3F1806F0CD17B68E3
:1043880004330121184600F0DFFC0346FB74FB7C74
:10439800002B01D0FB7CBB747B681B6803F4804353
:1043A800002B2FD02B492B4BD3F8883023F04052C9
:1043B8007B689B6F1343C1F888307B689B6FB3F1B0
:1043C800805F0DD17B6804330221184600F0BCFCE5
:1043D8000346FB74FB7C002B14D0FB7CBB7411E000
:1043E8007B689B6FB3F1005F0CD17B68203302219F
:1043F800184600F099FD0346FB74FB7C002B01D0A6
:10440800FB7CBB747B681B6803F40043002B0AD059
:104418001049104BD3F8883023F080427B68DB6F5B
:104428001343C1F888307B681B6803F48033002B82
:104438000BD00849074BD3F8883023F000427B683B
:10444800D3F880301343C1F88830BB7C184618373E
:10445800BD4680BD0010024080B588B000AF7860CE
:104468000023FB617B68B3F5003F37D1B84BD3F825
:10447800903003F440737B617B69B3F5007F14D0FF
:10448800B3F5407F1ED0B3F5807F01D000F053BC58
:10449800AF4BD3F8903003F00203022B40F0468470
:1044A8004FF40043FB6100F041BCA94BD3F89430B2
:1044B80003F00203022B40F03B844FF4FA43FB6104
:1044C80000F036BCA24B1B6803F40033B3F5003F81
:1044D80040F030849F4BFB6100F02CBC9C4BDB68A8
:1044E80003F003033B613B69022B23D0032B2ED03F
:1044F800012B39D1964B1B6803F00203022B16D10E
:10450800934B1B6803F00803002B05D0904B1B68E6
:104518001B0903F00F0305E08D4BD3F894301B0AF9
:1045280003F00F038C4A52F82330BB611FE00023CD
:10453800BB611CE0864B1B6803F48063B3F5806F96
:1045480002D1864BBB6112E00023BB610FE0804BB8
:104558001B6803F40033B3F5003F02D1804BBB6105
:1045680005E00023BB6102E00023BB6100BF7B685C
:10457800B3F5007F00F03783B3F5007F25D8102B03
:1045880000F0DF81102B0FD8022B00F02881022BBE
:1045980003D8012B00F0EC80CDE3042B00F06981F7
:1045A800082B00F09A81C6E3402B00F0B382402B21
:1045B80003D8202B00F0FD81BDE3802B00F0CD82D5
:1045C800B3F5807F00F0EC82B5E3B3F5804F00F0DF
:1045D8002D82B3F5804F11D8B3F5006F21D0B3F514
:1045E800006F04D8B3F5806F00F03E83A3E3B3F502
:1045F800805F1DD0B3F5005F21D09CE3B3F5803F09
:1046080000F07782B3F5803F04D8B3F5004F00F08F
:10461800718390E3B3F5802F11D0B3F5002F0ED03E
:1046280089E3B9694FF4006000F058FDF86182E34E
:10463800B9694FF4805000F051FDF8617BE3444BB9
:10464800D3F8883003F040637B617B69B3F1006F76
:1046580023D0B3F1406F03D0B3F1806F4AD086E026
:104668003B4B1B6803F00203022B7BD1384B1B68C2
:1046780003F00803002B05D0354B1B681B0903F01A
:104688000F0305E0324BD3F894301B0A03F00F03F5
:10469800314A52F82330FB6164E02D4B1B6803F06C
:1046A8000073B3F1007F5FD1294BDB6803F48013FB
:1046B800B3F5801F58D1264BDB681B0903F00703AD
:1046C8000133BA69B2FBF3F3BB61214BDB681B0A08
:1046D80003F07F03FB60BB69FA6802FB03F21C4B23
:1046E800DB685B0D03F0030301335B00B2FBF3F3FC
:1046F800FB6139E0164B1B6803F00063B3F1006FF0
:1047080034D1134B1B6903F48013B3F5801F2DD1EB
:104718000F4BDB681B0903F007030133BA69B2FBCF
:10472800F3F3BB610A4B1B691B0A03F07F03FB60B1
:10473800BB69FA6802FB03F2054B1B695B0D03F0CA
:10474800030301335B00B2FBF3F3FB610EE000BF30
:104758000010024090D00300546F00080024F400B9
:1047680000127A0000BFE6E200BFE4E200BFE2E226
:10477800AC4BD3F8883003F003037B617B69032BD0
:1047880027D801A252F823F0A1470008A94700083A
:10479800B1470008C5470008FFF702FBF8611DE0B4
:1047A800FFF740FAF86119E09E4B1B6803F4806339
:1047B800B3F5806F0FD19C4BFB610CE0994BD3F89C
:1047C800903003F00203022B07D14FF40043FB6142
:1047D80003E000BFAFE200BFADE200BFABE2914B28
:1047E800D3F8883003F00C037B617B690C2B3AD833
:1047F80001A252F823F000BF354800086F480008AE
:104808006F4800086F4800083D4800086F480008D6
:104818006F4800086F480008454800086F480008BE
:104828006F4800086F48000859480008FFF7A2FAC7
:10483800F8611DE0FFF7F6F9F86119E0794B1B689C
:1048480003F48063B3F5806F0FD1774BFB610CE005
:10485800744BD3F8903003F00203022B07D14FF4C6
:104868000043FB6103E000BF65E200BF63E200BFF5
:1048780061E26C4BD3F8883003F030037B617B69CD
:10488800102B0DD0102B02D8002B05D024E0202BA4
:104898000AD0302B12D01FE0FFF76CFAF8611BE04A
:1048A800FFF7C0F9F86117E05E4B1B6803F48063FB
:1048B800B3F5806F0DD15C4BFB610AE0594BD3F81F
:1048C800903003F00203022B05D14FF40043FB6143
:1048D80001E000BF2FE200BF2DE2524BD3F8883031
:1048E80003F0C0037B617B69402B0DD0402B02D8BD
:1048F800002B05D024E0802B0AD0C02B12D01FE05B
:10490800FFF738FAF8611BE0FFF78CF9F86117E058
:10491800444B1B6803F48063B3F5806F0DD1424BA1
:10492800FB610AE03F4BD3F8903003F00203022BFF
:1049380005D14FF40043FB6101E000BFFBE100BF7C
:10494800F9E1384BD3F8883003F440737B617B6915
:10495800B3F5807F10D0B3F5807F02D8002B07D045
:1049680026E0B3F5007F0BD0B3F5407F12D01FE0EF
:10497800FFF700FAF8611BE0FFF754F9F86117E058
:10498800284B1B6803F48063B3F5806F0DD1264B69
:10499800FB610AE0234BD3F8903003F00203022BAB
:1049A80005D14FF40043FB6101E000BFC3E100BF44
:1049B800C1E11C4BD3F8883003F440637B617B6909
:1049C800B3F5806F10D0B3F5806F02D8002B07D0F5
:1049D80026E0B3F5006F0BD0B3F5406F12D01FE09F
:1049E800FFF7C8F9F8611BE0FFF71CF9F86117E059
:1049F8000C4B1B6803F48063B3F5806F0DD10A4B31
:104A0800FB610AE0074BD3F8903003F00203022B56
:104A180005D14FF40043FB6101E000BF8BE100BF0B
:104A280089E100BF001002400024F400AE4BD3F827
:104A3800883003F040537B617B69B3F1005F2FD06E
:104A4800B3F1405F03D0B3F1805F04D050E0FFF7CB
:104A5800E9F8F8614CE0A44B1B6903F08073002B64
:104A680043D0A14BDB681B0903F007030133BA6984
:104A7800B2FBF3F3BB619C4B1B691B0A03F07F037A
:104A8800FB60BB69FA6802FB03F2974B1B695B0E7C
:104A980003F0030301335B00B2FBF3F3FB6124E093
:104AA800914B5B6903F08073002B20D08E4BDB6841
:104AB8001B0903F007030133BA69B2FBF3F3BB61C7
:104AC800894B5B691B0A03F07F03FB60BB69FA68CB
:104AD80002FB03F2844B5B695B0E03F003030133B3
:104AE8005B00B2FBF3F3FB6101E000BF23E100BF11
:104AF80021E17D4BD3F8883003F000437B617B696B
:104B0800002B03D1FFF74CF9F86114E1FFF78AF89D
:104B1800F86110E1744BD3F8883003F440537B619B
:104B28007B69B3F5805F09D0B3F5005F0AD0002B2D
:104B380000D011E0FFF71EF9F8610DE0FFF772F8F9
:104B4800F86109E0684B1B6803F48063B3F5806F74
:104B580001D1664BFB6100BFEDE0634BD3F88830B1
:104B680003F440437B617B69B3F5804F09D0B3F50B
:104B7800004F0AD0002B00D011E0FFF7FBF8F861D6
:104B88000DE0FFF74FF8F86109E0574B1B6803F495
:104B98008063B3F5806F01D1544BFB6100BFCAE05D
:104BA800514BD3F8883003F440337B617B69B3F50C
:104BB800803F09D0B3F5003F0AD0002B00D011E0A8
:104BC800FFF7D8F8F8610DE0FFF72CF8F86109E075
:104BD800454B1B6803F48063B3F5806F01D1434BE9
:104BE800FB6100BFA7E0404BD3F8883003F44023B3
:104BF8007B617B69B3F5802F10D0B3F5802F02D885
:104C0800002B07D02FE0B3F5002F12D0B3F5402FBB
:104C180019D028E0FFF7AEF8F86124E0324BD3F85A
:104C2800943003F00203022B18D14FF4FA43FB61CE
:104C380014E02D4B1B6803F48063B3F5806F0FD12C
:104C48002A4BFB610CE0284BD3F8903003F00203A9
:104C5800022B07D14FF40043FB6103E000BF6AE079
:104C680000BF68E000BF66E01F4BD3F8883003F44C
:104C780040137B617B69B3F5801F10D0B3F5801FAB
:104C880002D8002B07D034E0B3F5001F12D0B3F5DB
:104C9800401F19D02DE0FFF76DF8F86129E0124B9D
:104CA800D3F8943003F00203022B18D14FF4FA43DF
:104CB800FB6114E00C4B1B6803F48063B3F5806F51
:104CC8000FD10A4BFB610CE0074BD3F8903003F08F
:104CD8000203022B0CD14FF40043FB6108E000BF34
:104CE80029E000BF27E000BF001002400024F400C4
:104CF80000BF20E0124BD3F8883003F080437B617B
:104D08007B69002B03D0B3F1804F04D00DE0FFF78F
:104D180031F8F86109E00A4B1B6803F48063B3F5C6
:104D2800806F01D1074BFB6100BF04E000BF02E0C8
:104D380000BF00E000BFFB6918462037BD4680BDB4
:104D4800001002400024F40080B584B000AF786001
:104D580039600023FB73734BDB6803F00303002BFC
:104D680018D0704BDB6803F003027B681B689A421B
:104D78000DD17B681B68002B09D06A4BDB681B09C7
:104D880003F007035A1C7B685B689A4244D00123EE
:104D9800FB7341E07B681B68022B0CD0032B13D0FC
:104DA800012B20D15F4B1B6803F00203002B1DD1A0
:104DB8000123FB731AE05B4B1B6803F48063002B31
:104DC80016D10123FB7313E0564B1B6803F4003321
:104DD800002B0FD1534B1B6803F48023002B09D100
:104DE8000123FB7306E00123FB7304E000BF02E02C
:104DF80000BF00E000BFFB7B002B0DD14948494BA9
:104E0800DB6823F073027B6819687B685B68013B89
:104E18001B010B431343C360FB7B002B7DD1414A2D
:104E2800404B1B6823F080631360FCF731FCB860CB
:104E380009E0FCF72DFC0246BB68D31A022B02D905
:104E48000323FB7305E0374B1B6803F00063002B5B
:104E5800EFD1FB7B002B60D13B68002B11D131488F
:104E6800304B1B6923F41F3323F440737A6892682C
:104E780011027A68D268120952040A431343036183
:104E880027E03B68012B12D12648264B1B6923F4E7
:104E9800C00323F4FE437A68926811027A681269A3
:104EA8005208013A52050A431343036111E01D48B1
:104EB8001C4B1B6923F0C06323F4FE437A68926895
:104EC80011027A6852695208013A52060A4313439A
:104ED8000361144A134B1B6843F080631360FCF7AB
:104EE800D7FBB86009E0FCF7D3FB0246BB68D31ACE
:104EF800022B02D90323FB7305E00A4B1B6803F05E
:104F08000063002BEFD0FB7B002B06D10549054B36
:104F18001A697B689B6913430B61FB7B1846103742
:104F2800BD4680BD0010024080B584B000AF7860F7
:104F380039600023FB73684BDB6803F00303002B25
:104F480018D0654BDB6803F003027B681B689A4244
:104F58000DD17B681B68002B09D05F4BDB681B09F0
:104F680003F007035A1C7B685B689A4244D001230C
:104F7800FB7341E07B681B68022B0CD0032B13D01A
:104F8800012B20D1544B1B6803F00203002B1DD1C9
:104F98000123FB731AE0504B1B6803F48063002B5A
:104FA80016D10123FB7313E04B4B1B6803F400334A
:104FB800002B0FD1484B1B6803F48023002B09D129
:104FC8000123FB7306E00123FB7304E000BF02E04A
:104FD80000BF00E000BFFB7B002B0DD13E483E4BDD
:104FE800DB6823F073027B6819687B685B68013BA8
:104FF8001B010B431343C360FB7B002B67D1364A6D
:10500800354B1B6823F080531360FCF741FBB860F5
:1050180009E0FCF73DFB0246BB68D31A022B02D914
:105028000323FB7305E02C4B1B6803F00053002B94
:10503800EFD1FB7B002B4AD13B68002B11D12648CE
:10504800254B5B6923F41F3323F440737A68926815
:1050580011027A68D268120952040A431343436161
:1050680011E01D481C4B5B6923F0C06323F4FE4329
:105078007A68926811027A6812695208013A5206EF
:105088000A4313434361144A134B1B6843F080538C
:105098001360FCF7FDFAB86009E0FCF7F9FA02467C
:1050A800BB68D31A022B02D90323FB7305E00A4B12
:1050B8001B6803F00053002BEFD0FB7B002B06D1BD
:1050C8000549054B5A697B685B6913434B61FB7B58
:1050D80018461037BD4680BD0010024080B489B024
:1050E80000AF786039600023FB610023BB610023B7
:1050F8007B617B68B3F5006F0DD1634BD3F88830C3
:1051080003F44003BB61BB69B3F5400F14D14BF600
:105118008033FB6110E07B68B3F5805F0CD15A4B9C
:10512800D3F8883003F04073BB61BB69B3F1407FAB
:1051380002D14BF68033FB61FB69002B40F09C8069
:105148003B683B61BB69B3F5000F03D0BB69B3F1A2
:10515800007F2DD14C4BDB6803F48033002B00F02B
:105168008B80494BDB681B0903F0070301333A695D
:10517800B2FBF3F33B61444BDB681B0A03F07F038C
:10518800FB607B69002B0AD13F4BDB6803F40033DB
:10519800002B02D011237B6101E007237B613B696F
:1051A800FA6802FB03F27B69B2FBF3F3FB6163E08D
:1051B800BB69002B2CD1344B1B6903F48033002BC3
:1051C8005AD0314BDB681B0903F0070301333A69F6
:1051D800B2FBF3F33B612C4B1B691B0A03F07F0303
:1051E800FB607B69002B0AD1274B1B6903F4003352
:1051F800002B02D011237B6101E007237B613B690F
:10520800FA6802FB03F27B69B2FBF3F3FB6133E05C
:10521800BB69B3F5800F03D0BB69B3F1807F2BD195
:10522800194B5B6903F48033002B25D0164BDB68E0
:105238001B0903F0070301333A69B2FBF3F33B613F
:10524800114B5B691B0A03F07F03FB607B69002B32
:105258000AD10D4B5B6903F40033002B02D01123F4
:105268007B6101E007237B613B69FA6802FB03F27B
:105278007B69B2FBF3F3FB61FB6918462437BD4633
:105288005DF8047B704700BF0010024080B588B00D
:1052980000AF78607B68002B01D101234AE17B686D
:1052A80093F87D30DBB2002B06D17B68002283F8AF
:1052B8007C20786801F086FB786800F035FA0346B0
:1052C800002B01D0012335E17B68022283F87D2081
:1052D8007B68DB68012B07D0012B02D3022B06D099
:1052E80008E00023FB6108E01023FB6105E02023B0
:1052F800FB6102E00023FB6100BF7B689B68032B16
:105308001DD801A252F823F02153000827530008A2
:105318002F5300083753000800237B6112E04FF435
:1053280080637B610EE04FF400637B610AE04FF419
:1053380000637B61FB6943F00103FB6102E000232A
:105348007B6100BF7B681B687C4A934204D07B6802
:105358001B687B4A934203D17A4AFB69136002E0D7
:10536800794AFB6913607B68DB69002B38D07B685E
:105378001B68724A934204D07B681B68704A934248
:1053880005D14FF40060FFF767F8386104E04FF487
:105398008050FFF761F838613A6913469B0013445F
:1053A8005B001A467B68DB695B02B2FBF3F3FB60C8
:1053B800FB68664AA2FB0323DA087B681A62F9686D
:1053C800624BA3FB0123DA0813469B0013445B00DE
:1053D800CA1A082A04D97B681B6A5A1C7B681A6295
:1053E8007B685B68002B03D07B685B68022B09D164
:1053F8007B68DB6B012B01D1002301E04FF40073C4
:10540800BB6108E07B68DB6B012B02D14FF40073B2
:1054180000E00023BB617B681A687B681B68196819
:105428004B4B0B4013607B681B687A6812681168E5
:105438007A6850687A68126B10437A68526B104326
:105448007A68926B1043BA6910437A6910437A6894
:10545800526A10437A68126910437A685269104395
:105468007A68126A120502430A431A607B681A684E
:105478007B681B685B6823F4604323F00F03536069
:105488007B681B687A68126851687A6890697A68DC
:10549800926A10437A68D26A02430A435A607B6868
:1054A8001A687B681B6899682A4B0B4093607B6875
:1054B8001B687A68126891687A68126C501E7A685C
:1054C800126D10437A68926C10437A68D26C10435C
:1054D8007A68526C013A120202430A439A607B6866
:1054E8001A687B681B68D9684FF220030B40D360A9
:1054F8007B681B687A681268D1687A68506D7A6828
:10550800926D10437A68126E120410437A68D26D55
:10551800013A120202430A43DA607B680022C3F8A8
:1055280080207B68012283F87D207B68002283F835
:105538007C20002318462037BD4680BD0454014016
:10554800245401400054014000580140CDCCCCCC3B
:1055580010C005FF0080F8FF80B586B000AFF86086
:10556800B9601346FB80FCF793F87861BB68002BA1
:1055780002D0FB88002B01D1012393E0FB6893F84C
:105588007D30DBB2012B40F08C80FB6893F87C30D7
:10559800012B01D1022385E0FB68012283F87C20DE
:1055A800FB68BA685A66FB68FA88A3F86820FB6843
:1055B800FA88A3F86A20FB680022C3F88020FB68F9
:1055C800122283F87D20FB68DB6E384A1A63FB6879
:1055D800DB6E374ADA62FB68DB6E364A5A63FB6871
:1055E800DB6E00229A63FB68D86EFB685B6E194617
:1055F800FB681B681C331A46FB68B3F86830FCF775
:1056080099FD0346002B05D0FB68002283F87C2017
:10561800012347E00021F86800F04EF80146FB68D6
:105628001B68FA68126812690A431A61FB681B68EA
:10563800FA681268126842F400321A6015E0FCF742
:1056480027F802467B69D31AB3F57A7F0DD9FB6830
:10565800D3F8803043F04002FB68C3F88020FB6831
:10566800002283F87C2003231CE0FB681B685B692D
:1056780003F4E023002BE2D0FB681B681B6803F4EB
:105688008033002B07D1FB681B68FA681268126820
:1056980042F480321A60FB68002283F87C200023E1
:1056A80000E0022318461837BD4680BDF7570008AA
:1056B800995700081358000880B485B000AF786087
:1056C8000B46FB700123FB60FB78012B03D1FB68C1
:1056D80043F00803FB607B681B6B082B0BD17B68CE
:1056E8005B68032B03D07B685B68012B03D1FB68E5
:1056F80043F01003FB607B685B68032B03D07B6877
:105708005B68022B04D1FB6843F06003FB6003E095
:10571800FB6843F00403FB60FB6818461437BD467A
:105728005DF8047B7047000090B484B000AF7860E7
:10573800154B1B68154AA2FB03231B0B9C00002377
:10574800FB737B681B687A681268126822F48032DF
:105758001A60002C0AD17B68D3F8803043F04002ED
:105768007B68C3F880200323FB7307E0013C7B6858
:105778001B681B6803F48033002BEAD1FB7B1846B7
:105788001037BD4690BC7047440000201BECCB95F9
:1057980080B584B000AF78607B689B6AFB607B68EB
:1057A800DB69202B1CD0FB680022A3F86A20FB6869
:1057B8001B68FA681268126822F400321A60002125
:1057C800F868FFF779FF0346DA43FB681B68F96856
:1057D800096809690A401A61FB68012283F87D207B
:1057E800F86801F087F900BF1037BD4680BD80B565
:1057F80084B000AF78607B689B6AFB60F868FBF751
:10580800C5FE00BF1037BD4680BD80B584B000AF6F
:1058180078607B689B6AFB60FB68D3F8803043F054
:105828008002FB68C3F88020FB681B68FA6812686E
:10583800126822F400321A60F868FFF775FFFB68F7
:10584800012283F87D20FB680022A3F86A20F8680B
:10585800FBF7AEFE00BF1037BD4680BD80B586B0F1
:1058680004AF78600B467B8013467B707B68586872
:105878007B681B7899B27A880A23029301230193E3
:105888007B1C00930223FDF707F900BF0837BD46CC
:1058980080BD80B588B004AF78600B467B80134626
:1058A8003B803B881B0A9BB2DBB23B733B88DBB275
:1058B8007B737B6858687B681B7899B27A880C235D
:1058C80002930223019307F10C0300930223FDF7CF
:1058D800E3F800BF1037BD4680BD80B58AB004AF7D
:1058E800F8600B467A607B817B681B0EDBB23B75E8
:1058F8007B681B0CDBB27B757B681B0ADBB2BB7554
:105908007B68002B14BF01230023DBB2FB75FB6807
:105918005868FB681B7899B27A890E23029304238E
:10592800019307F1140300930223FDF7B5F800BFB4
:105938001837BD4680BD80B588B004AF78600B4687
:105948007B807B6858687B681B7899B27A880A23C1
:1059580002930123019307F10F0300930223FDF73C
:10596800AFF9FB7B18461037BD4680BD80B588B0BF
:1059780004AF78600B467B807B6858687B681B782F
:1059880099B27A880C2302930223019307F10C033E
:1059980000930223FDF794F93B7B1B021AB27B7B31
:1059A8001BB213431BB29BB218461037BD4680BDCD
:1059B80080B584B000AF78607B6800225A737B683A
:1059C80000221A817B6800225A817B6803221A739D
:1059D8007B6800229A737B680022DA737B68522204
:1059E8001A70002200217868FFF738FF6420FBF75F
:1059F8005BFE012200217868FFF730FF4FF47A70D0
:105A0800FBF752FE40F20F117868FFF7AFFF03462D
:105A18001A464EF6CC239A4201D00123B1E0002366
:105A2800FB7305E00A20FBF73FFEFB7B0133FB73AA
:105A3800E5217868FFF77FFF034603F00103002B99
:105A480002D1FB7B312BEDD9E5217868FFF773FF95
:105A5800034603F00103002B01D1022391E0062144
:105A68007868FFF783FF03461A467B681A81DE21B0
:105A78007868FFF77BFF03461A467B685A814FF424
:105A8800206224217868FFF704FF02223121786818
:105A9800FFF7E4FE082236217868FFF7DFFE1022C0
:105AA80037217868FFF7DAFE012239217868FFF795
:105AB800D5FEFF223E217868FFF7D0FE00223F2165
:105AC8007868FFF7CBFE022240217868FFF7C6FE10
